{
  "contracts/verifiers/UserStateTransitionVerifier.sol": {
    "UserStateTransitionVerifier": {
      "abi": [
        {
          "inputs": [
            {
              "internalType": "uint256[2]",
              "name": "a",
              "type": "uint256[2]"
            },
            {
              "internalType": "uint256[2][2]",
              "name": "b",
              "type": "uint256[2][2]"
            },
            {
              "internalType": "uint256[2]",
              "name": "c",
              "type": "uint256[2]"
            },
            {
              "internalType": "uint256[]",
              "name": "input",
              "type": "uint256[]"
            }
          ],
          "name": "verifyProof",
          "outputs": [
            {
              "internalType": "bool",
              "name": "",
              "type": "bool"
            }
          ],
          "stateMutability": "view",
          "type": "function"
        }
      ],
      "evm": {
        "bytecode": {
          "linkReferences": {},
          "object": "608060405234801561001057600080fd5b506115ed806100206000396000f3fe608060405234801561001057600080fd5b506004361061002b5760003560e01c8063c32e370e14610030575b600080fd5b61004361003e366004611146565b610059565b604051610050919061120f565b60405180910390f35b6000610063610f14565b6040805180820182528751815260208089015181830152908352815160808101835287515181840190815288518301516060830152815282518084018452888301805151825251830151818401528183015283820152815180830183528651815286820151918101919091529082015260006100dd6103e2565b6040805180820190915260008082526020820152835151919250906000805160206115988339815191521161012d5760405162461bcd60e51b815260040161012490611251565b60405180910390fd5b8251602001516000805160206115988339815191521161015f5760405162461bcd60e51b8152600401610124906113c7565b60208301515151600080516020611598833981519152116101925760405162461bcd60e51b81526004016101249061121a565b602083810151015151600080516020611598833981519152116101c75760405162461bcd60e51b815260040161012490611390565b602083810151510151600080516020611598833981519152116101fc5760405162461bcd60e51b8152600401610124906112bf565b6020838101518101510151600080516020611598833981519152116102335760405162461bcd60e51b815260040161012490611288565b604083015151600080516020611598833981519152116102655760405162461bcd60e51b81526004016101249061142a565b6000805160206115988339815191528360400151602001511061029a5760405162461bcd60e51b815260040161012490611322565b60005b600c81101561038e577f30644e72e131a029b85045b68181585d2833e84879b9709143e1f593f00000018682815181106102e757634e487b7160e01b600052603260045260246000fd5b60200260200101511061030c5760405162461bcd60e51b815260040161012490611359565b61037a82610375856080015184600161032591906114e2565b600d811061034357634e487b7160e01b600052603260045260246000fd5b602002015189858151811061036857634e487b7160e01b600052603260045260246000fd5b6020026020010151610a43565b610aae565b91508061038681611530565b91505061029d565b506080820151516103a0908290610aae565b90506103d66103b28460000151610b15565b84602001518460000151856020015185876040015189604001518960600151610ba2565b98975050505050505050565b6103ea610f46565b6040805180820182527f2d4d9aa7e302d9df41749d5507949d05dbea33fbb16c643b22f599a2be6df2e281527f14bedd503c37ceb061d8ec60209fe345ce89830a19230301f076caff004d19266020808301919091529083528151608080820184527f0967032fcbf776d1afc985f88877f182d38480a653f2decaa9794cbc3bf3060c8285019081527f0e187847ad4c798374d0d6732bf501847dd68bc0e071241e0213bc7fc13db7ab606080850191909152908352845180860186527f304cfbd1e08a704a99f5e847d93f8c3caafddec46b7a0d379da69a4d112346a781527f1739c1b1a457a8c7313123d24d2f9192f896b7c63eea05a9d57f06547ad0cec8818601528385015285840192909252835180820185527f198e9393920d483a7260bfb731fb5d25f1aa493335a9e71297e485b7aef312c28186018181527f1800deef121f1e76426a00665e5c4479674322d4f75edadd46debd5cd992f6ed838601819052908352865180880188527f090689d0585ff075ec9e99ad690c3395bc4b313370b38ef355acdadcd122975b8082527f12c85ea5db8c6deb4aab71808dcb408fe3d1e7690c43d37b4ce6cc0166fa7daa8289018190528589019290925289890194909452875180860189528089019384528087019290925291815286518088018852928352828601919091528085019190915282860152835180850185527f202686854197c62e5893c5e2e2db9b5f2a0ef0a285603144b20a6d7001b78f1b81527f19023dd2a2c7832a9688405d66aaa288c2c5d575e1eee644165fa19c3933498a81850152818601805191909152845180860186527f044ebbb4a3087ea2e549f7ab264582be6ea65e918f1023bde986720025f35e7c81527ee74662036e98768a4f0da474c5904cd1e83a3c2f7277b20025def267012464818601528151850152845180860186527f01759443736d2c5d668bc11404b545b53c20a2e40791ba7950f372bbf55a009381527f2f3c2c8878ba8ff748498e2094e5e4463c9270d296355df8cae9169cf564cf6f818601528151860152845180860186527f1ea05212a6703e58d7cda7349c10290eec6decca30d38940fe90f612a1f4f0f981527f0b9d28768315bde9768d29900739d256db1e3e13cd22ac269854ddafcfe6c9e781860152815190930192909252835180850185527f0f5e09396888026707c8321437b5c413cd237a3825b398623a42fa5665e8057281527f015f9845774e00082eef02a2b30cbaf0064b2cb6a16baca112b6500972baa39681850152825190910152825180840184527f06319f668b4866fe197001bd08782ad91c6ebbc21a418b1abeaa3d6bda5d584081527f13bcd4125c250c009be931d1ffc8d69b17f8c0581b5e80d11362e4cd2ad1646481840152815160a00152825180840184527f30010c0634b4cde801a9f7e6b85e33a07bf4c617cbc041fce9fbdcd4101ee17081527f24c0fe037eb060183f3f7a9fb9c5f69a3243afd960e253c343465ec18fc6a6f081840152815160c00152825180840184527f0697d2633f62a5a6e640922e621833390e523f96d553afb1248662efd1fcf4a581527f217c3cc87a1fcc0f5a45c68ad2572ec6ee8e0989d1681ab86230445e8e2c768e81840152815160e00152825180840184527f23b685efacf8a284668ecc97c5c51fc9560194012e7b79d5dda15a9d36e8cdd081527f1175b8f2fb0f6999453cdb1b64c26e531b4afe746f6c59675b877355c54ef0718184015281516101000152825180840184527f1b71afce8b80b8d80163b2a4a30c461b4b8055a4ab51354368685c5a17f076e081527f18ec25fe2ca877041beee735dfd0946c152c537f8edd772365ef97f41e6c2ad78184015281516101200152825180840184527f0e8af05352f31da544932c56ae9a645aea8265a85603d342c61fc595ef630b2d81527f19286a8a380c2751bb8a1820f101eece63eacf92aab7ff19e655bf31b6e8b0c98184015281516101400152825180840184527f2f2fd1505a9d73187003a2e0808474e0b4993af7d92f63aab64f71aa46d3ed7681527e6602501e7154ebbd0d70ad08ed84704bf48bf56bd0e41e7485d6b4cda91381818401528151610160015282518084019093527f1eae7d5c3184a72e8a54fb29cdb1aae2161b179fac164a6d0d75f83dd770178083527f21449391b34b9be6a67d583f998d7adea0b5a67c41368854100e0dca438877b19183019190915251610180015290565b610a4b610f8d565b610a53610fa7565b835181526020808501519082015260408101839052600060608360808460076107d05a03fa9050808015610a8657610a88565bfe5b5080610aa65760405162461bcd60e51b8152600401610124906112f6565b505092915050565b610ab6610f8d565b610abe610fc5565b8351815260208085015181830152835160408301528301516060808301919091526000908360c08460066107d05a03fa9050808015610a86575080610aa65760405162461bcd60e51b8152600401610124906113fe565b610b1d610f8d565b8151158015610b2e57506020820151155b15610b4d57506040805180820190915260008082526020820152610b9d565b6040518060400160405280836000015181526020016000805160206115988339815191528460200151610b80919061154b565b610b9890600080516020611598833981519152611519565b905290505b919050565b60408051608080820183528a825260208083018a90528284018890526060808401879052845192830185528b83528282018a9052828501889052820185905283516018808252610320820190955260009491859190839082016103008036833701905050905060005b6004811015610eba576000610c218260066114fa565b9050858260048110610c4357634e487b7160e01b600052603260045260246000fd5b60200201515183610c558360006114e2565b81518110610c7357634e487b7160e01b600052603260045260246000fd5b602002602001018181525050858260048110610c9f57634e487b7160e01b600052603260045260246000fd5b60200201516020015183826001610cb691906114e2565b81518110610cd457634e487b7160e01b600052603260045260246000fd5b602002602001018181525050848260048110610d0057634e487b7160e01b600052603260045260246000fd5b6020020151515183610d138360026114e2565b81518110610d3157634e487b7160e01b600052603260045260246000fd5b602002602001018181525050848260048110610d5d57634e487b7160e01b600052603260045260246000fd5b6020020151516001602002015183610d768360036114e2565b81518110610d9457634e487b7160e01b600052603260045260246000fd5b602002602001018181525050848260048110610dc057634e487b7160e01b600052603260045260246000fd5b602002015160200151600060028110610de957634e487b7160e01b600052603260045260246000fd5b602002015183610dfa8360046114e2565b81518110610e1857634e487b7160e01b600052603260045260246000fd5b602002602001018181525050848260048110610e4457634e487b7160e01b600052603260045260246000fd5b602002015160200151600160028110610e6d57634e487b7160e01b600052603260045260246000fd5b602002015183610e7e8360056114e2565b81518110610e9c57634e487b7160e01b600052603260045260246000fd5b60209081029190910101525080610eb281611530565b915050610c0b565b50610ec3610fe3565b6000602082602086026020860160086107d05a03fa9050808015610a86575080610eff5760405162461bcd60e51b815260040161012490611461565b505115159d9c50505050505050505050505050565b6040518060600160405280610f27610f8d565b8152602001610f34611001565b8152602001610f41610f8d565b905290565b6040518060a00160405280610f59610f8d565b8152602001610f66611001565b8152602001610f73611001565b8152602001610f80611001565b8152602001610f41611021565b604051806040016040528060008152602001600081525090565b60405180606001604052806003906020820280368337509192915050565b60405180608001604052806004906020820280368337509192915050565b60405180602001604052806001906020820280368337509192915050565b604051806040016040528061101461104f565b8152602001610f4161104f565b604051806101a00160405280600d905b611039610f8d565b8152602001906001900390816110315790505090565b60405180604001604052806002906020820280368337509192915050565b600082601f83011261107d578081fd5b6110876040611490565b808385604086011115611098578384fd5b835b60028110156110b957813584526020938401939091019060010161109a565b509095945050505050565b600082601f8301126110d4578081fd5b8135602067ffffffffffffffff8211156110f0576110f0611581565b8082026110fe828201611490565b838152828101908684018388018501891015611118578687fd5b8693505b8584101561113a57803583526001939093019291840191840161111c565b50979650505050505050565b600080600080610120858703121561115c578384fd5b611166868661106d565b9350604086605f870112611178578384fd5b600261118b611186826114c1565b611490565b8083890160c08a018b81111561119f578889fd5b885b858110156111c7576111b38d8461106d565b8552602090940193918601916001016111a1565b508298506111d58c8261106d565b975050505050505061010085013567ffffffffffffffff8111156111f7578182fd5b611203878288016110c4565b91505092959194509250565b901515815260200190565b60208082526018908201527f76657269666965722d6258302d6774652d7072696d652d710000000000000000604082015260600190565b60208082526017908201527f76657269666965722d61582d6774652d7072696d652d71000000000000000000604082015260600190565b60208082526018908201527f76657269666965722d6259312d6774652d7072696d652d710000000000000000604082015260600190565b60208082526018908201527f76657269666965722d6258312d6774652d7072696d652d710000000000000000604082015260600190565b6020808252601290820152711c185a5c9a5b99cb5b5d5b0b59985a5b195960721b604082015260600190565b60208082526017908201527f76657269666965722d63592d6774652d7072696d652d71000000000000000000604082015260600190565b6020808252601f908201527f76657269666965722d6774652d736e61726b2d7363616c61722d6669656c6400604082015260600190565b60208082526018908201527f76657269666965722d6259302d6774652d7072696d652d710000000000000000604082015260600190565b60208082526017908201527f76657269666965722d61592d6774652d7072696d652d71000000000000000000604082015260600190565b6020808252601290820152711c185a5c9a5b99cb5859190b59985a5b195960721b604082015260600190565b60208082526017908201527f76657269666965722d63582d6774652d7072696d652d71000000000000000000604082015260600190565b6020808252601590820152741c185a5c9a5b99cb5bdc18dbd9194b59985a5b1959605a1b604082015260600190565b604051601f8201601f1916810167ffffffffffffffff811182821017156114b9576114b9611581565b604052919050565b600067ffffffffffffffff8211156114db576114db611581565b5060200290565b600082198211156114f5576114f561156b565b500190565b60008160001904831182151516156115145761151461156b565b500290565b60008282101561152b5761152b61156b565b500390565b60006000198214156115445761154461156b565b5060010190565b60008261156657634e487b7160e01b81526012600452602481fd5b500690565b634e487b7160e01b600052601160045260246000fd5b634e487b7160e01b600052604160045260246000fdfe30644e72e131a029b85045b68181585d97816a916871ca8d3c208c16d87cfd47a264697066735822122021c84fe35259dd42b544d330857f3da32db443fd76e952c385c99a48619db59c64736f6c63430008010033",
          "opcodes": "PUSH1 0x80 PUSH1 0x40 MSTORE CALLVALUE DUP1 ISZERO PUSH2 0x10 JUMPI PUSH1 0x0 DUP1 REVERT JUMPDEST POP PUSH2 0x15ED DUP1 PUSH2 0x20 PUSH1 0x0 CODECOPY PUSH1 0x0 RETURN INVALID PUSH1 0x80 PUSH1 0x40 MSTORE CALLVALUE DUP1 ISZERO PUSH2 0x10 JUMPI PUSH1 0x0 DUP1 REVERT JUMPDEST POP PUSH1 0x4 CALLDATASIZE LT PUSH2 0x2B JUMPI PUSH1 0x0 CALLDATALOAD PUSH1 0xE0 SHR DUP1 PUSH4 0xC32E370E EQ PUSH2 0x30 JUMPI JUMPDEST PUSH1 0x0 DUP1 REVERT JUMPDEST PUSH2 0x43 PUSH2 0x3E CALLDATASIZE PUSH1 0x4 PUSH2 0x1146 JUMP JUMPDEST PUSH2 0x59 JUMP JUMPDEST PUSH1 0x40 MLOAD PUSH2 0x50 SWAP2 SWAP1 PUSH2 0x120F JUMP JUMPDEST PUSH1 0x40 MLOAD DUP1 SWAP2 SUB SWAP1 RETURN JUMPDEST PUSH1 0x0 PUSH2 0x63 PUSH2 0xF14 JUMP JUMPDEST PUSH1 0x40 DUP1 MLOAD DUP1 DUP3 ADD DUP3 MSTORE DUP8 MLOAD DUP2 MSTORE PUSH1 0x20 DUP1 DUP10 ADD MLOAD DUP2 DUP4 ADD MSTORE SWAP1 DUP4 MSTORE DUP2 MLOAD PUSH1 0x80 DUP2 ADD DUP4 MSTORE DUP8 MLOAD MLOAD DUP2 DUP5 ADD SWAP1 DUP2 MSTORE DUP9 MLOAD DUP4 ADD MLOAD PUSH1 0x60 DUP4 ADD MSTORE DUP2 MSTORE DUP3 MLOAD DUP1 DUP5 ADD DUP5 MSTORE DUP9 DUP4 ADD DUP1 MLOAD MLOAD DUP3 MSTORE MLOAD DUP4 ADD MLOAD DUP2 DUP5 ADD MSTORE DUP2 DUP4 ADD MSTORE DUP4 DUP3 ADD MSTORE DUP2 MLOAD DUP1 DUP4 ADD DUP4 MSTORE DUP7 MLOAD DUP2 MSTORE DUP7 DUP3 ADD MLOAD SWAP2 DUP2 ADD SWAP2 SWAP1 SWAP2 MSTORE SWAP1 DUP3 ADD MSTORE PUSH1 0x0 PUSH2 0xDD PUSH2 0x3E2 JUMP JUMPDEST PUSH1 0x40 DUP1 MLOAD DUP1 DUP3 ADD SWAP1 SWAP2 MSTORE PUSH1 0x0 DUP1 DUP3 MSTORE PUSH1 0x20 DUP3 ADD MSTORE DUP4 MLOAD MLOAD SWAP2 SWAP3 POP SWAP1 PUSH1 0x0 DUP1 MLOAD PUSH1 0x20 PUSH2 0x1598 DUP4 CODECOPY DUP2 MLOAD SWAP2 MSTORE GT PUSH2 0x12D JUMPI PUSH1 0x40 MLOAD PUSH3 0x461BCD PUSH1 0xE5 SHL DUP2 MSTORE PUSH1 0x4 ADD PUSH2 0x124 SWAP1 PUSH2 0x1251 JUMP JUMPDEST PUSH1 0x40 MLOAD DUP1 SWAP2 SUB SWAP1 REVERT JUMPDEST DUP3 MLOAD PUSH1 0x20 ADD MLOAD PUSH1 0x0 DUP1 MLOAD PUSH1 0x20 PUSH2 0x1598 DUP4 CODECOPY DUP2 MLOAD SWAP2 MSTORE GT PUSH2 0x15F JUMPI PUSH1 0x40 MLOAD PUSH3 0x461BCD PUSH1 0xE5 SHL DUP2 MSTORE PUSH1 0x4 ADD PUSH2 0x124 SWAP1 PUSH2 0x13C7 JUMP JUMPDEST PUSH1 0x20 DUP4 ADD MLOAD MLOAD MLOAD PUSH1 0x0 DUP1 MLOAD PUSH1 0x20 PUSH2 0x1598 DUP4 CODECOPY DUP2 MLOAD SWAP2 MSTORE GT PUSH2 0x192 JUMPI PUSH1 0x40 MLOAD PUSH3 0x461BCD PUSH1 0xE5 SHL DUP2 MSTORE PUSH1 0x4 ADD PUSH2 0x124 SWAP1 PUSH2 0x121A JUMP JUMPDEST PUSH1 0x20 DUP4 DUP2 ADD MLOAD ADD MLOAD MLOAD PUSH1 0x0 DUP1 MLOAD PUSH1 0x20 PUSH2 0x1598 DUP4 CODECOPY DUP2 MLOAD SWAP2 MSTORE GT PUSH2 0x1C7 JUMPI PUSH1 0x40 MLOAD PUSH3 0x461BCD PUSH1 0xE5 SHL DUP2 MSTORE PUSH1 0x4 ADD PUSH2 0x124 SWAP1 PUSH2 0x1390 JUMP JUMPDEST PUSH1 0x20 DUP4 DUP2 ADD MLOAD MLOAD ADD MLOAD PUSH1 0x0 DUP1 MLOAD PUSH1 0x20 PUSH2 0x1598 DUP4 CODECOPY DUP2 MLOAD SWAP2 MSTORE GT PUSH2 0x1FC JUMPI PUSH1 0x40 MLOAD PUSH3 0x461BCD PUSH1 0xE5 SHL DUP2 MSTORE PUSH1 0x4 ADD PUSH2 0x124 SWAP1 PUSH2 0x12BF JUMP JUMPDEST PUSH1 0x20 DUP4 DUP2 ADD MLOAD DUP2 ADD MLOAD ADD MLOAD PUSH1 0x0 DUP1 MLOAD PUSH1 0x20 PUSH2 0x1598 DUP4 CODECOPY DUP2 MLOAD SWAP2 MSTORE GT PUSH2 0x233 JUMPI PUSH1 0x40 MLOAD PUSH3 0x461BCD PUSH1 0xE5 SHL DUP2 MSTORE PUSH1 0x4 ADD PUSH2 0x124 SWAP1 PUSH2 0x1288 JUMP JUMPDEST PUSH1 0x40 DUP4 ADD MLOAD MLOAD PUSH1 0x0 DUP1 MLOAD PUSH1 0x20 PUSH2 0x1598 DUP4 CODECOPY DUP2 MLOAD SWAP2 MSTORE GT PUSH2 0x265 JUMPI PUSH1 0x40 MLOAD PUSH3 0x461BCD PUSH1 0xE5 SHL DUP2 MSTORE PUSH1 0x4 ADD PUSH2 0x124 SWAP1 PUSH2 0x142A JUMP JUMPDEST PUSH1 0x0 DUP1 MLOAD PUSH1 0x20 PUSH2 0x1598 DUP4 CODECOPY DUP2 MLOAD SWAP2 MSTORE DUP4 PUSH1 0x40 ADD MLOAD PUSH1 0x20 ADD MLOAD LT PUSH2 0x29A JUMPI PUSH1 0x40 MLOAD PUSH3 0x461BCD PUSH1 0xE5 SHL DUP2 MSTORE PUSH1 0x4 ADD PUSH2 0x124 SWAP1 PUSH2 0x1322 JUMP JUMPDEST PUSH1 0x0 JUMPDEST PUSH1 0xC DUP2 LT ISZERO PUSH2 0x38E JUMPI PUSH32 0x30644E72E131A029B85045B68181585D2833E84879B9709143E1F593F0000001 DUP7 DUP3 DUP2 MLOAD DUP2 LT PUSH2 0x2E7 JUMPI PUSH4 0x4E487B71 PUSH1 0xE0 SHL PUSH1 0x0 MSTORE PUSH1 0x32 PUSH1 0x4 MSTORE PUSH1 0x24 PUSH1 0x0 REVERT JUMPDEST PUSH1 0x20 MUL PUSH1 0x20 ADD ADD MLOAD LT PUSH2 0x30C JUMPI PUSH1 0x40 MLOAD PUSH3 0x461BCD PUSH1 0xE5 SHL DUP2 MSTORE PUSH1 0x4 ADD PUSH2 0x124 SWAP1 PUSH2 0x1359 JUMP JUMPDEST PUSH2 0x37A DUP3 PUSH2 0x375 DUP6 PUSH1 0x80 ADD MLOAD DUP5 PUSH1 0x1 PUSH2 0x325 SWAP2 SWAP1 PUSH2 0x14E2 JUMP JUMPDEST PUSH1 0xD DUP2 LT PUSH2 0x343 JUMPI PUSH4 0x4E487B71 PUSH1 0xE0 SHL PUSH1 0x0 MSTORE PUSH1 0x32 PUSH1 0x4 MSTORE PUSH1 0x24 PUSH1 0x0 REVERT JUMPDEST PUSH1 0x20 MUL ADD MLOAD DUP10 DUP6 DUP2 MLOAD DUP2 LT PUSH2 0x368 JUMPI PUSH4 0x4E487B71 PUSH1 0xE0 SHL PUSH1 0x0 MSTORE PUSH1 0x32 PUSH1 0x4 MSTORE PUSH1 0x24 PUSH1 0x0 REVERT JUMPDEST PUSH1 0x20 MUL PUSH1 0x20 ADD ADD MLOAD PUSH2 0xA43 JUMP JUMPDEST PUSH2 0xAAE JUMP JUMPDEST SWAP2 POP DUP1 PUSH2 0x386 DUP2 PUSH2 0x1530 JUMP JUMPDEST SWAP2 POP POP PUSH2 0x29D JUMP JUMPDEST POP PUSH1 0x80 DUP3 ADD MLOAD MLOAD PUSH2 0x3A0 SWAP1 DUP3 SWAP1 PUSH2 0xAAE JUMP JUMPDEST SWAP1 POP PUSH2 0x3D6 PUSH2 0x3B2 DUP5 PUSH1 0x0 ADD MLOAD PUSH2 0xB15 JUMP JUMPDEST DUP5 PUSH1 0x20 ADD MLOAD DUP5 PUSH1 0x0 ADD MLOAD DUP6 PUSH1 0x20 ADD MLOAD DUP6 DUP8 PUSH1 0x40 ADD MLOAD DUP10 PUSH1 0x40 ADD MLOAD DUP10 PUSH1 0x60 ADD MLOAD PUSH2 0xBA2 JUMP JUMPDEST SWAP9 SWAP8 POP POP POP POP POP POP POP POP JUMP JUMPDEST PUSH2 0x3EA PUSH2 0xF46 JUMP JUMPDEST PUSH1 0x40 DUP1 MLOAD DUP1 DUP3 ADD DUP3 MSTORE PUSH32 0x2D4D9AA7E302D9DF41749D5507949D05DBEA33FBB16C643B22F599A2BE6DF2E2 DUP2 MSTORE PUSH32 0x14BEDD503C37CEB061D8EC60209FE345CE89830A19230301F076CAFF004D1926 PUSH1 0x20 DUP1 DUP4 ADD SWAP2 SWAP1 SWAP2 MSTORE SWAP1 DUP4 MSTORE DUP2 MLOAD PUSH1 0x80 DUP1 DUP3 ADD DUP5 MSTORE PUSH32 0x967032FCBF776D1AFC985F88877F182D38480A653F2DECAA9794CBC3BF3060C DUP3 DUP6 ADD SWAP1 DUP2 MSTORE PUSH32 0xE187847AD4C798374D0D6732BF501847DD68BC0E071241E0213BC7FC13DB7AB PUSH1 0x60 DUP1 DUP6 ADD SWAP2 SWAP1 SWAP2 MSTORE SWAP1 DUP4 MSTORE DUP5 MLOAD DUP1 DUP7 ADD DUP7 MSTORE PUSH32 0x304CFBD1E08A704A99F5E847D93F8C3CAAFDDEC46B7A0D379DA69A4D112346A7 DUP2 MSTORE PUSH32 0x1739C1B1A457A8C7313123D24D2F9192F896B7C63EEA05A9D57F06547AD0CEC8 DUP2 DUP7 ADD MSTORE DUP4 DUP6 ADD MSTORE DUP6 DUP5 ADD SWAP3 SWAP1 SWAP3 MSTORE DUP4 MLOAD DUP1 DUP3 ADD DUP6 MSTORE PUSH32 0x198E9393920D483A7260BFB731FB5D25F1AA493335A9E71297E485B7AEF312C2 DUP2 DUP7 ADD DUP2 DUP2 MSTORE PUSH32 0x1800DEEF121F1E76426A00665E5C4479674322D4F75EDADD46DEBD5CD992F6ED DUP4 DUP7 ADD DUP2 SWAP1 MSTORE SWAP1 DUP4 MSTORE DUP7 MLOAD DUP1 DUP9 ADD DUP9 MSTORE PUSH32 0x90689D0585FF075EC9E99AD690C3395BC4B313370B38EF355ACDADCD122975B DUP1 DUP3 MSTORE PUSH32 0x12C85EA5DB8C6DEB4AAB71808DCB408FE3D1E7690C43D37B4CE6CC0166FA7DAA DUP3 DUP10 ADD DUP2 SWAP1 MSTORE DUP6 DUP10 ADD SWAP3 SWAP1 SWAP3 MSTORE DUP10 DUP10 ADD SWAP5 SWAP1 SWAP5 MSTORE DUP8 MLOAD DUP1 DUP7 ADD DUP10 MSTORE DUP1 DUP10 ADD SWAP4 DUP5 MSTORE DUP1 DUP8 ADD SWAP3 SWAP1 SWAP3 MSTORE SWAP2 DUP2 MSTORE DUP7 MLOAD DUP1 DUP9 ADD DUP9 MSTORE SWAP3 DUP4 MSTORE DUP3 DUP7 ADD SWAP2 SWAP1 SWAP2 MSTORE DUP1 DUP6 ADD SWAP2 SWAP1 SWAP2 MSTORE DUP3 DUP7 ADD MSTORE DUP4 MLOAD DUP1 DUP6 ADD DUP6 MSTORE PUSH32 0x202686854197C62E5893C5E2E2DB9B5F2A0EF0A285603144B20A6D7001B78F1B DUP2 MSTORE PUSH32 0x19023DD2A2C7832A9688405D66AAA288C2C5D575E1EEE644165FA19C3933498A DUP2 DUP6 ADD MSTORE DUP2 DUP7 ADD DUP1 MLOAD SWAP2 SWAP1 SWAP2 MSTORE DUP5 MLOAD DUP1 DUP7 ADD DUP7 MSTORE PUSH32 0x44EBBB4A3087EA2E549F7AB264582BE6EA65E918F1023BDE986720025F35E7C DUP2 MSTORE PUSH31 0xE74662036E98768A4F0DA474C5904CD1E83A3C2F7277B20025DEF267012464 DUP2 DUP7 ADD MSTORE DUP2 MLOAD DUP6 ADD MSTORE DUP5 MLOAD DUP1 DUP7 ADD DUP7 MSTORE PUSH32 0x1759443736D2C5D668BC11404B545B53C20A2E40791BA7950F372BBF55A0093 DUP2 MSTORE PUSH32 0x2F3C2C8878BA8FF748498E2094E5E4463C9270D296355DF8CAE9169CF564CF6F DUP2 DUP7 ADD MSTORE DUP2 MLOAD DUP7 ADD MSTORE DUP5 MLOAD DUP1 DUP7 ADD DUP7 MSTORE PUSH32 0x1EA05212A6703E58D7CDA7349C10290EEC6DECCA30D38940FE90F612A1F4F0F9 DUP2 MSTORE PUSH32 0xB9D28768315BDE9768D29900739D256DB1E3E13CD22AC269854DDAFCFE6C9E7 DUP2 DUP7 ADD MSTORE DUP2 MLOAD SWAP1 SWAP4 ADD SWAP3 SWAP1 SWAP3 MSTORE DUP4 MLOAD DUP1 DUP6 ADD DUP6 MSTORE PUSH32 0xF5E09396888026707C8321437B5C413CD237A3825B398623A42FA5665E80572 DUP2 MSTORE PUSH32 0x15F9845774E00082EEF02A2B30CBAF0064B2CB6A16BACA112B6500972BAA396 DUP2 DUP6 ADD MSTORE DUP3 MLOAD SWAP1 SWAP2 ADD MSTORE DUP3 MLOAD DUP1 DUP5 ADD DUP5 MSTORE PUSH32 0x6319F668B4866FE197001BD08782AD91C6EBBC21A418B1ABEAA3D6BDA5D5840 DUP2 MSTORE PUSH32 0x13BCD4125C250C009BE931D1FFC8D69B17F8C0581B5E80D11362E4CD2AD16464 DUP2 DUP5 ADD MSTORE DUP2 MLOAD PUSH1 0xA0 ADD MSTORE DUP3 MLOAD DUP1 DUP5 ADD DUP5 MSTORE PUSH32 0x30010C0634B4CDE801A9F7E6B85E33A07BF4C617CBC041FCE9FBDCD4101EE170 DUP2 MSTORE PUSH32 0x24C0FE037EB060183F3F7A9FB9C5F69A3243AFD960E253C343465EC18FC6A6F0 DUP2 DUP5 ADD MSTORE DUP2 MLOAD PUSH1 0xC0 ADD MSTORE DUP3 MLOAD DUP1 DUP5 ADD DUP5 MSTORE PUSH32 0x697D2633F62A5A6E640922E621833390E523F96D553AFB1248662EFD1FCF4A5 DUP2 MSTORE PUSH32 0x217C3CC87A1FCC0F5A45C68AD2572EC6EE8E0989D1681AB86230445E8E2C768E DUP2 DUP5 ADD MSTORE DUP2 MLOAD PUSH1 0xE0 ADD MSTORE DUP3 MLOAD DUP1 DUP5 ADD DUP5 MSTORE PUSH32 0x23B685EFACF8A284668ECC97C5C51FC9560194012E7B79D5DDA15A9D36E8CDD0 DUP2 MSTORE PUSH32 0x1175B8F2FB0F6999453CDB1B64C26E531B4AFE746F6C59675B877355C54EF071 DUP2 DUP5 ADD MSTORE DUP2 MLOAD PUSH2 0x100 ADD MSTORE DUP3 MLOAD DUP1 DUP5 ADD DUP5 MSTORE PUSH32 0x1B71AFCE8B80B8D80163B2A4A30C461B4B8055A4AB51354368685C5A17F076E0 DUP2 MSTORE PUSH32 0x18EC25FE2CA877041BEEE735DFD0946C152C537F8EDD772365EF97F41E6C2AD7 DUP2 DUP5 ADD MSTORE DUP2 MLOAD PUSH2 0x120 ADD MSTORE DUP3 MLOAD DUP1 DUP5 ADD DUP5 MSTORE PUSH32 0xE8AF05352F31DA544932C56AE9A645AEA8265A85603D342C61FC595EF630B2D DUP2 MSTORE PUSH32 0x19286A8A380C2751BB8A1820F101EECE63EACF92AAB7FF19E655BF31B6E8B0C9 DUP2 DUP5 ADD MSTORE DUP2 MLOAD PUSH2 0x140 ADD MSTORE DUP3 MLOAD DUP1 DUP5 ADD DUP5 MSTORE PUSH32 0x2F2FD1505A9D73187003A2E0808474E0B4993AF7D92F63AAB64F71AA46D3ED76 DUP2 MSTORE PUSH31 0x6602501E7154EBBD0D70AD08ED84704BF48BF56BD0E41E7485D6B4CDA91381 DUP2 DUP5 ADD MSTORE DUP2 MLOAD PUSH2 0x160 ADD MSTORE DUP3 MLOAD DUP1 DUP5 ADD SWAP1 SWAP4 MSTORE PUSH32 0x1EAE7D5C3184A72E8A54FB29CDB1AAE2161B179FAC164A6D0D75F83DD7701780 DUP4 MSTORE PUSH32 0x21449391B34B9BE6A67D583F998D7ADEA0B5A67C41368854100E0DCA438877B1 SWAP2 DUP4 ADD SWAP2 SWAP1 SWAP2 MSTORE MLOAD PUSH2 0x180 ADD MSTORE SWAP1 JUMP JUMPDEST PUSH2 0xA4B PUSH2 0xF8D JUMP JUMPDEST PUSH2 0xA53 PUSH2 0xFA7 JUMP JUMPDEST DUP4 MLOAD DUP2 MSTORE PUSH1 0x20 DUP1 DUP6 ADD MLOAD SWAP1 DUP3 ADD MSTORE PUSH1 0x40 DUP2 ADD DUP4 SWAP1 MSTORE PUSH1 0x0 PUSH1 0x60 DUP4 PUSH1 0x80 DUP5 PUSH1 0x7 PUSH2 0x7D0 GAS SUB STATICCALL SWAP1 POP DUP1 DUP1 ISZERO PUSH2 0xA86 JUMPI PUSH2 0xA88 JUMP JUMPDEST INVALID JUMPDEST POP DUP1 PUSH2 0xAA6 JUMPI PUSH1 0x40 MLOAD PUSH3 0x461BCD PUSH1 0xE5 SHL DUP2 MSTORE PUSH1 0x4 ADD PUSH2 0x124 SWAP1 PUSH2 0x12F6 JUMP JUMPDEST POP POP SWAP3 SWAP2 POP POP JUMP JUMPDEST PUSH2 0xAB6 PUSH2 0xF8D JUMP JUMPDEST PUSH2 0xABE PUSH2 0xFC5 JUMP JUMPDEST DUP4 MLOAD DUP2 MSTORE PUSH1 0x20 DUP1 DUP6 ADD MLOAD DUP2 DUP4 ADD MSTORE DUP4 MLOAD PUSH1 0x40 DUP4 ADD MSTORE DUP4 ADD MLOAD PUSH1 0x60 DUP1 DUP4 ADD SWAP2 SWAP1 SWAP2 MSTORE PUSH1 0x0 SWAP1 DUP4 PUSH1 0xC0 DUP5 PUSH1 0x6 PUSH2 0x7D0 GAS SUB STATICCALL SWAP1 POP DUP1 DUP1 ISZERO PUSH2 0xA86 JUMPI POP DUP1 PUSH2 0xAA6 JUMPI PUSH1 0x40 MLOAD PUSH3 0x461BCD PUSH1 0xE5 SHL DUP2 MSTORE PUSH1 0x4 ADD PUSH2 0x124 SWAP1 PUSH2 0x13FE JUMP JUMPDEST PUSH2 0xB1D PUSH2 0xF8D JUMP JUMPDEST DUP2 MLOAD ISZERO DUP1 ISZERO PUSH2 0xB2E JUMPI POP PUSH1 0x20 DUP3 ADD MLOAD ISZERO JUMPDEST ISZERO PUSH2 0xB4D JUMPI POP PUSH1 0x40 DUP1 MLOAD DUP1 DUP3 ADD SWAP1 SWAP2 MSTORE PUSH1 0x0 DUP1 DUP3 MSTORE PUSH1 0x20 DUP3 ADD MSTORE PUSH2 0xB9D JUMP JUMPDEST PUSH1 0x40 MLOAD DUP1 PUSH1 0x40 ADD PUSH1 0x40 MSTORE DUP1 DUP4 PUSH1 0x0 ADD MLOAD DUP2 MSTORE PUSH1 0x20 ADD PUSH1 0x0 DUP1 MLOAD PUSH1 0x20 PUSH2 0x1598 DUP4 CODECOPY DUP2 MLOAD SWAP2 MSTORE DUP5 PUSH1 0x20 ADD MLOAD PUSH2 0xB80 SWAP2 SWAP1 PUSH2 0x154B JUMP JUMPDEST PUSH2 0xB98 SWAP1 PUSH1 0x0 DUP1 MLOAD PUSH1 0x20 PUSH2 0x1598 DUP4 CODECOPY DUP2 MLOAD SWAP2 MSTORE PUSH2 0x1519 JUMP JUMPDEST SWAP1 MSTORE SWAP1 POP JUMPDEST SWAP2 SWAP1 POP JUMP JUMPDEST PUSH1 0x40 DUP1 MLOAD PUSH1 0x80 DUP1 DUP3 ADD DUP4 MSTORE DUP11 DUP3 MSTORE PUSH1 0x20 DUP1 DUP4 ADD DUP11 SWAP1 MSTORE DUP3 DUP5 ADD DUP9 SWAP1 MSTORE PUSH1 0x60 DUP1 DUP5 ADD DUP8 SWAP1 MSTORE DUP5 MLOAD SWAP3 DUP4 ADD DUP6 MSTORE DUP12 DUP4 MSTORE DUP3 DUP3 ADD DUP11 SWAP1 MSTORE DUP3 DUP6 ADD DUP9 SWAP1 MSTORE DUP3 ADD DUP6 SWAP1 MSTORE DUP4 MLOAD PUSH1 0x18 DUP1 DUP3 MSTORE PUSH2 0x320 DUP3 ADD SWAP1 SWAP6 MSTORE PUSH1 0x0 SWAP5 SWAP2 DUP6 SWAP2 SWAP1 DUP4 SWAP1 DUP3 ADD PUSH2 0x300 DUP1 CALLDATASIZE DUP4 CALLDATACOPY ADD SWAP1 POP POP SWAP1 POP PUSH1 0x0 JUMPDEST PUSH1 0x4 DUP2 LT ISZERO PUSH2 0xEBA JUMPI PUSH1 0x0 PUSH2 0xC21 DUP3 PUSH1 0x6 PUSH2 0x14FA JUMP JUMPDEST SWAP1 POP DUP6 DUP3 PUSH1 0x4 DUP2 LT PUSH2 0xC43 JUMPI PUSH4 0x4E487B71 PUSH1 0xE0 SHL PUSH1 0x0 MSTORE PUSH1 0x32 PUSH1 0x4 MSTORE PUSH1 0x24 PUSH1 0x0 REVERT JUMPDEST PUSH1 0x20 MUL ADD MLOAD MLOAD DUP4 PUSH2 0xC55 DUP4 PUSH1 0x0 PUSH2 0x14E2 JUMP JUMPDEST DUP2 MLOAD DUP2 LT PUSH2 0xC73 JUMPI PUSH4 0x4E487B71 PUSH1 0xE0 SHL PUSH1 0x0 MSTORE PUSH1 0x32 PUSH1 0x4 MSTORE PUSH1 0x24 PUSH1 0x0 REVERT JUMPDEST PUSH1 0x20 MUL PUSH1 0x20 ADD ADD DUP2 DUP2 MSTORE POP POP DUP6 DUP3 PUSH1 0x4 DUP2 LT PUSH2 0xC9F JUMPI PUSH4 0x4E487B71 PUSH1 0xE0 SHL PUSH1 0x0 MSTORE PUSH1 0x32 PUSH1 0x4 MSTORE PUSH1 0x24 PUSH1 0x0 REVERT JUMPDEST PUSH1 0x20 MUL ADD MLOAD PUSH1 0x20 ADD MLOAD DUP4 DUP3 PUSH1 0x1 PUSH2 0xCB6 SWAP2 SWAP1 PUSH2 0x14E2 JUMP JUMPDEST DUP2 MLOAD DUP2 LT PUSH2 0xCD4 JUMPI PUSH4 0x4E487B71 PUSH1 0xE0 SHL PUSH1 0x0 MSTORE PUSH1 0x32 PUSH1 0x4 MSTORE PUSH1 0x24 PUSH1 0x0 REVERT JUMPDEST PUSH1 0x20 MUL PUSH1 0x20 ADD ADD DUP2 DUP2 MSTORE POP POP DUP5 DUP3 PUSH1 0x4 DUP2 LT PUSH2 0xD00 JUMPI PUSH4 0x4E487B71 PUSH1 0xE0 SHL PUSH1 0x0 MSTORE PUSH1 0x32 PUSH1 0x4 MSTORE PUSH1 0x24 PUSH1 0x0 REVERT JUMPDEST PUSH1 0x20 MUL ADD MLOAD MLOAD MLOAD DUP4 PUSH2 0xD13 DUP4 PUSH1 0x2 PUSH2 0x14E2 JUMP JUMPDEST DUP2 MLOAD DUP2 LT PUSH2 0xD31 JUMPI PUSH4 0x4E487B71 PUSH1 0xE0 SHL PUSH1 0x0 MSTORE PUSH1 0x32 PUSH1 0x4 MSTORE PUSH1 0x24 PUSH1 0x0 REVERT JUMPDEST PUSH1 0x20 MUL PUSH1 0x20 ADD ADD DUP2 DUP2 MSTORE POP POP DUP5 DUP3 PUSH1 0x4 DUP2 LT PUSH2 0xD5D JUMPI PUSH4 0x4E487B71 PUSH1 0xE0 SHL PUSH1 0x0 MSTORE PUSH1 0x32 PUSH1 0x4 MSTORE PUSH1 0x24 PUSH1 0x0 REVERT JUMPDEST PUSH1 0x20 MUL ADD MLOAD MLOAD PUSH1 0x1 PUSH1 0x20 MUL ADD MLOAD DUP4 PUSH2 0xD76 DUP4 PUSH1 0x3 PUSH2 0x14E2 JUMP JUMPDEST DUP2 MLOAD DUP2 LT PUSH2 0xD94 JUMPI PUSH4 0x4E487B71 PUSH1 0xE0 SHL PUSH1 0x0 MSTORE PUSH1 0x32 PUSH1 0x4 MSTORE PUSH1 0x24 PUSH1 0x0 REVERT JUMPDEST PUSH1 0x20 MUL PUSH1 0x20 ADD ADD DUP2 DUP2 MSTORE POP POP DUP5 DUP3 PUSH1 0x4 DUP2 LT PUSH2 0xDC0 JUMPI PUSH4 0x4E487B71 PUSH1 0xE0 SHL PUSH1 0x0 MSTORE PUSH1 0x32 PUSH1 0x4 MSTORE PUSH1 0x24 PUSH1 0x0 REVERT JUMPDEST PUSH1 0x20 MUL ADD MLOAD PUSH1 0x20 ADD MLOAD PUSH1 0x0 PUSH1 0x2 DUP2 LT PUSH2 0xDE9 JUMPI PUSH4 0x4E487B71 PUSH1 0xE0 SHL PUSH1 0x0 MSTORE PUSH1 0x32 PUSH1 0x4 MSTORE PUSH1 0x24 PUSH1 0x0 REVERT JUMPDEST PUSH1 0x20 MUL ADD MLOAD DUP4 PUSH2 0xDFA DUP4 PUSH1 0x4 PUSH2 0x14E2 JUMP JUMPDEST DUP2 MLOAD DUP2 LT PUSH2 0xE18 JUMPI PUSH4 0x4E487B71 PUSH1 0xE0 SHL PUSH1 0x0 MSTORE PUSH1 0x32 PUSH1 0x4 MSTORE PUSH1 0x24 PUSH1 0x0 REVERT JUMPDEST PUSH1 0x20 MUL PUSH1 0x20 ADD ADD DUP2 DUP2 MSTORE POP POP DUP5 DUP3 PUSH1 0x4 DUP2 LT PUSH2 0xE44 JUMPI PUSH4 0x4E487B71 PUSH1 0xE0 SHL PUSH1 0x0 MSTORE PUSH1 0x32 PUSH1 0x4 MSTORE PUSH1 0x24 PUSH1 0x0 REVERT JUMPDEST PUSH1 0x20 MUL ADD MLOAD PUSH1 0x20 ADD MLOAD PUSH1 0x1 PUSH1 0x2 DUP2 LT PUSH2 0xE6D JUMPI PUSH4 0x4E487B71 PUSH1 0xE0 SHL PUSH1 0x0 MSTORE PUSH1 0x32 PUSH1 0x4 MSTORE PUSH1 0x24 PUSH1 0x0 REVERT JUMPDEST PUSH1 0x20 MUL ADD MLOAD DUP4 PUSH2 0xE7E DUP4 PUSH1 0x5 PUSH2 0x14E2 JUMP JUMPDEST DUP2 MLOAD DUP2 LT PUSH2 0xE9C JUMPI PUSH4 0x4E487B71 PUSH1 0xE0 SHL PUSH1 0x0 MSTORE PUSH1 0x32 PUSH1 0x4 MSTORE PUSH1 0x24 PUSH1 0x0 REVERT JUMPDEST PUSH1 0x20 SWAP1 DUP2 MUL SWAP2 SWAP1 SWAP2 ADD ADD MSTORE POP DUP1 PUSH2 0xEB2 DUP2 PUSH2 0x1530 JUMP JUMPDEST SWAP2 POP POP PUSH2 0xC0B JUMP JUMPDEST POP PUSH2 0xEC3 PUSH2 0xFE3 JUMP JUMPDEST PUSH1 0x0 PUSH1 0x20 DUP3 PUSH1 0x20 DUP7 MUL PUSH1 0x20 DUP7 ADD PUSH1 0x8 PUSH2 0x7D0 GAS SUB STATICCALL SWAP1 POP DUP1 DUP1 ISZERO PUSH2 0xA86 JUMPI POP DUP1 PUSH2 0xEFF JUMPI PUSH1 0x40 MLOAD PUSH3 0x461BCD PUSH1 0xE5 SHL DUP2 MSTORE PUSH1 0x4 ADD PUSH2 0x124 SWAP1 PUSH2 0x1461 JUMP JUMPDEST POP MLOAD ISZERO ISZERO SWAP14 SWAP13 POP POP POP POP POP POP POP POP POP POP POP POP POP JUMP JUMPDEST PUSH1 0x40 MLOAD DUP1 PUSH1 0x60 ADD PUSH1 0x40 MSTORE DUP1 PUSH2 0xF27 PUSH2 0xF8D JUMP JUMPDEST DUP2 MSTORE PUSH1 0x20 ADD PUSH2 0xF34 PUSH2 0x1001 JUMP JUMPDEST DUP2 MSTORE PUSH1 0x20 ADD PUSH2 0xF41 PUSH2 0xF8D JUMP JUMPDEST SWAP1 MSTORE SWAP1 JUMP JUMPDEST PUSH1 0x40 MLOAD DUP1 PUSH1 0xA0 ADD PUSH1 0x40 MSTORE DUP1 PUSH2 0xF59 PUSH2 0xF8D JUMP JUMPDEST DUP2 MSTORE PUSH1 0x20 ADD PUSH2 0xF66 PUSH2 0x1001 JUMP JUMPDEST DUP2 MSTORE PUSH1 0x20 ADD PUSH2 0xF73 PUSH2 0x1001 JUMP JUMPDEST DUP2 MSTORE PUSH1 0x20 ADD PUSH2 0xF80 PUSH2 0x1001 JUMP JUMPDEST DUP2 MSTORE PUSH1 0x20 ADD PUSH2 0xF41 PUSH2 0x1021 JUMP JUMPDEST PUSH1 0x40 MLOAD DUP1 PUSH1 0x40 ADD PUSH1 0x40 MSTORE DUP1 PUSH1 0x0 DUP2 MSTORE PUSH1 0x20 ADD PUSH1 0x0 DUP2 MSTORE POP SWAP1 JUMP JUMPDEST PUSH1 0x40 MLOAD DUP1 PUSH1 0x60 ADD PUSH1 0x40 MSTORE DUP1 PUSH1 0x3 SWAP1 PUSH1 0x20 DUP3 MUL DUP1 CALLDATASIZE DUP4 CALLDATACOPY POP SWAP2 SWAP3 SWAP2 POP POP JUMP JUMPDEST PUSH1 0x40 MLOAD DUP1 PUSH1 0x80 ADD PUSH1 0x40 MSTORE DUP1 PUSH1 0x4 SWAP1 PUSH1 0x20 DUP3 MUL DUP1 CALLDATASIZE DUP4 CALLDATACOPY POP SWAP2 SWAP3 SWAP2 POP POP JUMP JUMPDEST PUSH1 0x40 MLOAD DUP1 PUSH1 0x20 ADD PUSH1 0x40 MSTORE DUP1 PUSH1 0x1 SWAP1 PUSH1 0x20 DUP3 MUL DUP1 CALLDATASIZE DUP4 CALLDATACOPY POP SWAP2 SWAP3 SWAP2 POP POP JUMP JUMPDEST PUSH1 0x40 MLOAD DUP1 PUSH1 0x40 ADD PUSH1 0x40 MSTORE DUP1 PUSH2 0x1014 PUSH2 0x104F JUMP JUMPDEST DUP2 MSTORE PUSH1 0x20 ADD PUSH2 0xF41 PUSH2 0x104F JUMP JUMPDEST PUSH1 0x40 MLOAD DUP1 PUSH2 0x1A0 ADD PUSH1 0x40 MSTORE DUP1 PUSH1 0xD SWAP1 JUMPDEST PUSH2 0x1039 PUSH2 0xF8D JUMP JUMPDEST DUP2 MSTORE PUSH1 0x20 ADD SWAP1 PUSH1 0x1 SWAP1 SUB SWAP1 DUP2 PUSH2 0x1031 JUMPI SWAP1 POP POP SWAP1 JUMP JUMPDEST PUSH1 0x40 MLOAD DUP1 PUSH1 0x40 ADD PUSH1 0x40 MSTORE DUP1 PUSH1 0x2 SWAP1 PUSH1 0x20 DUP3 MUL DUP1 CALLDATASIZE DUP4 CALLDATACOPY POP SWAP2 SWAP3 SWAP2 POP POP JUMP JUMPDEST PUSH1 0x0 DUP3 PUSH1 0x1F DUP4 ADD SLT PUSH2 0x107D JUMPI DUP1 DUP2 REVERT JUMPDEST PUSH2 0x1087 PUSH1 0x40 PUSH2 0x1490 JUMP JUMPDEST DUP1 DUP4 DUP6 PUSH1 0x40 DUP7 ADD GT ISZERO PUSH2 0x1098 JUMPI DUP4 DUP5 REVERT JUMPDEST DUP4 JUMPDEST PUSH1 0x2 DUP2 LT ISZERO PUSH2 0x10B9 JUMPI DUP2 CALLDATALOAD DUP5 MSTORE PUSH1 0x20 SWAP4 DUP5 ADD SWAP4 SWAP1 SWAP2 ADD SWAP1 PUSH1 0x1 ADD PUSH2 0x109A JUMP JUMPDEST POP SWAP1 SWAP6 SWAP5 POP POP POP POP POP JUMP JUMPDEST PUSH1 0x0 DUP3 PUSH1 0x1F DUP4 ADD SLT PUSH2 0x10D4 JUMPI DUP1 DUP2 REVERT JUMPDEST DUP2 CALLDATALOAD PUSH1 0x20 PUSH8 0xFFFFFFFFFFFFFFFF DUP3 GT ISZERO PUSH2 0x10F0 JUMPI PUSH2 0x10F0 PUSH2 0x1581 JUMP JUMPDEST DUP1 DUP3 MUL PUSH2 0x10FE DUP3 DUP3 ADD PUSH2 0x1490 JUMP JUMPDEST DUP4 DUP2 MSTORE DUP3 DUP2 ADD SWAP1 DUP7 DUP5 ADD DUP4 DUP9 ADD DUP6 ADD DUP10 LT ISZERO PUSH2 0x1118 JUMPI DUP7 DUP8 REVERT JUMPDEST DUP7 SWAP4 POP JUMPDEST DUP6 DUP5 LT ISZERO PUSH2 0x113A JUMPI DUP1 CALLDATALOAD DUP4 MSTORE PUSH1 0x1 SWAP4 SWAP1 SWAP4 ADD SWAP3 SWAP2 DUP5 ADD SWAP2 DUP5 ADD PUSH2 0x111C JUMP JUMPDEST POP SWAP8 SWAP7 POP POP POP POP POP POP POP JUMP JUMPDEST PUSH1 0x0 DUP1 PUSH1 0x0 DUP1 PUSH2 0x120 DUP6 DUP8 SUB SLT ISZERO PUSH2 0x115C JUMPI DUP4 DUP5 REVERT JUMPDEST PUSH2 0x1166 DUP7 DUP7 PUSH2 0x106D JUMP JUMPDEST SWAP4 POP PUSH1 0x40 DUP7 PUSH1 0x5F DUP8 ADD SLT PUSH2 0x1178 JUMPI DUP4 DUP5 REVERT JUMPDEST PUSH1 0x2 PUSH2 0x118B PUSH2 0x1186 DUP3 PUSH2 0x14C1 JUMP JUMPDEST PUSH2 0x1490 JUMP JUMPDEST DUP1 DUP4 DUP10 ADD PUSH1 0xC0 DUP11 ADD DUP12 DUP2 GT ISZERO PUSH2 0x119F JUMPI DUP9 DUP10 REVERT JUMPDEST DUP9 JUMPDEST DUP6 DUP2 LT ISZERO PUSH2 0x11C7 JUMPI PUSH2 0x11B3 DUP14 DUP5 PUSH2 0x106D JUMP JUMPDEST DUP6 MSTORE PUSH1 0x20 SWAP1 SWAP5 ADD SWAP4 SWAP2 DUP7 ADD SWAP2 PUSH1 0x1 ADD PUSH2 0x11A1 JUMP JUMPDEST POP DUP3 SWAP9 POP PUSH2 0x11D5 DUP13 DUP3 PUSH2 0x106D JUMP JUMPDEST SWAP8 POP POP POP POP POP POP POP PUSH2 0x100 DUP6 ADD CALLDATALOAD PUSH8 0xFFFFFFFFFFFFFFFF DUP2 GT ISZERO PUSH2 0x11F7 JUMPI DUP2 DUP3 REVERT JUMPDEST PUSH2 0x1203 DUP8 DUP3 DUP9 ADD PUSH2 0x10C4 JUMP JUMPDEST SWAP2 POP POP SWAP3 SWAP6 SWAP2 SWAP5 POP SWAP3 POP JUMP JUMPDEST SWAP1 ISZERO ISZERO DUP2 MSTORE PUSH1 0x20 ADD SWAP1 JUMP JUMPDEST PUSH1 0x20 DUP1 DUP3 MSTORE PUSH1 0x18 SWAP1 DUP3 ADD MSTORE PUSH32 0x76657269666965722D6258302D6774652D7072696D652D710000000000000000 PUSH1 0x40 DUP3 ADD MSTORE PUSH1 0x60 ADD SWAP1 JUMP JUMPDEST PUSH1 0x20 DUP1 DUP3 MSTORE PUSH1 0x17 SWAP1 DUP3 ADD MSTORE PUSH32 0x76657269666965722D61582D6774652D7072696D652D71000000000000000000 PUSH1 0x40 DUP3 ADD MSTORE PUSH1 0x60 ADD SWAP1 JUMP JUMPDEST PUSH1 0x20 DUP1 DUP3 MSTORE PUSH1 0x18 SWAP1 DUP3 ADD MSTORE PUSH32 0x76657269666965722D6259312D6774652D7072696D652D710000000000000000 PUSH1 0x40 DUP3 ADD MSTORE PUSH1 0x60 ADD SWAP1 JUMP JUMPDEST PUSH1 0x20 DUP1 DUP3 MSTORE PUSH1 0x18 SWAP1 DUP3 ADD MSTORE PUSH32 0x76657269666965722D6258312D6774652D7072696D652D710000000000000000 PUSH1 0x40 DUP3 ADD MSTORE PUSH1 0x60 ADD SWAP1 JUMP JUMPDEST PUSH1 0x20 DUP1 DUP3 MSTORE PUSH1 0x12 SWAP1 DUP3 ADD MSTORE PUSH18 0x1C185A5C9A5B99CB5B5D5B0B59985A5B1959 PUSH1 0x72 SHL PUSH1 0x40 DUP3 ADD MSTORE PUSH1 0x60 ADD SWAP1 JUMP JUMPDEST PUSH1 0x20 DUP1 DUP3 MSTORE PUSH1 0x17 SWAP1 DUP3 ADD MSTORE PUSH32 0x76657269666965722D63592D6774652D7072696D652D71000000000000000000 PUSH1 0x40 DUP3 ADD MSTORE PUSH1 0x60 ADD SWAP1 JUMP JUMPDEST PUSH1 0x20 DUP1 DUP3 MSTORE PUSH1 0x1F SWAP1 DUP3 ADD MSTORE PUSH32 0x76657269666965722D6774652D736E61726B2D7363616C61722D6669656C6400 PUSH1 0x40 DUP3 ADD MSTORE PUSH1 0x60 ADD SWAP1 JUMP JUMPDEST PUSH1 0x20 DUP1 DUP3 MSTORE PUSH1 0x18 SWAP1 DUP3 ADD MSTORE PUSH32 0x76657269666965722D6259302D6774652D7072696D652D710000000000000000 PUSH1 0x40 DUP3 ADD MSTORE PUSH1 0x60 ADD SWAP1 JUMP JUMPDEST PUSH1 0x20 DUP1 DUP3 MSTORE PUSH1 0x17 SWAP1 DUP3 ADD MSTORE PUSH32 0x76657269666965722D61592D6774652D7072696D652D71000000000000000000 PUSH1 0x40 DUP3 ADD MSTORE PUSH1 0x60 ADD SWAP1 JUMP JUMPDEST PUSH1 0x20 DUP1 DUP3 MSTORE PUSH1 0x12 SWAP1 DUP3 ADD MSTORE PUSH18 0x1C185A5C9A5B99CB5859190B59985A5B1959 PUSH1 0x72 SHL PUSH1 0x40 DUP3 ADD MSTORE PUSH1 0x60 ADD SWAP1 JUMP JUMPDEST PUSH1 0x20 DUP1 DUP3 MSTORE PUSH1 0x17 SWAP1 DUP3 ADD MSTORE PUSH32 0x76657269666965722D63582D6774652D7072696D652D71000000000000000000 PUSH1 0x40 DUP3 ADD MSTORE PUSH1 0x60 ADD SWAP1 JUMP JUMPDEST PUSH1 0x20 DUP1 DUP3 MSTORE PUSH1 0x15 SWAP1 DUP3 ADD MSTORE PUSH21 0x1C185A5C9A5B99CB5BDC18DBD9194B59985A5B1959 PUSH1 0x5A SHL PUSH1 0x40 DUP3 ADD MSTORE PUSH1 0x60 ADD SWAP1 JUMP JUMPDEST PUSH1 0x40 MLOAD PUSH1 0x1F DUP3 ADD PUSH1 0x1F NOT AND DUP2 ADD PUSH8 0xFFFFFFFFFFFFFFFF DUP2 GT DUP3 DUP3 LT OR ISZERO PUSH2 0x14B9 JUMPI PUSH2 0x14B9 PUSH2 0x1581 JUMP JUMPDEST PUSH1 0x40 MSTORE SWAP2 SWAP1 POP JUMP JUMPDEST PUSH1 0x0 PUSH8 0xFFFFFFFFFFFFFFFF DUP3 GT ISZERO PUSH2 0x14DB JUMPI PUSH2 0x14DB PUSH2 0x1581 JUMP JUMPDEST POP PUSH1 0x20 MUL SWAP1 JUMP JUMPDEST PUSH1 0x0 DUP3 NOT DUP3 GT ISZERO PUSH2 0x14F5 JUMPI PUSH2 0x14F5 PUSH2 0x156B JUMP JUMPDEST POP ADD SWAP1 JUMP JUMPDEST PUSH1 0x0 DUP2 PUSH1 0x0 NOT DIV DUP4 GT DUP3 ISZERO ISZERO AND ISZERO PUSH2 0x1514 JUMPI PUSH2 0x1514 PUSH2 0x156B JUMP JUMPDEST POP MUL SWAP1 JUMP JUMPDEST PUSH1 0x0 DUP3 DUP3 LT ISZERO PUSH2 0x152B JUMPI PUSH2 0x152B PUSH2 0x156B JUMP JUMPDEST POP SUB SWAP1 JUMP JUMPDEST PUSH1 0x0 PUSH1 0x0 NOT DUP3 EQ ISZERO PUSH2 0x1544 JUMPI PUSH2 0x1544 PUSH2 0x156B JUMP JUMPDEST POP PUSH1 0x1 ADD SWAP1 JUMP JUMPDEST PUSH1 0x0 DUP3 PUSH2 0x1566 JUMPI PUSH4 0x4E487B71 PUSH1 0xE0 SHL DUP2 MSTORE PUSH1 0x12 PUSH1 0x4 MSTORE PUSH1 0x24 DUP2 REVERT JUMPDEST POP MOD SWAP1 JUMP JUMPDEST PUSH4 0x4E487B71 PUSH1 0xE0 SHL PUSH1 0x0 MSTORE PUSH1 0x11 PUSH1 0x4 MSTORE PUSH1 0x24 PUSH1 0x0 REVERT JUMPDEST PUSH4 0x4E487B71 PUSH1 0xE0 SHL PUSH1 0x0 MSTORE PUSH1 0x41 PUSH1 0x4 MSTORE PUSH1 0x24 PUSH1 0x0 REVERT INVALID ADDRESS PUSH5 0x4E72E131A0 0x29 0xB8 POP GASLIMIT 0xB6 DUP2 DUP2 PC 0x5D SWAP8 DUP2 PUSH11 0x916871CA8D3C208C16D87C REVERT SELFBALANCE LOG2 PUSH5 0x6970667358 0x22 SLT KECCAK256 0x21 0xC8 0x4F 0xE3 MSTORE MSIZE 0xDD TIMESTAMP 0xB5 DIFFICULTY 0xD3 ADDRESS DUP6 PUSH32 0x3DA32DB443FD76E952C385C99A48619DB59C64736F6C63430008010033000000 "
        },
        "methodIdentifiers": {
          "verifyProof(uint256[2],uint256[2][2],uint256[2],uint256[])": "c32e370e"
        }
      }
    }
  }
}