{
  "contracts/verifiers/ReputationVerifier.sol": {
    "ReputationVerifier": {
      "abi": [
        {
          "inputs": [
            {
              "internalType": "uint256[2]",
              "name": "a",
              "type": "uint256[2]"
            },
            {
              "internalType": "uint256[2][2]",
              "name": "b",
              "type": "uint256[2][2]"
            },
            {
              "internalType": "uint256[2]",
              "name": "c",
              "type": "uint256[2]"
            },
            {
              "internalType": "uint256[]",
              "name": "input",
              "type": "uint256[]"
            }
          ],
          "name": "verifyProof",
          "outputs": [
            {
              "internalType": "bool",
              "name": "",
              "type": "bool"
            }
          ],
          "stateMutability": "view",
          "type": "function"
        }
      ],
      "evm": {
        "bytecode": {
          "linkReferences": {},
          "object": "608060405234801561001057600080fd5b506117f3806100206000396000f3fe608060405234801561001057600080fd5b506004361061002b5760003560e01c8063c32e370e14610030575b600080fd5b61004361003e36600461134c565b610059565b6040516100509190611415565b60405180910390f35b600061006361111a565b6040805180820182528751815260208089015181830152908352815160808101835287515181840190815288518301516060830152815282518084018452888301805151825251830151818401528183015283820152815180830183528651815286820151918101919091529082015260006100dd6103e2565b60408051808201909152600080825260208201528351519192509060008051602061179e8339815191521161012d5760405162461bcd60e51b815260040161012490611457565b60405180910390fd5b82516020015160008051602061179e8339815191521161015f5760405162461bcd60e51b8152600401610124906115cd565b6020830151515160008051602061179e833981519152116101925760405162461bcd60e51b815260040161012490611420565b60208381015101515160008051602061179e833981519152116101c75760405162461bcd60e51b815260040161012490611596565b60208381015151015160008051602061179e833981519152116101fc5760405162461bcd60e51b8152600401610124906114c5565b602083810151810151015160008051602061179e833981519152116102335760405162461bcd60e51b81526004016101249061148e565b60408301515160008051602061179e833981519152116102655760405162461bcd60e51b815260040161012490611630565b60008051602061179e8339815191528360400151602001511061029a5760405162461bcd60e51b815260040161012490611528565b60005b601281101561038e577f30644e72e131a029b85045b68181585d2833e84879b9709143e1f593f00000018682815181106102e757634e487b7160e01b600052603260045260246000fd5b60200260200101511061030c5760405162461bcd60e51b81526004016101249061155f565b61037a82610375856080015184600161032591906116e8565b6013811061034357634e487b7160e01b600052603260045260246000fd5b602002015189858151811061036857634e487b7160e01b600052603260045260246000fd5b6020026020010151610c49565b610cb4565b91508061038681611736565b91505061029d565b506080820151516103a0908290610cb4565b90506103d66103b28460000151610d1b565b84602001518460000151856020015185876040015189604001518960600151610da8565b98975050505050505050565b6103ea61114c565b6040805180820182527f2d4d9aa7e302d9df41749d5507949d05dbea33fbb16c643b22f599a2be6df2e281527f14bedd503c37ceb061d8ec60209fe345ce89830a19230301f076caff004d19266020808301919091529083528151608080820184527f0967032fcbf776d1afc985f88877f182d38480a653f2decaa9794cbc3bf3060c8285019081527f0e187847ad4c798374d0d6732bf501847dd68bc0e071241e0213bc7fc13db7ab606080850191909152908352845180860186527f304cfbd1e08a704a99f5e847d93f8c3caafddec46b7a0d379da69a4d112346a781527f1739c1b1a457a8c7313123d24d2f9192f896b7c63eea05a9d57f06547ad0cec8818601528385015285840192909252835180820185527f198e9393920d483a7260bfb731fb5d25f1aa493335a9e71297e485b7aef312c28186018181527f1800deef121f1e76426a00665e5c4479674322d4f75edadd46debd5cd992f6ed838601819052908352865180880188527f090689d0585ff075ec9e99ad690c3395bc4b313370b38ef355acdadcd122975b8082527f12c85ea5db8c6deb4aab71808dcb408fe3d1e7690c43d37b4ce6cc0166fa7daa8289018190528589019290925289890194909452875180860189528089019384528087019290925291815286518088018852928352828601919091528085019190915282860152835180850185527f1ffcc0f89ddffe79057ffad77852b69cb264a0f1c34b0557a66b3e510432b4ab81527f2b1127885bc6a139042e88557ce3dc17ba5bfb887cc428e1e392b1018909436c81850152818601805191909152845180860186527f12607a31b43b908942020e9141cfc32a83d09e5a9d121ab8acf2fda29ad2e4d081527f1fca231b128f9afbcb867fa0e79fd19ee2ef5f96167a1521ee444055e07e4b64818601528151850152845180860186527f0468925ca0e1436449594f57588f5cf158233d445555b4a05021418a115c681581527f0e4b3efc8c4d7a0b39d3122d5b8dd00484e515c9bd1538543de8876daa03c733818601528151860152845180860186527f297519ac779e67673fd0c624639e59e0be374d8f23db0e5c61a17d997d54fd9481527f2bdca73cf6afb5512c76384bd6f31e5f24bfb1edf3f5b0f47828a431497740d581860152815190930192909252835180850185527f0af21bb1513f47a4088a81d8afc2c7d8e35c26aeab2aae795f6b7f11fa43014481527f0e1ab5d1b163f545483341c2b29c3e940e6cb53bf9ee9009b287847fba6931ff81850152825190910152825180840184527f2ea5eb2d43e59daed03675a88af4e73cd3be8b341c03737224931db5d98619f481527f2be2f7d7802e121767c872bf2d7ce439d5c551498c73a65fbad47a3845471d1081840152815160a00152825180840184527f2472fe9b9c8942ea0a28760658ed0447c8cad697821d9a19837ff291f1d2d7ca81527f11ff22a2c89bb0bd714ea1d57ab6f6eb5c1dc8d6ddbf3abe724a458b0bd5ff8081840152815160c00152825180840184527f136d3b606721b2bfc0ef362b5ec501d61d8b12070ce91361a2894ef1be0a31a281527f0513731cf4ad8b1c538011c5d3934af346cbc75f96835bca6d72d30e84b6236d81840152815160e00152825180840184527f2678207d08314c7e0713939272ce2a9df9ac8c45824931551f49c06d810d819181527f29cd9cd56255fef9a172d3ddd58888611ad8f48a441f7f8f8384c78f0b71dbf18184015281516101000152825180840184527f19b64f2176276cdc4c4c03c21fc141ff6315812e6fa772ee8be59f9c3ccec87081527f0509da3899451541ec454ab3bb69cb501937754f7fd5b35e1606964de540cd4c8184015281516101200152825180840184527f29c099fb40a76c47fa4582b20d696a4c66282ef3e7e4b3ddcb4e7a86ad12961f81527f0782aa0aec9ad1dc7a9668c152b7c7ce9cfa18da3c50c8dc76af1b52e33969be8184015281516101400152825180840184527f28370d0aa24cc637d147264945d6a7ab13204534a3ca5a239e94ae5dd2f5c3bd81527f03389109820e61bb66db6a025c9531115564ac94ad3a0c292b5e103346dcf51b8184015281516101600152825180840184527f1465c6d247a1f16ac9c61cb27db9fe5440f8aa1df8a23f2f3ab468456be8568181527f2e649431c91a50e1527b06eaf3c1a232e8d130cf2105faaa312101c45a02605d8184015281516101800152825180840184527f0123356f94660465b6902885c8ce61728fad3f7057aa60b17ad07265ed3441d281527f15509510cd224800649bb7927c175dc11eaef2c1b30f26d17e12f126192f14a28184015281516101a00152825180840184527f0d6670b229e1b5ffdaca295884b4ede3e9b28b61596afb0e286b3a3b8b1ef91481527f06bab6839f104014de626584540d370a791fbd342cafc154075c0035639d5e4d8184015281516101c00152825180840184527f1be264ca1afa043eade73d0fa835a88638bcfcba15a7042abb1d91988f77af6f81527f15b0dca0164db75021854658f895a5f5b7a2478a16ed29394cdd36cdf5e6abe48184015281516101e00152825180840184527f2aa4fd17e5f123933619fe84658ede7b2b129c85c12cd5a1b7f1b249fa1c667a81527f0173906e6e2bfd08332cab91bf11d4d24e8fbd4de17178cfe55fcfc9154a2b048184015281516102000152825180840184527f010343d16cceb03fb8ad776011faa64aeda5858fac53d0f8bbc1f3227b50037681527f091c61fc0c265257d401df8fbce82110a6b8735969ee1d554787d3ab09dc0adf818401528151610220015282518084019093527f3050b3a7cea15712b10f92226ba917a1b6ad07d611c90094f0b25114c450830783527f2d8193ab99cfe0c0313c6b546957c832efb4cf929133305b559c542cd4a1bc7f9183019190915251610240015290565b610c51611193565b610c596111ad565b835181526020808501519082015260408101839052600060608360808460076107d05a03fa9050808015610c8c57610c8e565bfe5b5080610cac5760405162461bcd60e51b8152600401610124906114fc565b505092915050565b610cbc611193565b610cc46111cb565b8351815260208085015181830152835160408301528301516060808301919091526000908360c08460066107d05a03fa9050808015610c8c575080610cac5760405162461bcd60e51b815260040161012490611604565b610d23611193565b8151158015610d3457506020820151155b15610d5357506040805180820190915260008082526020820152610da3565b60405180604001604052808360000151815260200160008051602061179e8339815191528460200151610d869190611751565b610d9e9060008051602061179e83398151915261171f565b905290505b919050565b60408051608080820183528a825260208083018a90528284018890526060808401879052845192830185528b83528282018a9052828501889052820185905283516018808252610320820190955260009491859190839082016103008036833701905050905060005b60048110156110c0576000610e27826006611700565b9050858260048110610e4957634e487b7160e01b600052603260045260246000fd5b60200201515183610e5b8360006116e8565b81518110610e7957634e487b7160e01b600052603260045260246000fd5b602002602001018181525050858260048110610ea557634e487b7160e01b600052603260045260246000fd5b60200201516020015183826001610ebc91906116e8565b81518110610eda57634e487b7160e01b600052603260045260246000fd5b602002602001018181525050848260048110610f0657634e487b7160e01b600052603260045260246000fd5b6020020151515183610f198360026116e8565b81518110610f3757634e487b7160e01b600052603260045260246000fd5b602002602001018181525050848260048110610f6357634e487b7160e01b600052603260045260246000fd5b6020020151516001602002015183610f7c8360036116e8565b81518110610f9a57634e487b7160e01b600052603260045260246000fd5b602002602001018181525050848260048110610fc657634e487b7160e01b600052603260045260246000fd5b602002015160200151600060028110610fef57634e487b7160e01b600052603260045260246000fd5b6020020151836110008360046116e8565b8151811061101e57634e487b7160e01b600052603260045260246000fd5b60200260200101818152505084826004811061104a57634e487b7160e01b600052603260045260246000fd5b60200201516020015160016002811061107357634e487b7160e01b600052603260045260246000fd5b6020020151836110848360056116e8565b815181106110a257634e487b7160e01b600052603260045260246000fd5b602090810291909101015250806110b881611736565b915050610e11565b506110c96111e9565b6000602082602086026020860160086107d05a03fa9050808015610c8c5750806111055760405162461bcd60e51b815260040161012490611667565b505115159d9c50505050505050505050505050565b604051806060016040528061112d611193565b815260200161113a611207565b8152602001611147611193565b905290565b6040518060a0016040528061115f611193565b815260200161116c611207565b8152602001611179611207565b8152602001611186611207565b8152602001611147611227565b604051806040016040528060008152602001600081525090565b60405180606001604052806003906020820280368337509192915050565b60405180608001604052806004906020820280368337509192915050565b60405180602001604052806001906020820280368337509192915050565b604051806040016040528061121a611255565b8152602001611147611255565b6040518061026001604052806013905b61123f611193565b8152602001906001900390816112375790505090565b60405180604001604052806002906020820280368337509192915050565b600082601f830112611283578081fd5b61128d6040611696565b80838560408601111561129e578384fd5b835b60028110156112bf5781358452602093840193909101906001016112a0565b509095945050505050565b600082601f8301126112da578081fd5b8135602067ffffffffffffffff8211156112f6576112f6611787565b808202611304828201611696565b83815282810190868401838801850189101561131e578687fd5b8693505b85841015611340578035835260019390930192918401918401611322565b50979650505050505050565b6000806000806101208587031215611362578384fd5b61136c8686611273565b9350604086605f87011261137e578384fd5b600261139161138c826116c7565b611696565b8083890160c08a018b8111156113a5578889fd5b885b858110156113cd576113b98d84611273565b8552602090940193918601916001016113a7565b508298506113db8c82611273565b975050505050505061010085013567ffffffffffffffff8111156113fd578182fd5b611409878288016112ca565b91505092959194509250565b901515815260200190565b60208082526018908201527f76657269666965722d6258302d6774652d7072696d652d710000000000000000604082015260600190565b60208082526017908201527f76657269666965722d61582d6774652d7072696d652d71000000000000000000604082015260600190565b60208082526018908201527f76657269666965722d6259312d6774652d7072696d652d710000000000000000604082015260600190565b60208082526018908201527f76657269666965722d6258312d6774652d7072696d652d710000000000000000604082015260600190565b6020808252601290820152711c185a5c9a5b99cb5b5d5b0b59985a5b195960721b604082015260600190565b60208082526017908201527f76657269666965722d63592d6774652d7072696d652d71000000000000000000604082015260600190565b6020808252601f908201527f76657269666965722d6774652d736e61726b2d7363616c61722d6669656c6400604082015260600190565b60208082526018908201527f76657269666965722d6259302d6774652d7072696d652d710000000000000000604082015260600190565b60208082526017908201527f76657269666965722d61592d6774652d7072696d652d71000000000000000000604082015260600190565b6020808252601290820152711c185a5c9a5b99cb5859190b59985a5b195960721b604082015260600190565b60208082526017908201527f76657269666965722d63582d6774652d7072696d652d71000000000000000000604082015260600190565b6020808252601590820152741c185a5c9a5b99cb5bdc18dbd9194b59985a5b1959605a1b604082015260600190565b604051601f8201601f1916810167ffffffffffffffff811182821017156116bf576116bf611787565b604052919050565b600067ffffffffffffffff8211156116e1576116e1611787565b5060200290565b600082198211156116fb576116fb611771565b500190565b600081600019048311821515161561171a5761171a611771565b500290565b60008282101561173157611731611771565b500390565b600060001982141561174a5761174a611771565b5060010190565b60008261176c57634e487b7160e01b81526012600452602481fd5b500690565b634e487b7160e01b600052601160045260246000fd5b634e487b7160e01b600052604160045260246000fdfe30644e72e131a029b85045b68181585d97816a916871ca8d3c208c16d87cfd47a26469706673582212206f393b879294c27a17e80bea1946623486c06eac8de373c3145fcb047d7d10dd64736f6c63430008010033",
          "opcodes": "PUSH1 0x80 PUSH1 0x40 MSTORE CALLVALUE DUP1 ISZERO PUSH2 0x10 JUMPI PUSH1 0x0 DUP1 REVERT JUMPDEST POP PUSH2 0x17F3 DUP1 PUSH2 0x20 PUSH1 0x0 CODECOPY PUSH1 0x0 RETURN INVALID PUSH1 0x80 PUSH1 0x40 MSTORE CALLVALUE DUP1 ISZERO PUSH2 0x10 JUMPI PUSH1 0x0 DUP1 REVERT JUMPDEST POP PUSH1 0x4 CALLDATASIZE LT PUSH2 0x2B JUMPI PUSH1 0x0 CALLDATALOAD PUSH1 0xE0 SHR DUP1 PUSH4 0xC32E370E EQ PUSH2 0x30 JUMPI JUMPDEST PUSH1 0x0 DUP1 REVERT JUMPDEST PUSH2 0x43 PUSH2 0x3E CALLDATASIZE PUSH1 0x4 PUSH2 0x134C JUMP JUMPDEST PUSH2 0x59 JUMP JUMPDEST PUSH1 0x40 MLOAD PUSH2 0x50 SWAP2 SWAP1 PUSH2 0x1415 JUMP JUMPDEST PUSH1 0x40 MLOAD DUP1 SWAP2 SUB SWAP1 RETURN JUMPDEST PUSH1 0x0 PUSH2 0x63 PUSH2 0x111A JUMP JUMPDEST PUSH1 0x40 DUP1 MLOAD DUP1 DUP3 ADD DUP3 MSTORE DUP8 MLOAD DUP2 MSTORE PUSH1 0x20 DUP1 DUP10 ADD MLOAD DUP2 DUP4 ADD MSTORE SWAP1 DUP4 MSTORE DUP2 MLOAD PUSH1 0x80 DUP2 ADD DUP4 MSTORE DUP8 MLOAD MLOAD DUP2 DUP5 ADD SWAP1 DUP2 MSTORE DUP9 MLOAD DUP4 ADD MLOAD PUSH1 0x60 DUP4 ADD MSTORE DUP2 MSTORE DUP3 MLOAD DUP1 DUP5 ADD DUP5 MSTORE DUP9 DUP4 ADD DUP1 MLOAD MLOAD DUP3 MSTORE MLOAD DUP4 ADD MLOAD DUP2 DUP5 ADD MSTORE DUP2 DUP4 ADD MSTORE DUP4 DUP3 ADD MSTORE DUP2 MLOAD DUP1 DUP4 ADD DUP4 MSTORE DUP7 MLOAD DUP2 MSTORE DUP7 DUP3 ADD MLOAD SWAP2 DUP2 ADD SWAP2 SWAP1 SWAP2 MSTORE SWAP1 DUP3 ADD MSTORE PUSH1 0x0 PUSH2 0xDD PUSH2 0x3E2 JUMP JUMPDEST PUSH1 0x40 DUP1 MLOAD DUP1 DUP3 ADD SWAP1 SWAP2 MSTORE PUSH1 0x0 DUP1 DUP3 MSTORE PUSH1 0x20 DUP3 ADD MSTORE DUP4 MLOAD MLOAD SWAP2 SWAP3 POP SWAP1 PUSH1 0x0 DUP1 MLOAD PUSH1 0x20 PUSH2 0x179E DUP4 CODECOPY DUP2 MLOAD SWAP2 MSTORE GT PUSH2 0x12D JUMPI PUSH1 0x40 MLOAD PUSH3 0x461BCD PUSH1 0xE5 SHL DUP2 MSTORE PUSH1 0x4 ADD PUSH2 0x124 SWAP1 PUSH2 0x1457 JUMP JUMPDEST PUSH1 0x40 MLOAD DUP1 SWAP2 SUB SWAP1 REVERT JUMPDEST DUP3 MLOAD PUSH1 0x20 ADD MLOAD PUSH1 0x0 DUP1 MLOAD PUSH1 0x20 PUSH2 0x179E DUP4 CODECOPY DUP2 MLOAD SWAP2 MSTORE GT PUSH2 0x15F JUMPI PUSH1 0x40 MLOAD PUSH3 0x461BCD PUSH1 0xE5 SHL DUP2 MSTORE PUSH1 0x4 ADD PUSH2 0x124 SWAP1 PUSH2 0x15CD JUMP JUMPDEST PUSH1 0x20 DUP4 ADD MLOAD MLOAD MLOAD PUSH1 0x0 DUP1 MLOAD PUSH1 0x20 PUSH2 0x179E DUP4 CODECOPY DUP2 MLOAD SWAP2 MSTORE GT PUSH2 0x192 JUMPI PUSH1 0x40 MLOAD PUSH3 0x461BCD PUSH1 0xE5 SHL DUP2 MSTORE PUSH1 0x4 ADD PUSH2 0x124 SWAP1 PUSH2 0x1420 JUMP JUMPDEST PUSH1 0x20 DUP4 DUP2 ADD MLOAD ADD MLOAD MLOAD PUSH1 0x0 DUP1 MLOAD PUSH1 0x20 PUSH2 0x179E DUP4 CODECOPY DUP2 MLOAD SWAP2 MSTORE GT PUSH2 0x1C7 JUMPI PUSH1 0x40 MLOAD PUSH3 0x461BCD PUSH1 0xE5 SHL DUP2 MSTORE PUSH1 0x4 ADD PUSH2 0x124 SWAP1 PUSH2 0x1596 JUMP JUMPDEST PUSH1 0x20 DUP4 DUP2 ADD MLOAD MLOAD ADD MLOAD PUSH1 0x0 DUP1 MLOAD PUSH1 0x20 PUSH2 0x179E DUP4 CODECOPY DUP2 MLOAD SWAP2 MSTORE GT PUSH2 0x1FC JUMPI PUSH1 0x40 MLOAD PUSH3 0x461BCD PUSH1 0xE5 SHL DUP2 MSTORE PUSH1 0x4 ADD PUSH2 0x124 SWAP1 PUSH2 0x14C5 JUMP JUMPDEST PUSH1 0x20 DUP4 DUP2 ADD MLOAD DUP2 ADD MLOAD ADD MLOAD PUSH1 0x0 DUP1 MLOAD PUSH1 0x20 PUSH2 0x179E DUP4 CODECOPY DUP2 MLOAD SWAP2 MSTORE GT PUSH2 0x233 JUMPI PUSH1 0x40 MLOAD PUSH3 0x461BCD PUSH1 0xE5 SHL DUP2 MSTORE PUSH1 0x4 ADD PUSH2 0x124 SWAP1 PUSH2 0x148E JUMP JUMPDEST PUSH1 0x40 DUP4 ADD MLOAD MLOAD PUSH1 0x0 DUP1 MLOAD PUSH1 0x20 PUSH2 0x179E DUP4 CODECOPY DUP2 MLOAD SWAP2 MSTORE GT PUSH2 0x265 JUMPI PUSH1 0x40 MLOAD PUSH3 0x461BCD PUSH1 0xE5 SHL DUP2 MSTORE PUSH1 0x4 ADD PUSH2 0x124 SWAP1 PUSH2 0x1630 JUMP JUMPDEST PUSH1 0x0 DUP1 MLOAD PUSH1 0x20 PUSH2 0x179E DUP4 CODECOPY DUP2 MLOAD SWAP2 MSTORE DUP4 PUSH1 0x40 ADD MLOAD PUSH1 0x20 ADD MLOAD LT PUSH2 0x29A JUMPI PUSH1 0x40 MLOAD PUSH3 0x461BCD PUSH1 0xE5 SHL DUP2 MSTORE PUSH1 0x4 ADD PUSH2 0x124 SWAP1 PUSH2 0x1528 JUMP JUMPDEST PUSH1 0x0 JUMPDEST PUSH1 0x12 DUP2 LT ISZERO PUSH2 0x38E JUMPI PUSH32 0x30644E72E131A029B85045B68181585D2833E84879B9709143E1F593F0000001 DUP7 DUP3 DUP2 MLOAD DUP2 LT PUSH2 0x2E7 JUMPI PUSH4 0x4E487B71 PUSH1 0xE0 SHL PUSH1 0x0 MSTORE PUSH1 0x32 PUSH1 0x4 MSTORE PUSH1 0x24 PUSH1 0x0 REVERT JUMPDEST PUSH1 0x20 MUL PUSH1 0x20 ADD ADD MLOAD LT PUSH2 0x30C JUMPI PUSH1 0x40 MLOAD PUSH3 0x461BCD PUSH1 0xE5 SHL DUP2 MSTORE PUSH1 0x4 ADD PUSH2 0x124 SWAP1 PUSH2 0x155F JUMP JUMPDEST PUSH2 0x37A DUP3 PUSH2 0x375 DUP6 PUSH1 0x80 ADD MLOAD DUP5 PUSH1 0x1 PUSH2 0x325 SWAP2 SWAP1 PUSH2 0x16E8 JUMP JUMPDEST PUSH1 0x13 DUP2 LT PUSH2 0x343 JUMPI PUSH4 0x4E487B71 PUSH1 0xE0 SHL PUSH1 0x0 MSTORE PUSH1 0x32 PUSH1 0x4 MSTORE PUSH1 0x24 PUSH1 0x0 REVERT JUMPDEST PUSH1 0x20 MUL ADD MLOAD DUP10 DUP6 DUP2 MLOAD DUP2 LT PUSH2 0x368 JUMPI PUSH4 0x4E487B71 PUSH1 0xE0 SHL PUSH1 0x0 MSTORE PUSH1 0x32 PUSH1 0x4 MSTORE PUSH1 0x24 PUSH1 0x0 REVERT JUMPDEST PUSH1 0x20 MUL PUSH1 0x20 ADD ADD MLOAD PUSH2 0xC49 JUMP JUMPDEST PUSH2 0xCB4 JUMP JUMPDEST SWAP2 POP DUP1 PUSH2 0x386 DUP2 PUSH2 0x1736 JUMP JUMPDEST SWAP2 POP POP PUSH2 0x29D JUMP JUMPDEST POP PUSH1 0x80 DUP3 ADD MLOAD MLOAD PUSH2 0x3A0 SWAP1 DUP3 SWAP1 PUSH2 0xCB4 JUMP JUMPDEST SWAP1 POP PUSH2 0x3D6 PUSH2 0x3B2 DUP5 PUSH1 0x0 ADD MLOAD PUSH2 0xD1B JUMP JUMPDEST DUP5 PUSH1 0x20 ADD MLOAD DUP5 PUSH1 0x0 ADD MLOAD DUP6 PUSH1 0x20 ADD MLOAD DUP6 DUP8 PUSH1 0x40 ADD MLOAD DUP10 PUSH1 0x40 ADD MLOAD DUP10 PUSH1 0x60 ADD MLOAD PUSH2 0xDA8 JUMP JUMPDEST SWAP9 SWAP8 POP POP POP POP POP POP POP POP JUMP JUMPDEST PUSH2 0x3EA PUSH2 0x114C JUMP JUMPDEST PUSH1 0x40 DUP1 MLOAD DUP1 DUP3 ADD DUP3 MSTORE PUSH32 0x2D4D9AA7E302D9DF41749D5507949D05DBEA33FBB16C643B22F599A2BE6DF2E2 DUP2 MSTORE PUSH32 0x14BEDD503C37CEB061D8EC60209FE345CE89830A19230301F076CAFF004D1926 PUSH1 0x20 DUP1 DUP4 ADD SWAP2 SWAP1 SWAP2 MSTORE SWAP1 DUP4 MSTORE DUP2 MLOAD PUSH1 0x80 DUP1 DUP3 ADD DUP5 MSTORE PUSH32 0x967032FCBF776D1AFC985F88877F182D38480A653F2DECAA9794CBC3BF3060C DUP3 DUP6 ADD SWAP1 DUP2 MSTORE PUSH32 0xE187847AD4C798374D0D6732BF501847DD68BC0E071241E0213BC7FC13DB7AB PUSH1 0x60 DUP1 DUP6 ADD SWAP2 SWAP1 SWAP2 MSTORE SWAP1 DUP4 MSTORE DUP5 MLOAD DUP1 DUP7 ADD DUP7 MSTORE PUSH32 0x304CFBD1E08A704A99F5E847D93F8C3CAAFDDEC46B7A0D379DA69A4D112346A7 DUP2 MSTORE PUSH32 0x1739C1B1A457A8C7313123D24D2F9192F896B7C63EEA05A9D57F06547AD0CEC8 DUP2 DUP7 ADD MSTORE DUP4 DUP6 ADD MSTORE DUP6 DUP5 ADD SWAP3 SWAP1 SWAP3 MSTORE DUP4 MLOAD DUP1 DUP3 ADD DUP6 MSTORE PUSH32 0x198E9393920D483A7260BFB731FB5D25F1AA493335A9E71297E485B7AEF312C2 DUP2 DUP7 ADD DUP2 DUP2 MSTORE PUSH32 0x1800DEEF121F1E76426A00665E5C4479674322D4F75EDADD46DEBD5CD992F6ED DUP4 DUP7 ADD DUP2 SWAP1 MSTORE SWAP1 DUP4 MSTORE DUP7 MLOAD DUP1 DUP9 ADD DUP9 MSTORE PUSH32 0x90689D0585FF075EC9E99AD690C3395BC4B313370B38EF355ACDADCD122975B DUP1 DUP3 MSTORE PUSH32 0x12C85EA5DB8C6DEB4AAB71808DCB408FE3D1E7690C43D37B4CE6CC0166FA7DAA DUP3 DUP10 ADD DUP2 SWAP1 MSTORE DUP6 DUP10 ADD SWAP3 SWAP1 SWAP3 MSTORE DUP10 DUP10 ADD SWAP5 SWAP1 SWAP5 MSTORE DUP8 MLOAD DUP1 DUP7 ADD DUP10 MSTORE DUP1 DUP10 ADD SWAP4 DUP5 MSTORE DUP1 DUP8 ADD SWAP3 SWAP1 SWAP3 MSTORE SWAP2 DUP2 MSTORE DUP7 MLOAD DUP1 DUP9 ADD DUP9 MSTORE SWAP3 DUP4 MSTORE DUP3 DUP7 ADD SWAP2 SWAP1 SWAP2 MSTORE DUP1 DUP6 ADD SWAP2 SWAP1 SWAP2 MSTORE DUP3 DUP7 ADD MSTORE DUP4 MLOAD DUP1 DUP6 ADD DUP6 MSTORE PUSH32 0x1FFCC0F89DDFFE79057FFAD77852B69CB264A0F1C34B0557A66B3E510432B4AB DUP2 MSTORE PUSH32 0x2B1127885BC6A139042E88557CE3DC17BA5BFB887CC428E1E392B1018909436C DUP2 DUP6 ADD MSTORE DUP2 DUP7 ADD DUP1 MLOAD SWAP2 SWAP1 SWAP2 MSTORE DUP5 MLOAD DUP1 DUP7 ADD DUP7 MSTORE PUSH32 0x12607A31B43B908942020E9141CFC32A83D09E5A9D121AB8ACF2FDA29AD2E4D0 DUP2 MSTORE PUSH32 0x1FCA231B128F9AFBCB867FA0E79FD19EE2EF5F96167A1521EE444055E07E4B64 DUP2 DUP7 ADD MSTORE DUP2 MLOAD DUP6 ADD MSTORE DUP5 MLOAD DUP1 DUP7 ADD DUP7 MSTORE PUSH32 0x468925CA0E1436449594F57588F5CF158233D445555B4A05021418A115C6815 DUP2 MSTORE PUSH32 0xE4B3EFC8C4D7A0B39D3122D5B8DD00484E515C9BD1538543DE8876DAA03C733 DUP2 DUP7 ADD MSTORE DUP2 MLOAD DUP7 ADD MSTORE DUP5 MLOAD DUP1 DUP7 ADD DUP7 MSTORE PUSH32 0x297519AC779E67673FD0C624639E59E0BE374D8F23DB0E5C61A17D997D54FD94 DUP2 MSTORE PUSH32 0x2BDCA73CF6AFB5512C76384BD6F31E5F24BFB1EDF3F5B0F47828A431497740D5 DUP2 DUP7 ADD MSTORE DUP2 MLOAD SWAP1 SWAP4 ADD SWAP3 SWAP1 SWAP3 MSTORE DUP4 MLOAD DUP1 DUP6 ADD DUP6 MSTORE PUSH32 0xAF21BB1513F47A4088A81D8AFC2C7D8E35C26AEAB2AAE795F6B7F11FA430144 DUP2 MSTORE PUSH32 0xE1AB5D1B163F545483341C2B29C3E940E6CB53BF9EE9009B287847FBA6931FF DUP2 DUP6 ADD MSTORE DUP3 MLOAD SWAP1 SWAP2 ADD MSTORE DUP3 MLOAD DUP1 DUP5 ADD DUP5 MSTORE PUSH32 0x2EA5EB2D43E59DAED03675A88AF4E73CD3BE8B341C03737224931DB5D98619F4 DUP2 MSTORE PUSH32 0x2BE2F7D7802E121767C872BF2D7CE439D5C551498C73A65FBAD47A3845471D10 DUP2 DUP5 ADD MSTORE DUP2 MLOAD PUSH1 0xA0 ADD MSTORE DUP3 MLOAD DUP1 DUP5 ADD DUP5 MSTORE PUSH32 0x2472FE9B9C8942EA0A28760658ED0447C8CAD697821D9A19837FF291F1D2D7CA DUP2 MSTORE PUSH32 0x11FF22A2C89BB0BD714EA1D57AB6F6EB5C1DC8D6DDBF3ABE724A458B0BD5FF80 DUP2 DUP5 ADD MSTORE DUP2 MLOAD PUSH1 0xC0 ADD MSTORE DUP3 MLOAD DUP1 DUP5 ADD DUP5 MSTORE PUSH32 0x136D3B606721B2BFC0EF362B5EC501D61D8B12070CE91361A2894EF1BE0A31A2 DUP2 MSTORE PUSH32 0x513731CF4AD8B1C538011C5D3934AF346CBC75F96835BCA6D72D30E84B6236D DUP2 DUP5 ADD MSTORE DUP2 MLOAD PUSH1 0xE0 ADD MSTORE DUP3 MLOAD DUP1 DUP5 ADD DUP5 MSTORE PUSH32 0x2678207D08314C7E0713939272CE2A9DF9AC8C45824931551F49C06D810D8191 DUP2 MSTORE PUSH32 0x29CD9CD56255FEF9A172D3DDD58888611AD8F48A441F7F8F8384C78F0B71DBF1 DUP2 DUP5 ADD MSTORE DUP2 MLOAD PUSH2 0x100 ADD MSTORE DUP3 MLOAD DUP1 DUP5 ADD DUP5 MSTORE PUSH32 0x19B64F2176276CDC4C4C03C21FC141FF6315812E6FA772EE8BE59F9C3CCEC870 DUP2 MSTORE PUSH32 0x509DA3899451541EC454AB3BB69CB501937754F7FD5B35E1606964DE540CD4C DUP2 DUP5 ADD MSTORE DUP2 MLOAD PUSH2 0x120 ADD MSTORE DUP3 MLOAD DUP1 DUP5 ADD DUP5 MSTORE PUSH32 0x29C099FB40A76C47FA4582B20D696A4C66282EF3E7E4B3DDCB4E7A86AD12961F DUP2 MSTORE PUSH32 0x782AA0AEC9AD1DC7A9668C152B7C7CE9CFA18DA3C50C8DC76AF1B52E33969BE DUP2 DUP5 ADD MSTORE DUP2 MLOAD PUSH2 0x140 ADD MSTORE DUP3 MLOAD DUP1 DUP5 ADD DUP5 MSTORE PUSH32 0x28370D0AA24CC637D147264945D6A7AB13204534A3CA5A239E94AE5DD2F5C3BD DUP2 MSTORE PUSH32 0x3389109820E61BB66DB6A025C9531115564AC94AD3A0C292B5E103346DCF51B DUP2 DUP5 ADD MSTORE DUP2 MLOAD PUSH2 0x160 ADD MSTORE DUP3 MLOAD DUP1 DUP5 ADD DUP5 MSTORE PUSH32 0x1465C6D247A1F16AC9C61CB27DB9FE5440F8AA1DF8A23F2F3AB468456BE85681 DUP2 MSTORE PUSH32 0x2E649431C91A50E1527B06EAF3C1A232E8D130CF2105FAAA312101C45A02605D DUP2 DUP5 ADD MSTORE DUP2 MLOAD PUSH2 0x180 ADD MSTORE DUP3 MLOAD DUP1 DUP5 ADD DUP5 MSTORE PUSH32 0x123356F94660465B6902885C8CE61728FAD3F7057AA60B17AD07265ED3441D2 DUP2 MSTORE PUSH32 0x15509510CD224800649BB7927C175DC11EAEF2C1B30F26D17E12F126192F14A2 DUP2 DUP5 ADD MSTORE DUP2 MLOAD PUSH2 0x1A0 ADD MSTORE DUP3 MLOAD DUP1 DUP5 ADD DUP5 MSTORE PUSH32 0xD6670B229E1B5FFDACA295884B4EDE3E9B28B61596AFB0E286B3A3B8B1EF914 DUP2 MSTORE PUSH32 0x6BAB6839F104014DE626584540D370A791FBD342CAFC154075C0035639D5E4D DUP2 DUP5 ADD MSTORE DUP2 MLOAD PUSH2 0x1C0 ADD MSTORE DUP3 MLOAD DUP1 DUP5 ADD DUP5 MSTORE PUSH32 0x1BE264CA1AFA043EADE73D0FA835A88638BCFCBA15A7042ABB1D91988F77AF6F DUP2 MSTORE PUSH32 0x15B0DCA0164DB75021854658F895A5F5B7A2478A16ED29394CDD36CDF5E6ABE4 DUP2 DUP5 ADD MSTORE DUP2 MLOAD PUSH2 0x1E0 ADD MSTORE DUP3 MLOAD DUP1 DUP5 ADD DUP5 MSTORE PUSH32 0x2AA4FD17E5F123933619FE84658EDE7B2B129C85C12CD5A1B7F1B249FA1C667A DUP2 MSTORE PUSH32 0x173906E6E2BFD08332CAB91BF11D4D24E8FBD4DE17178CFE55FCFC9154A2B04 DUP2 DUP5 ADD MSTORE DUP2 MLOAD PUSH2 0x200 ADD MSTORE DUP3 MLOAD DUP1 DUP5 ADD DUP5 MSTORE PUSH32 0x10343D16CCEB03FB8AD776011FAA64AEDA5858FAC53D0F8BBC1F3227B500376 DUP2 MSTORE PUSH32 0x91C61FC0C265257D401DF8FBCE82110A6B8735969EE1D554787D3AB09DC0ADF DUP2 DUP5 ADD MSTORE DUP2 MLOAD PUSH2 0x220 ADD MSTORE DUP3 MLOAD DUP1 DUP5 ADD SWAP1 SWAP4 MSTORE PUSH32 0x3050B3A7CEA15712B10F92226BA917A1B6AD07D611C90094F0B25114C4508307 DUP4 MSTORE PUSH32 0x2D8193AB99CFE0C0313C6B546957C832EFB4CF929133305B559C542CD4A1BC7F SWAP2 DUP4 ADD SWAP2 SWAP1 SWAP2 MSTORE MLOAD PUSH2 0x240 ADD MSTORE SWAP1 JUMP JUMPDEST PUSH2 0xC51 PUSH2 0x1193 JUMP JUMPDEST PUSH2 0xC59 PUSH2 0x11AD JUMP JUMPDEST DUP4 MLOAD DUP2 MSTORE PUSH1 0x20 DUP1 DUP6 ADD MLOAD SWAP1 DUP3 ADD MSTORE PUSH1 0x40 DUP2 ADD DUP4 SWAP1 MSTORE PUSH1 0x0 PUSH1 0x60 DUP4 PUSH1 0x80 DUP5 PUSH1 0x7 PUSH2 0x7D0 GAS SUB STATICCALL SWAP1 POP DUP1 DUP1 ISZERO PUSH2 0xC8C JUMPI PUSH2 0xC8E JUMP JUMPDEST INVALID JUMPDEST POP DUP1 PUSH2 0xCAC JUMPI PUSH1 0x40 MLOAD PUSH3 0x461BCD PUSH1 0xE5 SHL DUP2 MSTORE PUSH1 0x4 ADD PUSH2 0x124 SWAP1 PUSH2 0x14FC JUMP JUMPDEST POP POP SWAP3 SWAP2 POP POP JUMP JUMPDEST PUSH2 0xCBC PUSH2 0x1193 JUMP JUMPDEST PUSH2 0xCC4 PUSH2 0x11CB JUMP JUMPDEST DUP4 MLOAD DUP2 MSTORE PUSH1 0x20 DUP1 DUP6 ADD MLOAD DUP2 DUP4 ADD MSTORE DUP4 MLOAD PUSH1 0x40 DUP4 ADD MSTORE DUP4 ADD MLOAD PUSH1 0x60 DUP1 DUP4 ADD SWAP2 SWAP1 SWAP2 MSTORE PUSH1 0x0 SWAP1 DUP4 PUSH1 0xC0 DUP5 PUSH1 0x6 PUSH2 0x7D0 GAS SUB STATICCALL SWAP1 POP DUP1 DUP1 ISZERO PUSH2 0xC8C JUMPI POP DUP1 PUSH2 0xCAC JUMPI PUSH1 0x40 MLOAD PUSH3 0x461BCD PUSH1 0xE5 SHL DUP2 MSTORE PUSH1 0x4 ADD PUSH2 0x124 SWAP1 PUSH2 0x1604 JUMP JUMPDEST PUSH2 0xD23 PUSH2 0x1193 JUMP JUMPDEST DUP2 MLOAD ISZERO DUP1 ISZERO PUSH2 0xD34 JUMPI POP PUSH1 0x20 DUP3 ADD MLOAD ISZERO JUMPDEST ISZERO PUSH2 0xD53 JUMPI POP PUSH1 0x40 DUP1 MLOAD DUP1 DUP3 ADD SWAP1 SWAP2 MSTORE PUSH1 0x0 DUP1 DUP3 MSTORE PUSH1 0x20 DUP3 ADD MSTORE PUSH2 0xDA3 JUMP JUMPDEST PUSH1 0x40 MLOAD DUP1 PUSH1 0x40 ADD PUSH1 0x40 MSTORE DUP1 DUP4 PUSH1 0x0 ADD MLOAD DUP2 MSTORE PUSH1 0x20 ADD PUSH1 0x0 DUP1 MLOAD PUSH1 0x20 PUSH2 0x179E DUP4 CODECOPY DUP2 MLOAD SWAP2 MSTORE DUP5 PUSH1 0x20 ADD MLOAD PUSH2 0xD86 SWAP2 SWAP1 PUSH2 0x1751 JUMP JUMPDEST PUSH2 0xD9E SWAP1 PUSH1 0x0 DUP1 MLOAD PUSH1 0x20 PUSH2 0x179E DUP4 CODECOPY DUP2 MLOAD SWAP2 MSTORE PUSH2 0x171F JUMP JUMPDEST SWAP1 MSTORE SWAP1 POP JUMPDEST SWAP2 SWAP1 POP JUMP JUMPDEST PUSH1 0x40 DUP1 MLOAD PUSH1 0x80 DUP1 DUP3 ADD DUP4 MSTORE DUP11 DUP3 MSTORE PUSH1 0x20 DUP1 DUP4 ADD DUP11 SWAP1 MSTORE DUP3 DUP5 ADD DUP9 SWAP1 MSTORE PUSH1 0x60 DUP1 DUP5 ADD DUP8 SWAP1 MSTORE DUP5 MLOAD SWAP3 DUP4 ADD DUP6 MSTORE DUP12 DUP4 MSTORE DUP3 DUP3 ADD DUP11 SWAP1 MSTORE DUP3 DUP6 ADD DUP9 SWAP1 MSTORE DUP3 ADD DUP6 SWAP1 MSTORE DUP4 MLOAD PUSH1 0x18 DUP1 DUP3 MSTORE PUSH2 0x320 DUP3 ADD SWAP1 SWAP6 MSTORE PUSH1 0x0 SWAP5 SWAP2 DUP6 SWAP2 SWAP1 DUP4 SWAP1 DUP3 ADD PUSH2 0x300 DUP1 CALLDATASIZE DUP4 CALLDATACOPY ADD SWAP1 POP POP SWAP1 POP PUSH1 0x0 JUMPDEST PUSH1 0x4 DUP2 LT ISZERO PUSH2 0x10C0 JUMPI PUSH1 0x0 PUSH2 0xE27 DUP3 PUSH1 0x6 PUSH2 0x1700 JUMP JUMPDEST SWAP1 POP DUP6 DUP3 PUSH1 0x4 DUP2 LT PUSH2 0xE49 JUMPI PUSH4 0x4E487B71 PUSH1 0xE0 SHL PUSH1 0x0 MSTORE PUSH1 0x32 PUSH1 0x4 MSTORE PUSH1 0x24 PUSH1 0x0 REVERT JUMPDEST PUSH1 0x20 MUL ADD MLOAD MLOAD DUP4 PUSH2 0xE5B DUP4 PUSH1 0x0 PUSH2 0x16E8 JUMP JUMPDEST DUP2 MLOAD DUP2 LT PUSH2 0xE79 JUMPI PUSH4 0x4E487B71 PUSH1 0xE0 SHL PUSH1 0x0 MSTORE PUSH1 0x32 PUSH1 0x4 MSTORE PUSH1 0x24 PUSH1 0x0 REVERT JUMPDEST PUSH1 0x20 MUL PUSH1 0x20 ADD ADD DUP2 DUP2 MSTORE POP POP DUP6 DUP3 PUSH1 0x4 DUP2 LT PUSH2 0xEA5 JUMPI PUSH4 0x4E487B71 PUSH1 0xE0 SHL PUSH1 0x0 MSTORE PUSH1 0x32 PUSH1 0x4 MSTORE PUSH1 0x24 PUSH1 0x0 REVERT JUMPDEST PUSH1 0x20 MUL ADD MLOAD PUSH1 0x20 ADD MLOAD DUP4 DUP3 PUSH1 0x1 PUSH2 0xEBC SWAP2 SWAP1 PUSH2 0x16E8 JUMP JUMPDEST DUP2 MLOAD DUP2 LT PUSH2 0xEDA JUMPI PUSH4 0x4E487B71 PUSH1 0xE0 SHL PUSH1 0x0 MSTORE PUSH1 0x32 PUSH1 0x4 MSTORE PUSH1 0x24 PUSH1 0x0 REVERT JUMPDEST PUSH1 0x20 MUL PUSH1 0x20 ADD ADD DUP2 DUP2 MSTORE POP POP DUP5 DUP3 PUSH1 0x4 DUP2 LT PUSH2 0xF06 JUMPI PUSH4 0x4E487B71 PUSH1 0xE0 SHL PUSH1 0x0 MSTORE PUSH1 0x32 PUSH1 0x4 MSTORE PUSH1 0x24 PUSH1 0x0 REVERT JUMPDEST PUSH1 0x20 MUL ADD MLOAD MLOAD MLOAD DUP4 PUSH2 0xF19 DUP4 PUSH1 0x2 PUSH2 0x16E8 JUMP JUMPDEST DUP2 MLOAD DUP2 LT PUSH2 0xF37 JUMPI PUSH4 0x4E487B71 PUSH1 0xE0 SHL PUSH1 0x0 MSTORE PUSH1 0x32 PUSH1 0x4 MSTORE PUSH1 0x24 PUSH1 0x0 REVERT JUMPDEST PUSH1 0x20 MUL PUSH1 0x20 ADD ADD DUP2 DUP2 MSTORE POP POP DUP5 DUP3 PUSH1 0x4 DUP2 LT PUSH2 0xF63 JUMPI PUSH4 0x4E487B71 PUSH1 0xE0 SHL PUSH1 0x0 MSTORE PUSH1 0x32 PUSH1 0x4 MSTORE PUSH1 0x24 PUSH1 0x0 REVERT JUMPDEST PUSH1 0x20 MUL ADD MLOAD MLOAD PUSH1 0x1 PUSH1 0x20 MUL ADD MLOAD DUP4 PUSH2 0xF7C DUP4 PUSH1 0x3 PUSH2 0x16E8 JUMP JUMPDEST DUP2 MLOAD DUP2 LT PUSH2 0xF9A JUMPI PUSH4 0x4E487B71 PUSH1 0xE0 SHL PUSH1 0x0 MSTORE PUSH1 0x32 PUSH1 0x4 MSTORE PUSH1 0x24 PUSH1 0x0 REVERT JUMPDEST PUSH1 0x20 MUL PUSH1 0x20 ADD ADD DUP2 DUP2 MSTORE POP POP DUP5 DUP3 PUSH1 0x4 DUP2 LT PUSH2 0xFC6 JUMPI PUSH4 0x4E487B71 PUSH1 0xE0 SHL PUSH1 0x0 MSTORE PUSH1 0x32 PUSH1 0x4 MSTORE PUSH1 0x24 PUSH1 0x0 REVERT JUMPDEST PUSH1 0x20 MUL ADD MLOAD PUSH1 0x20 ADD MLOAD PUSH1 0x0 PUSH1 0x2 DUP2 LT PUSH2 0xFEF JUMPI PUSH4 0x4E487B71 PUSH1 0xE0 SHL PUSH1 0x0 MSTORE PUSH1 0x32 PUSH1 0x4 MSTORE PUSH1 0x24 PUSH1 0x0 REVERT JUMPDEST PUSH1 0x20 MUL ADD MLOAD DUP4 PUSH2 0x1000 DUP4 PUSH1 0x4 PUSH2 0x16E8 JUMP JUMPDEST DUP2 MLOAD DUP2 LT PUSH2 0x101E JUMPI PUSH4 0x4E487B71 PUSH1 0xE0 SHL PUSH1 0x0 MSTORE PUSH1 0x32 PUSH1 0x4 MSTORE PUSH1 0x24 PUSH1 0x0 REVERT JUMPDEST PUSH1 0x20 MUL PUSH1 0x20 ADD ADD DUP2 DUP2 MSTORE POP POP DUP5 DUP3 PUSH1 0x4 DUP2 LT PUSH2 0x104A JUMPI PUSH4 0x4E487B71 PUSH1 0xE0 SHL PUSH1 0x0 MSTORE PUSH1 0x32 PUSH1 0x4 MSTORE PUSH1 0x24 PUSH1 0x0 REVERT JUMPDEST PUSH1 0x20 MUL ADD MLOAD PUSH1 0x20 ADD MLOAD PUSH1 0x1 PUSH1 0x2 DUP2 LT PUSH2 0x1073 JUMPI PUSH4 0x4E487B71 PUSH1 0xE0 SHL PUSH1 0x0 MSTORE PUSH1 0x32 PUSH1 0x4 MSTORE PUSH1 0x24 PUSH1 0x0 REVERT JUMPDEST PUSH1 0x20 MUL ADD MLOAD DUP4 PUSH2 0x1084 DUP4 PUSH1 0x5 PUSH2 0x16E8 JUMP JUMPDEST DUP2 MLOAD DUP2 LT PUSH2 0x10A2 JUMPI PUSH4 0x4E487B71 PUSH1 0xE0 SHL PUSH1 0x0 MSTORE PUSH1 0x32 PUSH1 0x4 MSTORE PUSH1 0x24 PUSH1 0x0 REVERT JUMPDEST PUSH1 0x20 SWAP1 DUP2 MUL SWAP2 SWAP1 SWAP2 ADD ADD MSTORE POP DUP1 PUSH2 0x10B8 DUP2 PUSH2 0x1736 JUMP JUMPDEST SWAP2 POP POP PUSH2 0xE11 JUMP JUMPDEST POP PUSH2 0x10C9 PUSH2 0x11E9 JUMP JUMPDEST PUSH1 0x0 PUSH1 0x20 DUP3 PUSH1 0x20 DUP7 MUL PUSH1 0x20 DUP7 ADD PUSH1 0x8 PUSH2 0x7D0 GAS SUB STATICCALL SWAP1 POP DUP1 DUP1 ISZERO PUSH2 0xC8C JUMPI POP DUP1 PUSH2 0x1105 JUMPI PUSH1 0x40 MLOAD PUSH3 0x461BCD PUSH1 0xE5 SHL DUP2 MSTORE PUSH1 0x4 ADD PUSH2 0x124 SWAP1 PUSH2 0x1667 JUMP JUMPDEST POP MLOAD ISZERO ISZERO SWAP14 SWAP13 POP POP POP POP POP POP POP POP POP POP POP POP POP JUMP JUMPDEST PUSH1 0x40 MLOAD DUP1 PUSH1 0x60 ADD PUSH1 0x40 MSTORE DUP1 PUSH2 0x112D PUSH2 0x1193 JUMP JUMPDEST DUP2 MSTORE PUSH1 0x20 ADD PUSH2 0x113A PUSH2 0x1207 JUMP JUMPDEST DUP2 MSTORE PUSH1 0x20 ADD PUSH2 0x1147 PUSH2 0x1193 JUMP JUMPDEST SWAP1 MSTORE SWAP1 JUMP JUMPDEST PUSH1 0x40 MLOAD DUP1 PUSH1 0xA0 ADD PUSH1 0x40 MSTORE DUP1 PUSH2 0x115F PUSH2 0x1193 JUMP JUMPDEST DUP2 MSTORE PUSH1 0x20 ADD PUSH2 0x116C PUSH2 0x1207 JUMP JUMPDEST DUP2 MSTORE PUSH1 0x20 ADD PUSH2 0x1179 PUSH2 0x1207 JUMP JUMPDEST DUP2 MSTORE PUSH1 0x20 ADD PUSH2 0x1186 PUSH2 0x1207 JUMP JUMPDEST DUP2 MSTORE PUSH1 0x20 ADD PUSH2 0x1147 PUSH2 0x1227 JUMP JUMPDEST PUSH1 0x40 MLOAD DUP1 PUSH1 0x40 ADD PUSH1 0x40 MSTORE DUP1 PUSH1 0x0 DUP2 MSTORE PUSH1 0x20 ADD PUSH1 0x0 DUP2 MSTORE POP SWAP1 JUMP JUMPDEST PUSH1 0x40 MLOAD DUP1 PUSH1 0x60 ADD PUSH1 0x40 MSTORE DUP1 PUSH1 0x3 SWAP1 PUSH1 0x20 DUP3 MUL DUP1 CALLDATASIZE DUP4 CALLDATACOPY POP SWAP2 SWAP3 SWAP2 POP POP JUMP JUMPDEST PUSH1 0x40 MLOAD DUP1 PUSH1 0x80 ADD PUSH1 0x40 MSTORE DUP1 PUSH1 0x4 SWAP1 PUSH1 0x20 DUP3 MUL DUP1 CALLDATASIZE DUP4 CALLDATACOPY POP SWAP2 SWAP3 SWAP2 POP POP JUMP JUMPDEST PUSH1 0x40 MLOAD DUP1 PUSH1 0x20 ADD PUSH1 0x40 MSTORE DUP1 PUSH1 0x1 SWAP1 PUSH1 0x20 DUP3 MUL DUP1 CALLDATASIZE DUP4 CALLDATACOPY POP SWAP2 SWAP3 SWAP2 POP POP JUMP JUMPDEST PUSH1 0x40 MLOAD DUP1 PUSH1 0x40 ADD PUSH1 0x40 MSTORE DUP1 PUSH2 0x121A PUSH2 0x1255 JUMP JUMPDEST DUP2 MSTORE PUSH1 0x20 ADD PUSH2 0x1147 PUSH2 0x1255 JUMP JUMPDEST PUSH1 0x40 MLOAD DUP1 PUSH2 0x260 ADD PUSH1 0x40 MSTORE DUP1 PUSH1 0x13 SWAP1 JUMPDEST PUSH2 0x123F PUSH2 0x1193 JUMP JUMPDEST DUP2 MSTORE PUSH1 0x20 ADD SWAP1 PUSH1 0x1 SWAP1 SUB SWAP1 DUP2 PUSH2 0x1237 JUMPI SWAP1 POP POP SWAP1 JUMP JUMPDEST PUSH1 0x40 MLOAD DUP1 PUSH1 0x40 ADD PUSH1 0x40 MSTORE DUP1 PUSH1 0x2 SWAP1 PUSH1 0x20 DUP3 MUL DUP1 CALLDATASIZE DUP4 CALLDATACOPY POP SWAP2 SWAP3 SWAP2 POP POP JUMP JUMPDEST PUSH1 0x0 DUP3 PUSH1 0x1F DUP4 ADD SLT PUSH2 0x1283 JUMPI DUP1 DUP2 REVERT JUMPDEST PUSH2 0x128D PUSH1 0x40 PUSH2 0x1696 JUMP JUMPDEST DUP1 DUP4 DUP6 PUSH1 0x40 DUP7 ADD GT ISZERO PUSH2 0x129E JUMPI DUP4 DUP5 REVERT JUMPDEST DUP4 JUMPDEST PUSH1 0x2 DUP2 LT ISZERO PUSH2 0x12BF JUMPI DUP2 CALLDATALOAD DUP5 MSTORE PUSH1 0x20 SWAP4 DUP5 ADD SWAP4 SWAP1 SWAP2 ADD SWAP1 PUSH1 0x1 ADD PUSH2 0x12A0 JUMP JUMPDEST POP SWAP1 SWAP6 SWAP5 POP POP POP POP POP JUMP JUMPDEST PUSH1 0x0 DUP3 PUSH1 0x1F DUP4 ADD SLT PUSH2 0x12DA JUMPI DUP1 DUP2 REVERT JUMPDEST DUP2 CALLDATALOAD PUSH1 0x20 PUSH8 0xFFFFFFFFFFFFFFFF DUP3 GT ISZERO PUSH2 0x12F6 JUMPI PUSH2 0x12F6 PUSH2 0x1787 JUMP JUMPDEST DUP1 DUP3 MUL PUSH2 0x1304 DUP3 DUP3 ADD PUSH2 0x1696 JUMP JUMPDEST DUP4 DUP2 MSTORE DUP3 DUP2 ADD SWAP1 DUP7 DUP5 ADD DUP4 DUP9 ADD DUP6 ADD DUP10 LT ISZERO PUSH2 0x131E JUMPI DUP7 DUP8 REVERT JUMPDEST DUP7 SWAP4 POP JUMPDEST DUP6 DUP5 LT ISZERO PUSH2 0x1340 JUMPI DUP1 CALLDATALOAD DUP4 MSTORE PUSH1 0x1 SWAP4 SWAP1 SWAP4 ADD SWAP3 SWAP2 DUP5 ADD SWAP2 DUP5 ADD PUSH2 0x1322 JUMP JUMPDEST POP SWAP8 SWAP7 POP POP POP POP POP POP POP JUMP JUMPDEST PUSH1 0x0 DUP1 PUSH1 0x0 DUP1 PUSH2 0x120 DUP6 DUP8 SUB SLT ISZERO PUSH2 0x1362 JUMPI DUP4 DUP5 REVERT JUMPDEST PUSH2 0x136C DUP7 DUP7 PUSH2 0x1273 JUMP JUMPDEST SWAP4 POP PUSH1 0x40 DUP7 PUSH1 0x5F DUP8 ADD SLT PUSH2 0x137E JUMPI DUP4 DUP5 REVERT JUMPDEST PUSH1 0x2 PUSH2 0x1391 PUSH2 0x138C DUP3 PUSH2 0x16C7 JUMP JUMPDEST PUSH2 0x1696 JUMP JUMPDEST DUP1 DUP4 DUP10 ADD PUSH1 0xC0 DUP11 ADD DUP12 DUP2 GT ISZERO PUSH2 0x13A5 JUMPI DUP9 DUP10 REVERT JUMPDEST DUP9 JUMPDEST DUP6 DUP2 LT ISZERO PUSH2 0x13CD JUMPI PUSH2 0x13B9 DUP14 DUP5 PUSH2 0x1273 JUMP JUMPDEST DUP6 MSTORE PUSH1 0x20 SWAP1 SWAP5 ADD SWAP4 SWAP2 DUP7 ADD SWAP2 PUSH1 0x1 ADD PUSH2 0x13A7 JUMP JUMPDEST POP DUP3 SWAP9 POP PUSH2 0x13DB DUP13 DUP3 PUSH2 0x1273 JUMP JUMPDEST SWAP8 POP POP POP POP POP POP POP PUSH2 0x100 DUP6 ADD CALLDATALOAD PUSH8 0xFFFFFFFFFFFFFFFF DUP2 GT ISZERO PUSH2 0x13FD JUMPI DUP2 DUP3 REVERT JUMPDEST PUSH2 0x1409 DUP8 DUP3 DUP9 ADD PUSH2 0x12CA JUMP JUMPDEST SWAP2 POP POP SWAP3 SWAP6 SWAP2 SWAP5 POP SWAP3 POP JUMP JUMPDEST SWAP1 ISZERO ISZERO DUP2 MSTORE PUSH1 0x20 ADD SWAP1 JUMP JUMPDEST PUSH1 0x20 DUP1 DUP3 MSTORE PUSH1 0x18 SWAP1 DUP3 ADD MSTORE PUSH32 0x76657269666965722D6258302D6774652D7072696D652D710000000000000000 PUSH1 0x40 DUP3 ADD MSTORE PUSH1 0x60 ADD SWAP1 JUMP JUMPDEST PUSH1 0x20 DUP1 DUP3 MSTORE PUSH1 0x17 SWAP1 DUP3 ADD MSTORE PUSH32 0x76657269666965722D61582D6774652D7072696D652D71000000000000000000 PUSH1 0x40 DUP3 ADD MSTORE PUSH1 0x60 ADD SWAP1 JUMP JUMPDEST PUSH1 0x20 DUP1 DUP3 MSTORE PUSH1 0x18 SWAP1 DUP3 ADD MSTORE PUSH32 0x76657269666965722D6259312D6774652D7072696D652D710000000000000000 PUSH1 0x40 DUP3 ADD MSTORE PUSH1 0x60 ADD SWAP1 JUMP JUMPDEST PUSH1 0x20 DUP1 DUP3 MSTORE PUSH1 0x18 SWAP1 DUP3 ADD MSTORE PUSH32 0x76657269666965722D6258312D6774652D7072696D652D710000000000000000 PUSH1 0x40 DUP3 ADD MSTORE PUSH1 0x60 ADD SWAP1 JUMP JUMPDEST PUSH1 0x20 DUP1 DUP3 MSTORE PUSH1 0x12 SWAP1 DUP3 ADD MSTORE PUSH18 0x1C185A5C9A5B99CB5B5D5B0B59985A5B1959 PUSH1 0x72 SHL PUSH1 0x40 DUP3 ADD MSTORE PUSH1 0x60 ADD SWAP1 JUMP JUMPDEST PUSH1 0x20 DUP1 DUP3 MSTORE PUSH1 0x17 SWAP1 DUP3 ADD MSTORE PUSH32 0x76657269666965722D63592D6774652D7072696D652D71000000000000000000 PUSH1 0x40 DUP3 ADD MSTORE PUSH1 0x60 ADD SWAP1 JUMP JUMPDEST PUSH1 0x20 DUP1 DUP3 MSTORE PUSH1 0x1F SWAP1 DUP3 ADD MSTORE PUSH32 0x76657269666965722D6774652D736E61726B2D7363616C61722D6669656C6400 PUSH1 0x40 DUP3 ADD MSTORE PUSH1 0x60 ADD SWAP1 JUMP JUMPDEST PUSH1 0x20 DUP1 DUP3 MSTORE PUSH1 0x18 SWAP1 DUP3 ADD MSTORE PUSH32 0x76657269666965722D6259302D6774652D7072696D652D710000000000000000 PUSH1 0x40 DUP3 ADD MSTORE PUSH1 0x60 ADD SWAP1 JUMP JUMPDEST PUSH1 0x20 DUP1 DUP3 MSTORE PUSH1 0x17 SWAP1 DUP3 ADD MSTORE PUSH32 0x76657269666965722D61592D6774652D7072696D652D71000000000000000000 PUSH1 0x40 DUP3 ADD MSTORE PUSH1 0x60 ADD SWAP1 JUMP JUMPDEST PUSH1 0x20 DUP1 DUP3 MSTORE PUSH1 0x12 SWAP1 DUP3 ADD MSTORE PUSH18 0x1C185A5C9A5B99CB5859190B59985A5B1959 PUSH1 0x72 SHL PUSH1 0x40 DUP3 ADD MSTORE PUSH1 0x60 ADD SWAP1 JUMP JUMPDEST PUSH1 0x20 DUP1 DUP3 MSTORE PUSH1 0x17 SWAP1 DUP3 ADD MSTORE PUSH32 0x76657269666965722D63582D6774652D7072696D652D71000000000000000000 PUSH1 0x40 DUP3 ADD MSTORE PUSH1 0x60 ADD SWAP1 JUMP JUMPDEST PUSH1 0x20 DUP1 DUP3 MSTORE PUSH1 0x15 SWAP1 DUP3 ADD MSTORE PUSH21 0x1C185A5C9A5B99CB5BDC18DBD9194B59985A5B1959 PUSH1 0x5A SHL PUSH1 0x40 DUP3 ADD MSTORE PUSH1 0x60 ADD SWAP1 JUMP JUMPDEST PUSH1 0x40 MLOAD PUSH1 0x1F DUP3 ADD PUSH1 0x1F NOT AND DUP2 ADD PUSH8 0xFFFFFFFFFFFFFFFF DUP2 GT DUP3 DUP3 LT OR ISZERO PUSH2 0x16BF JUMPI PUSH2 0x16BF PUSH2 0x1787 JUMP JUMPDEST PUSH1 0x40 MSTORE SWAP2 SWAP1 POP JUMP JUMPDEST PUSH1 0x0 PUSH8 0xFFFFFFFFFFFFFFFF DUP3 GT ISZERO PUSH2 0x16E1 JUMPI PUSH2 0x16E1 PUSH2 0x1787 JUMP JUMPDEST POP PUSH1 0x20 MUL SWAP1 JUMP JUMPDEST PUSH1 0x0 DUP3 NOT DUP3 GT ISZERO PUSH2 0x16FB JUMPI PUSH2 0x16FB PUSH2 0x1771 JUMP JUMPDEST POP ADD SWAP1 JUMP JUMPDEST PUSH1 0x0 DUP2 PUSH1 0x0 NOT DIV DUP4 GT DUP3 ISZERO ISZERO AND ISZERO PUSH2 0x171A JUMPI PUSH2 0x171A PUSH2 0x1771 JUMP JUMPDEST POP MUL SWAP1 JUMP JUMPDEST PUSH1 0x0 DUP3 DUP3 LT ISZERO PUSH2 0x1731 JUMPI PUSH2 0x1731 PUSH2 0x1771 JUMP JUMPDEST POP SUB SWAP1 JUMP JUMPDEST PUSH1 0x0 PUSH1 0x0 NOT DUP3 EQ ISZERO PUSH2 0x174A JUMPI PUSH2 0x174A PUSH2 0x1771 JUMP JUMPDEST POP PUSH1 0x1 ADD SWAP1 JUMP JUMPDEST PUSH1 0x0 DUP3 PUSH2 0x176C JUMPI PUSH4 0x4E487B71 PUSH1 0xE0 SHL DUP2 MSTORE PUSH1 0x12 PUSH1 0x4 MSTORE PUSH1 0x24 DUP2 REVERT JUMPDEST POP MOD SWAP1 JUMP JUMPDEST PUSH4 0x4E487B71 PUSH1 0xE0 SHL PUSH1 0x0 MSTORE PUSH1 0x11 PUSH1 0x4 MSTORE PUSH1 0x24 PUSH1 0x0 REVERT JUMPDEST PUSH4 0x4E487B71 PUSH1 0xE0 SHL PUSH1 0x0 MSTORE PUSH1 0x41 PUSH1 0x4 MSTORE PUSH1 0x24 PUSH1 0x0 REVERT INVALID ADDRESS PUSH5 0x4E72E131A0 0x29 0xB8 POP GASLIMIT 0xB6 DUP2 DUP2 PC 0x5D SWAP8 DUP2 PUSH11 0x916871CA8D3C208C16D87C REVERT SELFBALANCE LOG2 PUSH5 0x6970667358 0x22 SLT KECCAK256 PUSH16 0x393B879294C27A17E80BEA1946623486 0xC0 PUSH15 0xAC8DE373C3145FCB047D7D10DD6473 PUSH16 0x6C634300080100330000000000000000 "
        },
        "methodIdentifiers": {
          "verifyProof(uint256[2],uint256[2][2],uint256[2],uint256[])": "c32e370e"
        }
      }
    }
  }
}