{
  "_format": "hh-sol-artifact-1",
  "contractName": "Unirep",
  "sourceName": "contracts/Unirep.sol",
  "abi": [
    {
      "inputs": [
        {
          "components": [
            {
              "internalType": "uint8",
              "name": "globalStateTreeDepth",
              "type": "uint8"
            },
            {
              "internalType": "uint8",
              "name": "userStateTreeDepth",
              "type": "uint8"
            },
            {
              "internalType": "uint8",
              "name": "epochTreeDepth",
              "type": "uint8"
            }
          ],
          "internalType": "struct UnirepTypes.TreeDepths",
          "name": "_treeDepths",
          "type": "tuple"
        },
        {
          "components": [
            {
              "internalType": "uint256",
              "name": "maxUsers",
              "type": "uint256"
            },
            {
              "internalType": "uint256",
              "name": "maxAttesters",
              "type": "uint256"
            }
          ],
          "internalType": "struct UnirepTypes.MaxValues",
          "name": "_maxValues",
          "type": "tuple"
        },
        {
          "internalType": "contract IVerifier",
          "name": "_epkValidityVerifier",
          "type": "address"
        },
        {
          "internalType": "contract IVerifier",
          "name": "_startTransitionVerifier",
          "type": "address"
        },
        {
          "internalType": "contract IVerifier",
          "name": "_processAttestationsVerifier",
          "type": "address"
        },
        {
          "internalType": "contract IVerifier",
          "name": "_userStateTransitionVerifier",
          "type": "address"
        },
        {
          "internalType": "contract IVerifier",
          "name": "_reputationVerifier",
          "type": "address"
        },
        {
          "internalType": "contract IVerifier",
          "name": "_userSignUpVerifier",
          "type": "address"
        },
        {
          "internalType": "uint8",
          "name": "_numEpochKeyNoncePerEpoch",
          "type": "uint8"
        },
        {
          "internalType": "uint8",
          "name": "_maxReputationBudget",
          "type": "uint8"
        },
        {
          "internalType": "uint256",
          "name": "_epochLength",
          "type": "uint256"
        },
        {
          "internalType": "uint256",
          "name": "_attestingFee",
          "type": "uint256"
        }
      ],
      "stateMutability": "nonpayable",
      "type": "constructor"
    },
    {
      "anonymous": false,
      "inputs": [
        {
          "indexed": true,
          "internalType": "uint256",
          "name": "epoch",
          "type": "uint256"
        },
        {
          "indexed": true,
          "internalType": "uint256",
          "name": "epochKey",
          "type": "uint256"
        },
        {
          "indexed": true,
          "internalType": "address",
          "name": "attester",
          "type": "address"
        },
        {
          "indexed": false,
          "internalType": "enum IUnirep.AttestationEvent",
          "name": "attestationEvent",
          "type": "uint8"
        },
        {
          "components": [
            {
              "internalType": "uint256",
              "name": "attesterId",
              "type": "uint256"
            },
            {
              "internalType": "uint256",
              "name": "posRep",
              "type": "uint256"
            },
            {
              "internalType": "uint256",
              "name": "negRep",
              "type": "uint256"
            },
            {
              "internalType": "uint256",
              "name": "graffiti",
              "type": "uint256"
            },
            {
              "internalType": "uint256",
              "name": "signUp",
              "type": "uint256"
            }
          ],
          "indexed": false,
          "internalType": "struct UnirepTypes.Attestation",
          "name": "attestation",
          "type": "tuple"
        },
        {
          "indexed": false,
          "internalType": "uint256",
          "name": "toProofIndex",
          "type": "uint256"
        },
        {
          "indexed": false,
          "internalType": "uint256",
          "name": "fromProofIndex",
          "type": "uint256"
        },
        {
          "indexed": false,
          "internalType": "uint256",
          "name": "attestIndex",
          "type": "uint256"
        }
      ],
      "name": "AttestationSubmitted",
      "type": "event"
    },
    {
      "anonymous": false,
      "inputs": [
        {
          "indexed": true,
          "internalType": "uint256",
          "name": "epoch",
          "type": "uint256"
        }
      ],
      "name": "EpochEnded",
      "type": "event"
    },
    {
      "anonymous": false,
      "inputs": [
        {
          "indexed": true,
          "internalType": "uint256",
          "name": "proofIndex",
          "type": "uint256"
        },
        {
          "indexed": true,
          "internalType": "uint256",
          "name": "epoch",
          "type": "uint256"
        },
        {
          "indexed": true,
          "internalType": "uint256",
          "name": "epochKey",
          "type": "uint256"
        },
        {
          "components": [
            {
              "internalType": "uint256",
              "name": "globalStateTree",
              "type": "uint256"
            },
            {
              "internalType": "uint256",
              "name": "epoch",
              "type": "uint256"
            },
            {
              "internalType": "uint256",
              "name": "epochKey",
              "type": "uint256"
            },
            {
              "internalType": "uint256[8]",
              "name": "proof",
              "type": "uint256[8]"
            }
          ],
          "indexed": false,
          "internalType": "struct UnirepTypes.EpochKeyProof",
          "name": "proof",
          "type": "tuple"
        }
      ],
      "name": "IndexedEpochKeyProof",
      "type": "event"
    },
    {
      "anonymous": false,
      "inputs": [
        {
          "indexed": true,
          "internalType": "uint256",
          "name": "proofIndex",
          "type": "uint256"
        },
        {
          "indexed": true,
          "internalType": "uint256",
          "name": "inputBlindedUserState",
          "type": "uint256"
        },
        {
          "indexed": false,
          "internalType": "uint256",
          "name": "outputBlindedUserState",
          "type": "uint256"
        },
        {
          "indexed": false,
          "internalType": "uint256",
          "name": "outputBlindedHashChain",
          "type": "uint256"
        },
        {
          "indexed": false,
          "internalType": "uint256[8]",
          "name": "proof",
          "type": "uint256[8]"
        }
      ],
      "name": "IndexedProcessedAttestationsProof",
      "type": "event"
    },
    {
      "anonymous": false,
      "inputs": [
        {
          "indexed": true,
          "internalType": "uint256",
          "name": "proofIndex",
          "type": "uint256"
        },
        {
          "indexed": true,
          "internalType": "uint256",
          "name": "epoch",
          "type": "uint256"
        },
        {
          "indexed": true,
          "internalType": "uint256",
          "name": "epochKey",
          "type": "uint256"
        },
        {
          "components": [
            {
              "internalType": "uint256[]",
              "name": "repNullifiers",
              "type": "uint256[]"
            },
            {
              "internalType": "uint256",
              "name": "epoch",
              "type": "uint256"
            },
            {
              "internalType": "uint256",
              "name": "epochKey",
              "type": "uint256"
            },
            {
              "internalType": "uint256",
              "name": "globalStateTree",
              "type": "uint256"
            },
            {
              "internalType": "uint256",
              "name": "attesterId",
              "type": "uint256"
            },
            {
              "internalType": "uint256",
              "name": "proveReputationAmount",
              "type": "uint256"
            },
            {
              "internalType": "uint256",
              "name": "minRep",
              "type": "uint256"
            },
            {
              "internalType": "uint256",
              "name": "proveGraffiti",
              "type": "uint256"
            },
            {
              "internalType": "uint256",
              "name": "graffitiPreImage",
              "type": "uint256"
            },
            {
              "internalType": "uint256[8]",
              "name": "proof",
              "type": "uint256[8]"
            }
          ],
          "indexed": false,
          "internalType": "struct UnirepTypes.ReputationProof",
          "name": "proof",
          "type": "tuple"
        }
      ],
      "name": "IndexedReputationProof",
      "type": "event"
    },
    {
      "anonymous": false,
      "inputs": [
        {
          "indexed": true,
          "internalType": "uint256",
          "name": "proofIndex",
          "type": "uint256"
        },
        {
          "indexed": true,
          "internalType": "uint256",
          "name": "blindedUserState",
          "type": "uint256"
        },
        {
          "indexed": true,
          "internalType": "uint256",
          "name": "globalStateTree",
          "type": "uint256"
        },
        {
          "indexed": false,
          "internalType": "uint256",
          "name": "blindedHashChain",
          "type": "uint256"
        },
        {
          "indexed": false,
          "internalType": "uint256[8]",
          "name": "proof",
          "type": "uint256[8]"
        }
      ],
      "name": "IndexedStartedTransitionProof",
      "type": "event"
    },
    {
      "anonymous": false,
      "inputs": [
        {
          "indexed": true,
          "internalType": "uint256",
          "name": "proofIndex",
          "type": "uint256"
        },
        {
          "indexed": true,
          "internalType": "uint256",
          "name": "epoch",
          "type": "uint256"
        },
        {
          "indexed": true,
          "internalType": "uint256",
          "name": "epochKey",
          "type": "uint256"
        },
        {
          "components": [
            {
              "internalType": "uint256",
              "name": "epoch",
              "type": "uint256"
            },
            {
              "internalType": "uint256",
              "name": "epochKey",
              "type": "uint256"
            },
            {
              "internalType": "uint256",
              "name": "globalStateTree",
              "type": "uint256"
            },
            {
              "internalType": "uint256",
              "name": "attesterId",
              "type": "uint256"
            },
            {
              "internalType": "uint256",
              "name": "userHasSignedUp",
              "type": "uint256"
            },
            {
              "internalType": "uint256[8]",
              "name": "proof",
              "type": "uint256[8]"
            }
          ],
          "indexed": false,
          "internalType": "struct UnirepTypes.SignUpProof",
          "name": "proof",
          "type": "tuple"
        }
      ],
      "name": "IndexedUserSignedUpProof",
      "type": "event"
    },
    {
      "anonymous": false,
      "inputs": [
        {
          "indexed": true,
          "internalType": "uint256",
          "name": "proofIndex",
          "type": "uint256"
        },
        {
          "components": [
            {
              "internalType": "uint256",
              "name": "newGlobalStateTreeLeaf",
              "type": "uint256"
            },
            {
              "internalType": "uint256[]",
              "name": "epkNullifiers",
              "type": "uint256[]"
            },
            {
              "internalType": "uint256",
              "name": "transitionFromEpoch",
              "type": "uint256"
            },
            {
              "internalType": "uint256[]",
              "name": "blindedUserStates",
              "type": "uint256[]"
            },
            {
              "internalType": "uint256",
              "name": "fromGlobalStateTree",
              "type": "uint256"
            },
            {
              "internalType": "uint256[]",
              "name": "blindedHashChains",
              "type": "uint256[]"
            },
            {
              "internalType": "uint256",
              "name": "fromEpochTree",
              "type": "uint256"
            },
            {
              "internalType": "uint256[8]",
              "name": "proof",
              "type": "uint256[8]"
            }
          ],
          "indexed": false,
          "internalType": "struct UnirepTypes.UserTransitionProof",
          "name": "proof",
          "type": "tuple"
        },
        {
          "indexed": false,
          "internalType": "uint256[]",
          "name": "proofIndexRecords",
          "type": "uint256[]"
        }
      ],
      "name": "IndexedUserStateTransitionProof",
      "type": "event"
    },
    {
      "anonymous": false,
      "inputs": [
        {
          "indexed": true,
          "internalType": "uint256",
          "name": "epoch",
          "type": "uint256"
        },
        {
          "indexed": false,
          "internalType": "enum IUnirep.Event",
          "name": "userEvent",
          "type": "uint8"
        }
      ],
      "name": "Sequencer",
      "type": "event"
    },
    {
      "anonymous": false,
      "inputs": [
        {
          "indexed": true,
          "internalType": "uint256",
          "name": "epoch",
          "type": "uint256"
        },
        {
          "indexed": true,
          "internalType": "uint256",
          "name": "identityCommitment",
          "type": "uint256"
        },
        {
          "indexed": false,
          "internalType": "uint256",
          "name": "attesterId",
          "type": "uint256"
        },
        {
          "indexed": false,
          "internalType": "uint256",
          "name": "airdropAmount",
          "type": "uint256"
        }
      ],
      "name": "UserSignedUp",
      "type": "event"
    },
    {
      "anonymous": false,
      "inputs": [
        {
          "indexed": true,
          "internalType": "uint256",
          "name": "epoch",
          "type": "uint256"
        },
        {
          "indexed": true,
          "internalType": "uint256",
          "name": "hashedLeaf",
          "type": "uint256"
        },
        {
          "indexed": false,
          "internalType": "uint256",
          "name": "proofIndex",
          "type": "uint256"
        }
      ],
      "name": "UserStateTransitioned",
      "type": "event"
    },
    {
      "inputs": [
        {
          "internalType": "address",
          "name": "",
          "type": "address"
        }
      ],
      "name": "airdropAmount",
      "outputs": [
        {
          "internalType": "uint256",
          "name": "",
          "type": "uint256"
        }
      ],
      "stateMutability": "view",
      "type": "function"
    },
    {
      "inputs": [
        {
          "components": [
            {
              "internalType": "uint256",
              "name": "epoch",
              "type": "uint256"
            },
            {
              "internalType": "uint256",
              "name": "epochKey",
              "type": "uint256"
            },
            {
              "internalType": "uint256",
              "name": "globalStateTree",
              "type": "uint256"
            },
            {
              "internalType": "uint256",
              "name": "attesterId",
              "type": "uint256"
            },
            {
              "internalType": "uint256",
              "name": "userHasSignedUp",
              "type": "uint256"
            },
            {
              "internalType": "uint256[8]",
              "name": "proof",
              "type": "uint256[8]"
            }
          ],
          "internalType": "struct UnirepTypes.SignUpProof",
          "name": "_input",
          "type": "tuple"
        }
      ],
      "name": "airdropEpochKey",
      "outputs": [],
      "stateMutability": "payable",
      "type": "function"
    },
    {
      "inputs": [],
      "name": "attesterSignUp",
      "outputs": [],
      "stateMutability": "nonpayable",
      "type": "function"
    },
    {
      "inputs": [
        {
          "internalType": "address",
          "name": "attester",
          "type": "address"
        },
        {
          "internalType": "bytes",
          "name": "signature",
          "type": "bytes"
        }
      ],
      "name": "attesterSignUpViaRelayer",
      "outputs": [],
      "stateMutability": "nonpayable",
      "type": "function"
    },
    {
      "inputs": [
        {
          "internalType": "address",
          "name": "",
          "type": "address"
        }
      ],
      "name": "attesters",
      "outputs": [
        {
          "internalType": "uint256",
          "name": "",
          "type": "uint256"
        }
      ],
      "stateMutability": "view",
      "type": "function"
    },
    {
      "inputs": [],
      "name": "attestingFee",
      "outputs": [
        {
          "internalType": "uint256",
          "name": "",
          "type": "uint256"
        }
      ],
      "stateMutability": "view",
      "type": "function"
    },
    {
      "inputs": [],
      "name": "beginEpochTransition",
      "outputs": [],
      "stateMutability": "nonpayable",
      "type": "function"
    },
    {
      "inputs": [],
      "name": "burnAttestingFee",
      "outputs": [],
      "stateMutability": "nonpayable",
      "type": "function"
    },
    {
      "inputs": [],
      "name": "collectEpochTransitionCompensation",
      "outputs": [],
      "stateMutability": "nonpayable",
      "type": "function"
    },
    {
      "inputs": [],
      "name": "collectedAttestingFee",
      "outputs": [
        {
          "internalType": "uint256",
          "name": "",
          "type": "uint256"
        }
      ],
      "stateMutability": "view",
      "type": "function"
    },
    {
      "inputs": [],
      "name": "currentEpoch",
      "outputs": [
        {
          "internalType": "uint256",
          "name": "",
          "type": "uint256"
        }
      ],
      "stateMutability": "view",
      "type": "function"
    },
    {
      "inputs": [],
      "name": "epochLength",
      "outputs": [
        {
          "internalType": "uint256",
          "name": "",
          "type": "uint256"
        }
      ],
      "stateMutability": "view",
      "type": "function"
    },
    {
      "inputs": [
        {
          "internalType": "address",
          "name": "",
          "type": "address"
        }
      ],
      "name": "epochTransitionCompensation",
      "outputs": [
        {
          "internalType": "uint256",
          "name": "",
          "type": "uint256"
        }
      ],
      "stateMutability": "view",
      "type": "function"
    },
    {
      "inputs": [
        {
          "internalType": "bytes32",
          "name": "",
          "type": "bytes32"
        }
      ],
      "name": "getProofIndex",
      "outputs": [
        {
          "internalType": "uint256",
          "name": "",
          "type": "uint256"
        }
      ],
      "stateMutability": "view",
      "type": "function"
    },
    {
      "inputs": [
        {
          "internalType": "uint256",
          "name": "",
          "type": "uint256"
        }
      ],
      "name": "hasUserSignedUp",
      "outputs": [
        {
          "internalType": "bool",
          "name": "",
          "type": "bool"
        }
      ],
      "stateMutability": "view",
      "type": "function"
    },
    {
      "inputs": [
        {
          "components": [
            {
              "internalType": "uint256",
              "name": "globalStateTree",
              "type": "uint256"
            },
            {
              "internalType": "uint256",
              "name": "epoch",
              "type": "uint256"
            },
            {
              "internalType": "uint256",
              "name": "epochKey",
              "type": "uint256"
            },
            {
              "internalType": "uint256[8]",
              "name": "proof",
              "type": "uint256[8]"
            }
          ],
          "internalType": "struct UnirepTypes.EpochKeyProof",
          "name": "_input",
          "type": "tuple"
        }
      ],
      "name": "hashEpochKeyProof",
      "outputs": [
        {
          "internalType": "bytes32",
          "name": "",
          "type": "bytes32"
        }
      ],
      "stateMutability": "pure",
      "type": "function"
    },
    {
      "inputs": [
        {
          "internalType": "uint256",
          "name": "_outputBlindedUserState",
          "type": "uint256"
        },
        {
          "internalType": "uint256",
          "name": "_outputBlindedHashChain",
          "type": "uint256"
        },
        {
          "internalType": "uint256",
          "name": "_inputBlindedUserState",
          "type": "uint256"
        },
        {
          "internalType": "uint256[8]",
          "name": "_proof",
          "type": "uint256[8]"
        }
      ],
      "name": "hashProcessAttestationsProof",
      "outputs": [
        {
          "internalType": "bytes32",
          "name": "",
          "type": "bytes32"
        }
      ],
      "stateMutability": "pure",
      "type": "function"
    },
    {
      "inputs": [
        {
          "components": [
            {
              "internalType": "uint256[]",
              "name": "repNullifiers",
              "type": "uint256[]"
            },
            {
              "internalType": "uint256",
              "name": "epoch",
              "type": "uint256"
            },
            {
              "internalType": "uint256",
              "name": "epochKey",
              "type": "uint256"
            },
            {
              "internalType": "uint256",
              "name": "globalStateTree",
              "type": "uint256"
            },
            {
              "internalType": "uint256",
              "name": "attesterId",
              "type": "uint256"
            },
            {
              "internalType": "uint256",
              "name": "proveReputationAmount",
              "type": "uint256"
            },
            {
              "internalType": "uint256",
              "name": "minRep",
              "type": "uint256"
            },
            {
              "internalType": "uint256",
              "name": "proveGraffiti",
              "type": "uint256"
            },
            {
              "internalType": "uint256",
              "name": "graffitiPreImage",
              "type": "uint256"
            },
            {
              "internalType": "uint256[8]",
              "name": "proof",
              "type": "uint256[8]"
            }
          ],
          "internalType": "struct UnirepTypes.ReputationProof",
          "name": "_input",
          "type": "tuple"
        }
      ],
      "name": "hashReputationProof",
      "outputs": [
        {
          "internalType": "bytes32",
          "name": "",
          "type": "bytes32"
        }
      ],
      "stateMutability": "pure",
      "type": "function"
    },
    {
      "inputs": [
        {
          "components": [
            {
              "internalType": "uint256",
              "name": "epoch",
              "type": "uint256"
            },
            {
              "internalType": "uint256",
              "name": "epochKey",
              "type": "uint256"
            },
            {
              "internalType": "uint256",
              "name": "globalStateTree",
              "type": "uint256"
            },
            {
              "internalType": "uint256",
              "name": "attesterId",
              "type": "uint256"
            },
            {
              "internalType": "uint256",
              "name": "userHasSignedUp",
              "type": "uint256"
            },
            {
              "internalType": "uint256[8]",
              "name": "proof",
              "type": "uint256[8]"
            }
          ],
          "internalType": "struct UnirepTypes.SignUpProof",
          "name": "_input",
          "type": "tuple"
        }
      ],
      "name": "hashSignUpProof",
      "outputs": [
        {
          "internalType": "bytes32",
          "name": "",
          "type": "bytes32"
        }
      ],
      "stateMutability": "pure",
      "type": "function"
    },
    {
      "inputs": [
        {
          "internalType": "uint256",
          "name": "_blindedUserState",
          "type": "uint256"
        },
        {
          "internalType": "uint256",
          "name": "_blindedHashChain",
          "type": "uint256"
        },
        {
          "internalType": "uint256",
          "name": "_globalStateTree",
          "type": "uint256"
        },
        {
          "internalType": "uint256[8]",
          "name": "_proof",
          "type": "uint256[8]"
        }
      ],
      "name": "hashStartTransitionProof",
      "outputs": [
        {
          "internalType": "bytes32",
          "name": "",
          "type": "bytes32"
        }
      ],
      "stateMutability": "pure",
      "type": "function"
    },
    {
      "inputs": [
        {
          "components": [
            {
              "internalType": "uint256",
              "name": "newGlobalStateTreeLeaf",
              "type": "uint256"
            },
            {
              "internalType": "uint256[]",
              "name": "epkNullifiers",
              "type": "uint256[]"
            },
            {
              "internalType": "uint256",
              "name": "transitionFromEpoch",
              "type": "uint256"
            },
            {
              "internalType": "uint256[]",
              "name": "blindedUserStates",
              "type": "uint256[]"
            },
            {
              "internalType": "uint256",
              "name": "fromGlobalStateTree",
              "type": "uint256"
            },
            {
              "internalType": "uint256[]",
              "name": "blindedHashChains",
              "type": "uint256[]"
            },
            {
              "internalType": "uint256",
              "name": "fromEpochTree",
              "type": "uint256"
            },
            {
              "internalType": "uint256[8]",
              "name": "proof",
              "type": "uint256[8]"
            }
          ],
          "internalType": "struct UnirepTypes.UserTransitionProof",
          "name": "_input",
          "type": "tuple"
        }
      ],
      "name": "hashUserStateTransitionProof",
      "outputs": [
        {
          "internalType": "bytes32",
          "name": "",
          "type": "bytes32"
        }
      ],
      "stateMutability": "pure",
      "type": "function"
    },
    {
      "inputs": [],
      "name": "latestEpochTransitionTime",
      "outputs": [
        {
          "internalType": "uint256",
          "name": "",
          "type": "uint256"
        }
      ],
      "stateMutability": "view",
      "type": "function"
    },
    {
      "inputs": [],
      "name": "maxAttesters",
      "outputs": [
        {
          "internalType": "uint256",
          "name": "",
          "type": "uint256"
        }
      ],
      "stateMutability": "view",
      "type": "function"
    },
    {
      "inputs": [],
      "name": "maxEpochKey",
      "outputs": [
        {
          "internalType": "uint256",
          "name": "",
          "type": "uint256"
        }
      ],
      "stateMutability": "view",
      "type": "function"
    },
    {
      "inputs": [],
      "name": "maxReputationBudget",
      "outputs": [
        {
          "internalType": "uint8",
          "name": "",
          "type": "uint8"
        }
      ],
      "stateMutability": "view",
      "type": "function"
    },
    {
      "inputs": [],
      "name": "maxUsers",
      "outputs": [
        {
          "internalType": "uint256",
          "name": "",
          "type": "uint256"
        }
      ],
      "stateMutability": "view",
      "type": "function"
    },
    {
      "inputs": [],
      "name": "nextAttesterId",
      "outputs": [
        {
          "internalType": "uint256",
          "name": "",
          "type": "uint256"
        }
      ],
      "stateMutability": "view",
      "type": "function"
    },
    {
      "inputs": [],
      "name": "numEpochKeyNoncePerEpoch",
      "outputs": [
        {
          "internalType": "uint8",
          "name": "",
          "type": "uint8"
        }
      ],
      "stateMutability": "view",
      "type": "function"
    },
    {
      "inputs": [],
      "name": "numUserSignUps",
      "outputs": [
        {
          "internalType": "uint256",
          "name": "",
          "type": "uint256"
        }
      ],
      "stateMutability": "view",
      "type": "function"
    },
    {
      "inputs": [
        {
          "internalType": "uint256",
          "name": "_outputBlindedUserState",
          "type": "uint256"
        },
        {
          "internalType": "uint256",
          "name": "_outputBlindedHashChain",
          "type": "uint256"
        },
        {
          "internalType": "uint256",
          "name": "_inputBlindedUserState",
          "type": "uint256"
        },
        {
          "internalType": "uint256[8]",
          "name": "_proof",
          "type": "uint256[8]"
        }
      ],
      "name": "processAttestations",
      "outputs": [],
      "stateMutability": "nonpayable",
      "type": "function"
    },
    {
      "inputs": [
        {
          "internalType": "uint256",
          "name": "_airdropAmount",
          "type": "uint256"
        }
      ],
      "name": "setAirdropAmount",
      "outputs": [],
      "stateMutability": "nonpayable",
      "type": "function"
    },
    {
      "inputs": [
        {
          "components": [
            {
              "internalType": "uint256[]",
              "name": "repNullifiers",
              "type": "uint256[]"
            },
            {
              "internalType": "uint256",
              "name": "epoch",
              "type": "uint256"
            },
            {
              "internalType": "uint256",
              "name": "epochKey",
              "type": "uint256"
            },
            {
              "internalType": "uint256",
              "name": "globalStateTree",
              "type": "uint256"
            },
            {
              "internalType": "uint256",
              "name": "attesterId",
              "type": "uint256"
            },
            {
              "internalType": "uint256",
              "name": "proveReputationAmount",
              "type": "uint256"
            },
            {
              "internalType": "uint256",
              "name": "minRep",
              "type": "uint256"
            },
            {
              "internalType": "uint256",
              "name": "proveGraffiti",
              "type": "uint256"
            },
            {
              "internalType": "uint256",
              "name": "graffitiPreImage",
              "type": "uint256"
            },
            {
              "internalType": "uint256[8]",
              "name": "proof",
              "type": "uint256[8]"
            }
          ],
          "internalType": "struct UnirepTypes.ReputationProof",
          "name": "_input",
          "type": "tuple"
        }
      ],
      "name": "spendReputation",
      "outputs": [],
      "stateMutability": "payable",
      "type": "function"
    },
    {
      "inputs": [
        {
          "internalType": "uint256",
          "name": "_blindedUserState",
          "type": "uint256"
        },
        {
          "internalType": "uint256",
          "name": "_blindedHashChain",
          "type": "uint256"
        },
        {
          "internalType": "uint256",
          "name": "_globalStateTree",
          "type": "uint256"
        },
        {
          "internalType": "uint256[8]",
          "name": "_proof",
          "type": "uint256[8]"
        }
      ],
      "name": "startUserStateTransition",
      "outputs": [],
      "stateMutability": "nonpayable",
      "type": "function"
    },
    {
      "inputs": [
        {
          "components": [
            {
              "internalType": "uint256",
              "name": "attesterId",
              "type": "uint256"
            },
            {
              "internalType": "uint256",
              "name": "posRep",
              "type": "uint256"
            },
            {
              "internalType": "uint256",
              "name": "negRep",
              "type": "uint256"
            },
            {
              "internalType": "uint256",
              "name": "graffiti",
              "type": "uint256"
            },
            {
              "internalType": "uint256",
              "name": "signUp",
              "type": "uint256"
            }
          ],
          "internalType": "struct UnirepTypes.Attestation",
          "name": "attestation",
          "type": "tuple"
        },
        {
          "internalType": "uint256",
          "name": "epochKey",
          "type": "uint256"
        },
        {
          "internalType": "uint256",
          "name": "toProofIndex",
          "type": "uint256"
        },
        {
          "internalType": "uint256",
          "name": "fromProofIndex",
          "type": "uint256"
        }
      ],
      "name": "submitAttestation",
      "outputs": [],
      "stateMutability": "payable",
      "type": "function"
    },
    {
      "inputs": [
        {
          "internalType": "address",
          "name": "attester",
          "type": "address"
        },
        {
          "internalType": "bytes",
          "name": "signature",
          "type": "bytes"
        },
        {
          "components": [
            {
              "internalType": "uint256",
              "name": "attesterId",
              "type": "uint256"
            },
            {
              "internalType": "uint256",
              "name": "posRep",
              "type": "uint256"
            },
            {
              "internalType": "uint256",
              "name": "negRep",
              "type": "uint256"
            },
            {
              "internalType": "uint256",
              "name": "graffiti",
              "type": "uint256"
            },
            {
              "internalType": "uint256",
              "name": "signUp",
              "type": "uint256"
            }
          ],
          "internalType": "struct UnirepTypes.Attestation",
          "name": "attestation",
          "type": "tuple"
        },
        {
          "internalType": "uint256",
          "name": "epochKey",
          "type": "uint256"
        },
        {
          "internalType": "uint256",
          "name": "toProofIndex",
          "type": "uint256"
        },
        {
          "internalType": "uint256",
          "name": "fromProofIndex",
          "type": "uint256"
        }
      ],
      "name": "submitAttestationViaRelayer",
      "outputs": [],
      "stateMutability": "payable",
      "type": "function"
    },
    {
      "inputs": [
        {
          "components": [
            {
              "internalType": "uint256",
              "name": "globalStateTree",
              "type": "uint256"
            },
            {
              "internalType": "uint256",
              "name": "epoch",
              "type": "uint256"
            },
            {
              "internalType": "uint256",
              "name": "epochKey",
              "type": "uint256"
            },
            {
              "internalType": "uint256[8]",
              "name": "proof",
              "type": "uint256[8]"
            }
          ],
          "internalType": "struct UnirepTypes.EpochKeyProof",
          "name": "_input",
          "type": "tuple"
        }
      ],
      "name": "submitEpochKeyProof",
      "outputs": [],
      "stateMutability": "nonpayable",
      "type": "function"
    },
    {
      "inputs": [],
      "name": "treeDepths",
      "outputs": [
        {
          "internalType": "uint8",
          "name": "globalStateTreeDepth",
          "type": "uint8"
        },
        {
          "internalType": "uint8",
          "name": "userStateTreeDepth",
          "type": "uint8"
        },
        {
          "internalType": "uint8",
          "name": "epochTreeDepth",
          "type": "uint8"
        }
      ],
      "stateMutability": "view",
      "type": "function"
    },
    {
      "inputs": [
        {
          "internalType": "uint256[8]",
          "name": "_proof",
          "type": "uint256[8]"
        }
      ],
      "name": "unpackProof",
      "outputs": [
        {
          "internalType": "uint256[2]",
          "name": "",
          "type": "uint256[2]"
        },
        {
          "internalType": "uint256[2][2]",
          "name": "",
          "type": "uint256[2][2]"
        },
        {
          "internalType": "uint256[2]",
          "name": "",
          "type": "uint256[2]"
        }
      ],
      "stateMutability": "pure",
      "type": "function"
    },
    {
      "inputs": [
        {
          "components": [
            {
              "internalType": "uint256",
              "name": "newGlobalStateTreeLeaf",
              "type": "uint256"
            },
            {
              "internalType": "uint256[]",
              "name": "epkNullifiers",
              "type": "uint256[]"
            },
            {
              "internalType": "uint256",
              "name": "transitionFromEpoch",
              "type": "uint256"
            },
            {
              "internalType": "uint256[]",
              "name": "blindedUserStates",
              "type": "uint256[]"
            },
            {
              "internalType": "uint256",
              "name": "fromGlobalStateTree",
              "type": "uint256"
            },
            {
              "internalType": "uint256[]",
              "name": "blindedHashChains",
              "type": "uint256[]"
            },
            {
              "internalType": "uint256",
              "name": "fromEpochTree",
              "type": "uint256"
            },
            {
              "internalType": "uint256[8]",
              "name": "proof",
              "type": "uint256[8]"
            }
          ],
          "internalType": "struct UnirepTypes.UserTransitionProof",
          "name": "_proof",
          "type": "tuple"
        },
        {
          "internalType": "uint256[]",
          "name": "proofIndexRecords",
          "type": "uint256[]"
        }
      ],
      "name": "updateUserStateRoot",
      "outputs": [],
      "stateMutability": "nonpayable",
      "type": "function"
    },
    {
      "inputs": [
        {
          "internalType": "uint256",
          "name": "_identityCommitment",
          "type": "uint256"
        }
      ],
      "name": "userSignUp",
      "outputs": [],
      "stateMutability": "nonpayable",
      "type": "function"
    },
    {
      "inputs": [
        {
          "components": [
            {
              "internalType": "uint256",
              "name": "globalStateTree",
              "type": "uint256"
            },
            {
              "internalType": "uint256",
              "name": "epoch",
              "type": "uint256"
            },
            {
              "internalType": "uint256",
              "name": "epochKey",
              "type": "uint256"
            },
            {
              "internalType": "uint256[8]",
              "name": "proof",
              "type": "uint256[8]"
            }
          ],
          "internalType": "struct UnirepTypes.EpochKeyProof",
          "name": "_input",
          "type": "tuple"
        }
      ],
      "name": "verifyEpochKeyValidity",
      "outputs": [
        {
          "internalType": "bool",
          "name": "",
          "type": "bool"
        }
      ],
      "stateMutability": "view",
      "type": "function"
    },
    {
      "inputs": [
        {
          "internalType": "uint256",
          "name": "_outputBlindedUserState",
          "type": "uint256"
        },
        {
          "internalType": "uint256",
          "name": "_outputBlindedHashChain",
          "type": "uint256"
        },
        {
          "internalType": "uint256",
          "name": "_inputBlindedUserState",
          "type": "uint256"
        },
        {
          "internalType": "uint256[8]",
          "name": "_proof",
          "type": "uint256[8]"
        }
      ],
      "name": "verifyProcessAttestationProof",
      "outputs": [
        {
          "internalType": "bool",
          "name": "",
          "type": "bool"
        }
      ],
      "stateMutability": "view",
      "type": "function"
    },
    {
      "inputs": [
        {
          "components": [
            {
              "internalType": "uint256[]",
              "name": "repNullifiers",
              "type": "uint256[]"
            },
            {
              "internalType": "uint256",
              "name": "epoch",
              "type": "uint256"
            },
            {
              "internalType": "uint256",
              "name": "epochKey",
              "type": "uint256"
            },
            {
              "internalType": "uint256",
              "name": "globalStateTree",
              "type": "uint256"
            },
            {
              "internalType": "uint256",
              "name": "attesterId",
              "type": "uint256"
            },
            {
              "internalType": "uint256",
              "name": "proveReputationAmount",
              "type": "uint256"
            },
            {
              "internalType": "uint256",
              "name": "minRep",
              "type": "uint256"
            },
            {
              "internalType": "uint256",
              "name": "proveGraffiti",
              "type": "uint256"
            },
            {
              "internalType": "uint256",
              "name": "graffitiPreImage",
              "type": "uint256"
            },
            {
              "internalType": "uint256[8]",
              "name": "proof",
              "type": "uint256[8]"
            }
          ],
          "internalType": "struct UnirepTypes.ReputationProof",
          "name": "_input",
          "type": "tuple"
        }
      ],
      "name": "verifyReputation",
      "outputs": [
        {
          "internalType": "bool",
          "name": "",
          "type": "bool"
        }
      ],
      "stateMutability": "view",
      "type": "function"
    },
    {
      "inputs": [
        {
          "internalType": "uint256",
          "name": "_blindedUserState",
          "type": "uint256"
        },
        {
          "internalType": "uint256",
          "name": "_blindedHashChain",
          "type": "uint256"
        },
        {
          "internalType": "uint256",
          "name": "_GSTRoot",
          "type": "uint256"
        },
        {
          "internalType": "uint256[8]",
          "name": "_proof",
          "type": "uint256[8]"
        }
      ],
      "name": "verifyStartTransitionProof",
      "outputs": [
        {
          "internalType": "bool",
          "name": "",
          "type": "bool"
        }
      ],
      "stateMutability": "view",
      "type": "function"
    },
    {
      "inputs": [
        {
          "components": [
            {
              "internalType": "uint256",
              "name": "epoch",
              "type": "uint256"
            },
            {
              "internalType": "uint256",
              "name": "epochKey",
              "type": "uint256"
            },
            {
              "internalType": "uint256",
              "name": "globalStateTree",
              "type": "uint256"
            },
            {
              "internalType": "uint256",
              "name": "attesterId",
              "type": "uint256"
            },
            {
              "internalType": "uint256",
              "name": "userHasSignedUp",
              "type": "uint256"
            },
            {
              "internalType": "uint256[8]",
              "name": "proof",
              "type": "uint256[8]"
            }
          ],
          "internalType": "struct UnirepTypes.SignUpProof",
          "name": "_input",
          "type": "tuple"
        }
      ],
      "name": "verifyUserSignUp",
      "outputs": [
        {
          "internalType": "bool",
          "name": "",
          "type": "bool"
        }
      ],
      "stateMutability": "view",
      "type": "function"
    },
    {
      "inputs": [
        {
          "components": [
            {
              "internalType": "uint256",
              "name": "newGlobalStateTreeLeaf",
              "type": "uint256"
            },
            {
              "internalType": "uint256[]",
              "name": "epkNullifiers",
              "type": "uint256[]"
            },
            {
              "internalType": "uint256",
              "name": "transitionFromEpoch",
              "type": "uint256"
            },
            {
              "internalType": "uint256[]",
              "name": "blindedUserStates",
              "type": "uint256[]"
            },
            {
              "internalType": "uint256",
              "name": "fromGlobalStateTree",
              "type": "uint256"
            },
            {
              "internalType": "uint256[]",
              "name": "blindedHashChains",
              "type": "uint256[]"
            },
            {
              "internalType": "uint256",
              "name": "fromEpochTree",
              "type": "uint256"
            },
            {
              "internalType": "uint256[8]",
              "name": "proof",
              "type": "uint256[8]"
            }
          ],
          "internalType": "struct UnirepTypes.UserTransitionProof",
          "name": "_input",
          "type": "tuple"
        }
      ],
      "name": "verifyUserStateTransition",
      "outputs": [
        {
          "internalType": "bool",
          "name": "",
          "type": "bool"
        }
      ],
      "stateMutability": "view",
      "type": "function"
    }
  ],
  "bytecode": "0x6101606040527f30644e72e131a029b85045b68181585d2833e84879b9709143e1f593f000000162000033610180620004c9565b6040516020818303038152906040528051906020012060001c620000589190620006f2565b600055600160075560006009556001600a556001600c5560016012553480156200008157600080fd5b5060405162004fa538038062004fa5833981016040819052620000a4916200039f565b8b601460008201518160000160006101000a81548160ff021916908360ff16021790555060208201518160000160016101000a81548160ff021916908360ff16021790555060408201518160000160026101000a81548160ff021916908360ff16021790555090505089600160006101000a8154816001600160a01b0302191690836001600160a01b0316021790555088600260006101000a8154816001600160a01b0302191690836001600160a01b0316021790555087600360006101000a8154816001600160a01b0302191690836001600160a01b0316021790555086600460006101000a8154816001600160a01b0302191690836001600160a01b0316021790555085600560006101000a8154816001600160a01b0302191690836001600160a01b0316021790555084600660006101000a8154816001600160a01b0302191690836001600160a01b031602179055508360ff1660c08160ff1660f81b815250508260ff1660e08160ff1660f81b8152505081608081815250504260088190555033600b60006101000a8154816001600160a01b0302191690836001600160a01b03160217905550600060018d600001516002620002669190620005e0565b620002729190620006d8565b9050808c600001511115620002a45760405162461bcd60e51b81526004016200029b90620004db565b60405180910390fd5b8b516101005260208d0151600090600190620002c2906002620005e0565b620002ce9190620006d8565b9050808d602001511115620002f75760405162461bcd60e51b81526004016200029b9062000512565b60208d01516101205260408e015160019062000315906002620005e0565b620003219190620006d8565b60a05250506101405250620007299950505050505050505050565b80516001600160a01b03811681146200035457600080fd5b919050565b6000604082840312156200036b578081fd5b62000377604062000554565b9050815181526020820151602082015292915050565b805160ff811681146200035457600080fd5b6000806000806000806000806000806000808c8e036101e0811215620003c3578889fd5b6060811215620003d1578889fd5b50620003de606062000554565b620003e98e6200038d565b8152620003f960208f016200038d565b60208201526200040c60408f016200038d565b60408201529b50620004228e60608f0162000359565b9a506200043260a08e016200033c565b99506200044260c08e016200033c565b98506200045260e08e016200033c565b9750620004636101008e016200033c565b9650620004746101208e016200033c565b9550620004856101408e016200033c565b9450620004966101608e016200038d565b9350620004a76101808e016200038d565b92506101a08d015191506101c08d015190509295989b509295989b509295989b565b650556e697265760d41b815260060190565b6020808252601e908201527f556e697265703a20696e76616c6964206d617855736572732076616c75650000604082015260600190565b60208082526022908201527f556e697265703a20696e76616c6964206d61784174746573746572732076616c604082015261756560f01b606082015260800190565b604051601f8201601f191681016001600160401b03811182821017156200058b57634e487b7160e01b600052604160045260246000fd5b604052919050565b80825b6001808611620005a75750620005d7565b818704821115620005bc57620005bc62000713565b80861615620005ca57918102915b9490941c93800262000596565b94509492505050565b6000620005f460001960ff851684620005fb565b9392505050565b6000826200060c57506001620005f4565b816200061b57506000620005f4565b81600181146200063457600281146200063f5762000673565b6001915050620005f4565b60ff84111562000653576200065362000713565b6001841b9150848211156200066c576200066c62000713565b50620005f4565b5060208310610133831016604e8410600b8410161715620006ab575081810a83811115620006a557620006a562000713565b620005f4565b620006ba848484600162000593565b808604821115620006cf57620006cf62000713565b02949350505050565b600082821015620006ed57620006ed62000713565b500390565b6000826200070e57634e487b7160e01b81526012600452602481fd5b500690565b634e487b7160e01b600052601160045260246000fd5b60805160a05160c05160f81c60e05160f81c610100516101205161014051614750620008556000396000818161185d015261285801526000818161258c0152612774015260008181610a57015261244401526000818161116001528181611403015281816114a5015281816114fb01528181611558015281816115b5015281816116120152818161166f015281816116cc0152818161172a01526122d8015260008181610d2301528181610d8f0152818161188701528181611944015281816119f701528181611a7a01528181611b0201528181611b6401528181611bbc01528181611c1b01528181611c9a01526120140152600081816111f60152818161132401528181611d78015281816121ca0152612636015260008181610f4a015261234301526147506000f3fe60806040526004361061027d5760003560e01c806398588c1f1161014f578063b876ed71116100c1578063e1b0e8021161007a578063e1b0e802146106f5578063e79e23e91461070a578063e87101b11461072a578063f5ab0dd61461073f578063f73c8ebb1461076e578063fadd942d1461078e5761027d565b8063b876ed7114610658578063bff3df4114610678578063c26396731461068b578063cd5032e2146106a0578063d3aa645b146106c0578063de723886146106e05761027d565b8063a710d60f11610113578063a710d60f1461059d578063a7c264ca146105bd578063a7ebaa75146105df578063ac98e5df146105f4578063ad944e4714610618578063b530dc8c146106385761027d565b806398588c1f146105085780639e2e79dc14610528578063a14a9fe214610548578063a27e572a14610568578063a5500c301461057d5761027d565b806357d775f8116101f357806376671808116101ac578063766718081461047f578063839beeb81461049457806386826c4d146104a95780638728f5b2146104c95780639109d1eb146104de578063918f0c16146104f35761027d565b806357d775f8146103e45780635b3745b5146103f9578063606736fb1461041957806366c0f31f1461042c5780636e85e8141461044c5780636fbbdb361461046c5761027d565b80631e06fc01116102455780631e06fc011461033a578063410a14041461034f578063417b16e31461036f578063456bfc711461038f578063494e2171146103af57806356df4634146103cf5761027d565b806305d9ab821461028257806307d83308146102b8578063131a91ad146102cd578063132331f2146102ed5780631c89e8e81461030d575b600080fd5b34801561028e57600080fd5b506102a261029d36600461326a565b6107a3565b6040516102af91906137f4565b60405180910390f35b3480156102c457600080fd5b506102a26107ea565b3480156102d957600080fd5b506102a26102e836600461309e565b6107f0565b3480156102f957600080fd5b506102a26103083660046131c7565b610802565b34801561031957600080fd5b5061032d6103283660046131c7565b610814565b6040516102af91906137e9565b61034d6103483660046131df565b610829565b005b34801561035b57600080fd5b5061032d61036a36600461326a565b61083c565b34801561037b57600080fd5b5061034d61038a3660046131c7565b6109e3565b34801561039b57600080fd5b5061032d6103aa36600461338e565b610b46565b3480156103bb57600080fd5b5061034d6103ca366004613422565b610ce6565b3480156103db57600080fd5b5061034d610f3d565b3480156103f057600080fd5b506102a2610f48565b34801561040557600080fd5b5061032d610414366004613483565b610f6c565b61034d6104273660046132b7565b611124565b34801561043857600080fd5b5061034d61044736600461326a565b6112e7565b34801561045857600080fd5b5061032d6104673660046132b7565b6113d6565b61034d61047a366004613109565b6117fe565b34801561048b57600080fd5b506102a2611855565b3480156104a057600080fd5b506102a261185b565b3480156104b557600080fd5b5061032d6104c43660046133ef565b61187f565b3480156104d557600080fd5b506102a2611d76565b3480156104ea57600080fd5b506102a2611d9a565b3480156104ff57600080fd5b506102a2611da0565b34801561051457600080fd5b5061034d6105233660046130b8565b611da6565b34801561053457600080fd5b506102a26105433660046134c8565b611e10565b34801561055457600080fd5b506102a26105633660046133ef565b611e49565b34801561057457600080fd5b5061034d611e83565b34801561058957600080fd5b5061034d6105983660046131c7565b611ea5565b3480156105a957600080fd5b5061032d6105b8366004613483565b611ec0565b3480156105c957600080fd5b506105d2612012565b6040516102af9190614565565b3480156105eb57600080fd5b5061034d612036565b34801561060057600080fd5b5061060961204b565b6040516102af93929190614573565b34801561062457600080fd5b506102a26106333660046132b7565b612067565b34801561064457600080fd5b506102a261065336600461309e565b6120ad565b34801561066457600080fd5b5061034d610673366004613483565b6120bf565b61034d61068636600461338e565b612170565b34801561069757600080fd5b506105d26122d6565b3480156106ac57600080fd5b506102a26106bb36600461338e565b6122fa565b3480156106cc57600080fd5b506102a26106db36600461309e565b61232a565b3480156106ec57600080fd5b5061034d61233c565b34801561070157600080fd5b506102a2612442565b34801561071657600080fd5b506102a2610725366004613483565b612466565b34801561073657600080fd5b506102a261247f565b34801561074b57600080fd5b5061075f61075a36600461318b565b612485565b6040516102af93929190613779565b34801561077a57600080fd5b5061034d610789366004613483565b61250e565b34801561079a57600080fd5b506102a261258a565b600081600001518260200151836040015184606001516040516020016107cc9493929190613715565b6040516020818303038152906040528051906020012090505b919050565b600f5481565b60116020526000908152604090205481565b600d6020526000908152604090205481565b600e6020526000908152604090205460ff1681565b61083633858585856125ae565b50505050565b604080516003808252608082019092526000918291906020820160608036833701905050905082600001518160008151811061088857634e487b7160e01b600052603260045260246000fd5b6020026020010181815250508260200151816001815181106108ba57634e487b7160e01b600052603260045260246000fd5b6020026020010181815250508260400151816002815181106108ec57634e487b7160e01b600052603260045260246000fd5b602002602001018181525050610901816126a8565b6109265760405162461bcd60e51b815260040161091d90613bbe565b60405180910390fd5b61092e612dcf565b61093b8460600151612485565b60408085018290526020850183905283855260015490516361971b8760e11b81526001600160a01b039091169363c32e370e9361098193919290919088906004016137a2565b60206040518083038186803b15801561099957600080fd5b505afa1580156109ad573d6000803e3d6000fd5b505050506040513d601f19601f820116820180604052508101906109d191906131a7565b15156060909101819052915050919050565b600b546001600160a01b0316331480610a0a57503360009081526011602052604090205415155b610a265760405162461bcd60e51b815260040161091d9061415a565b6000818152600e602052604090205460ff1615610a555760405162461bcd60e51b815260040161091d9061404c565b7f000000000000000000000000000000000000000000000000000000000000000060095410610a965760405162461bcd60e51b815260040161091d906140d5565b336000908152601160209081526040808320546013835281842054858552600e909352908320805460ff19166001179055600980549193610ad68361465d565b91905055506007546000805160206146db8339815191526000604051610afc919061387f565b60405180910390a2826007547faf92f92b28945d280b51131bc986d2da66b560950f1a5126f12b7f847dae8f7d8484604051610b39929190614533565b60405180910390a3505050565b60408051600580825260c082019092526000918291906020820160a080368337019050509050826000015181600081518110610b9257634e487b7160e01b600052603260045260246000fd5b602002602001018181525050826020015181600181518110610bc457634e487b7160e01b600052603260045260246000fd5b602002602001018181525050826040015181600281518110610bf657634e487b7160e01b600052603260045260246000fd5b602002602001018181525050826060015181600381518110610c2857634e487b7160e01b600052603260045260246000fd5b602002602001018181525050826080015181600481518110610c5a57634e487b7160e01b600052603260045260246000fd5b602002602001018181525050610c6f816126a8565b610c8b5760405162461bcd60e51b815260040161091d90613a7d565b610c93612dcf565b610ca08460a00151612485565b60408085018290526020850183905283855260065490516361971b8760e11b81526001600160a01b039091169363c32e370e9361098193919290919088906004016137a2565b6000610cf183611e49565b9050610cfc81612710565b600754836040015110610d215760405162461bcd60e51b815260040161091d90613ebd565b7f000000000000000000000000000000000000000000000000000000000000000060ff1683602001515114610d685760405162461bcd60e51b815260040161091d90614229565b826060015151600214610d8d5760405162461bcd60e51b815260040161091d90613a30565b7f000000000000000000000000000000000000000000000000000000000000000060ff168360a001515114610dd45760405162461bcd60e51b815260040161091d90613f7b565b60005b8251811015610e6e57828181518110610e0057634e487b7160e01b600052603260045260246000fd5b6020026020010151600014158015610e405750600a54838281518110610e3657634e487b7160e01b600052603260045260246000fd5b6020026020010151105b610e5c5760405162461bcd60e51b815260040161091d90614123565b80610e668161465d565b915050610dd7565b50600a546007546040516000805160206146db83398151915290610e949060019061387f565b60405180910390a2807f5b552a9df44a1ab5bbe960f96fe04b35454baded1ca53c89d13903661cf9fee18585604051610ece929190614462565b60405180910390a283516007546040517f5e4945fc83b420d245560b51ac02c824732652e0552b5d8537800db0c690a66390610f0b9085906137f4565b60405180910390a36000828152600d60205260408120829055600a805491610f328361465d565b919050555050505050565b610f463361273c565b565b7f000000000000000000000000000000000000000000000000000000000000000081565b60408051600380825260808201909252600091829190602082016060803683370190505090508581600081518110610fb457634e487b7160e01b600052603260045260246000fd5b6020026020010181815250508481600181518110610fe257634e487b7160e01b600052603260045260246000fd5b602002602001018181525050838160028151811061101057634e487b7160e01b600052603260045260246000fd5b602002602001018181525050611025816126a8565b6110415760405162461bcd60e51b815260040161091d90613c55565b611049612dcf565b604080516101008181019092526110789186906008908390839080828437600092019190915250612485915050565b60408085018290526020850183905283855260025490516361971b8760e11b81526001600160a01b039091169363c32e370e936110be93919290919088906004016137a2565b60206040518083038186803b1580156110d657600080fd5b505afa1580156110ea573d6000803e3d6000fd5b505050506040513d601f19601f8201168201806040525081019061110e91906131a7565b151560609091018190529150505b949350505050565b600061112f82612067565b905061113a81612710565b611143336127e6565b61115133836080015161281b565b611159612856565b81515160ff7f0000000000000000000000000000000000000000000000000000000000000000161461119d5760405162461bcd60e51b815260040161091d90613e18565b6007548260200151146111c25760405162461bcd60e51b815260040161091d90613ca1565b608082015133600090815260116020526040902054146111f45760405162461bcd60e51b815260040161091d906142ff565b7f0000000000000000000000000000000000000000000000000000000000000000826040015111156112385760405162461bcd60e51b815260040161091d906142c8565b600f546112459034612896565b600f55611250612e09565b336000908152601160205260409081902054825260a084015182820152600a548482015160075492519192909183907fb2bf4a676a6a5ef7e686a52ccf9f83f83acb1cac5d2eef1e090206a688c7777e906112ac90899061438e565b60405180910390a46112c83383866040015184600060026128a9565b6000838152600d60205260408120829055600a805491610f328361465d565b60006112f2826107a3565b90506112fd81612710565b6007548260200151146113225760405162461bcd60e51b815260040161091d90613e67565b7f0000000000000000000000000000000000000000000000000000000000000000826040015111156113665760405162461bcd60e51b815260040161091d906142c8565b6000600a5490508260400151600754827ff897f63ef79d1e56ab9f314e1e74d030bcd34a4f0d09ed2834f1efeebf9a4ed9866040516113a59190614354565b60405180910390a46000828152600d60205260408120829055600a8054916113cc8361465d565b9190505550505050565b6040805160128082526102608201909252600091829190602082016102408036833701905050905060005b7f000000000000000000000000000000000000000000000000000000000000000060ff168160ff16101561149c578351805160ff831690811061145457634e487b7160e01b600052603260045260246000fd5b6020026020010151828260ff168151811061147f57634e487b7160e01b600052603260045260246000fd5b60209081029190910101528061149481614678565b915050611401565b508260200151817f000000000000000000000000000000000000000000000000000000000000000060ff16815181106114e557634e487b7160e01b600052603260045260246000fd5b60209081029190910101526040830151816115217f000000000000000000000000000000000000000000000000000000000000000060016145d9565b60ff168151811061154257634e487b7160e01b600052603260045260246000fd5b602090810291909101015260608301518161157e7f000000000000000000000000000000000000000000000000000000000000000060026145d9565b60ff168151811061159f57634e487b7160e01b600052603260045260246000fd5b60209081029190910101526080830151816115db7f000000000000000000000000000000000000000000000000000000000000000060036145d9565b60ff16815181106115fc57634e487b7160e01b600052603260045260246000fd5b602090810291909101015260a0830151816116387f000000000000000000000000000000000000000000000000000000000000000060046145d9565b60ff168151811061165957634e487b7160e01b600052603260045260246000fd5b602090810291909101015260c0830151816116957f000000000000000000000000000000000000000000000000000000000000000060056145d9565b60ff16815181106116b657634e487b7160e01b600052603260045260246000fd5b602090810291909101015260e0830151816116f27f000000000000000000000000000000000000000000000000000000000000000060066145d9565b60ff168151811061171357634e487b7160e01b600052603260045260246000fd5b6020908102919091010152610100830151816117507f000000000000000000000000000000000000000000000000000000000000000060076145d9565b60ff168151811061177157634e487b7160e01b600052603260045260246000fd5b602002602001018181525050611786816126a8565b6117a25760405162461bcd60e51b815260040161091d90614092565b6117aa612dcf565b6117b8846101200151612485565b60408085018290526020850183905283855260055490516361971b8760e11b81526001600160a01b039091169363c32e370e9361098193919290919088906004016137a2565b61183e8787878080601f0160208091040260200160405190810160405280939291908181526020018383808284376000920191909152506129ac92505050565b5061184c87858585856125ae565b50505050505050565b60075481565b7f000000000000000000000000000000000000000000000000000000000000000081565b6000806118ad7f0000000000000000000000000000000000000000000000000000000000000000600261461d565b6118b89060066145d9565b60ff1667ffffffffffffffff8111156118e157634e487b7160e01b600052604160045260246000fd5b60405190808252806020026020018201604052801561190a578160200160208202803683370190505b50905082600001518160008151811061193357634e487b7160e01b600052603260045260246000fd5b60200260200101818152505060005b7f000000000000000000000000000000000000000000000000000000000000000060ff168160ff1610156119eb5783602001518160ff168151811061199757634e487b7160e01b600052603260045260246000fd5b6020026020010151828260016119ad91906145d9565b60ff16815181106119ce57634e487b7160e01b600052603260045260246000fd5b6020908102919091010152806119e381614678565b915050611942565b50604083015181611a1d7f000000000000000000000000000000000000000000000000000000000000000060016145d9565b60ff1681518110611a3e57634e487b7160e01b600052603260045260246000fd5b6020026020010181815250508260600151600081518110611a6f57634e487b7160e01b600052603260045260246000fd5b6020026020010151817f00000000000000000000000000000000000000000000000000000000000000006002611aa591906145d9565b60ff1681518110611ac657634e487b7160e01b600052603260045260246000fd5b6020026020010181815250508260600151600181518110611af757634e487b7160e01b600052603260045260246000fd5b6020026020010151817f00000000000000000000000000000000000000000000000000000000000000006003611b2d91906145d9565b60ff1681518110611b4e57634e487b7160e01b600052603260045260246000fd5b6020908102919091010152608083015181611b8a7f000000000000000000000000000000000000000000000000000000000000000060046145d9565b60ff1681518110611bab57634e487b7160e01b600052603260045260246000fd5b60200260200101818152505060005b7f000000000000000000000000000000000000000000000000000000000000000060ff168160ff161015611c8e578360a001518160ff1681518110611c0f57634e487b7160e01b600052603260045260246000fd5b602002602001015182827f00000000000000000000000000000000000000000000000000000000000000006005611c4691906145d9565b611c5091906145d9565b60ff1681518110611c7157634e487b7160e01b600052603260045260246000fd5b602090810291909101015280611c8681614678565b915050611bba565b5060c083015181611cc07f0000000000000000000000000000000000000000000000000000000000000000600261461d565b611ccb9060056145d9565b60ff1681518110611cec57634e487b7160e01b600052603260045260246000fd5b602002602001018181525050611d01816126a8565b611d1d5760405162461bcd60e51b815260040161091d90613dcd565b611d25612dcf565b611d328460e00151612485565b6040808501829052602085018390528385526004805491516361971b8760e11b81526001600160a01b039092169463c32e370e9461098194919390928991016137a2565b7f000000000000000000000000000000000000000000000000000000000000000081565b60125481565b60095481565b611de68383838080601f0160208091040260200160405190810160405280939291908181526020018383808284376000920191909152506129ac92505050565b611e025760405162461bcd60e51b815260040161091d90613ac0565b611e0b8361273c565b505050565b600084848484604051602001611e299493929190613715565b604051602081830303815290604052805190602001209050949350505050565b80516020808301516040808501516060860151608087015160a088015160c089015160e08a015195516000996107cc999098979101613691565b336000818152601060205260408120805491905590611ea29082612a26565b50565b611eae336127e6565b33600090815260136020526040902055565b60408051600380825260808201909252600091829190602082016060803683370190505090508581600081518110611f0857634e487b7160e01b600052603260045260246000fd5b6020026020010181815250508481600181518110611f3657634e487b7160e01b600052603260045260246000fd5b6020026020010181815250508381600281518110611f6457634e487b7160e01b600052603260045260246000fd5b602002602001018181525050611f79816126a8565b611f955760405162461bcd60e51b815260040161091d90614271565b611f9d612dcf565b60408051610100818101909252611fcc9186906008908390839080828437600092019190915250612485915050565b60408085018290526020850183905283855260035490516361971b8760e11b81526001600160a01b039091169363c32e370e936110be93919290919088906004016137a2565b7f000000000000000000000000000000000000000000000000000000000000000081565b600f805460009182905590611ea29082612a26565b60145460ff808216916101008104821691620100009091041683565b80516020808301516040808501516060860151608087015160a088015160c089015160e08a01516101008b01516101208c0151975160009b6107cc9b909a999101613602565b60136020526000908152604090205481565b60006120f6858585856008806020026040519081016040528092919082600860200280828437600092019190915250611e10915050565b905061210181612710565b6000600a5490508386827fc70a0250765c7e3a778b8771883540e979ac92fa4002835744533497db870646888760405161213c929190614517565b60405180910390a46000828152600d60205260408120829055600a8054916121638361465d565b9190505550505050505050565b600061217b826122fa565b90503361218782612710565b612190816127e6565b61219e81846060015161281b565b6121a6612856565b6007548351146121c85760405162461bcd60e51b815260040161091d906139dc565b7f00000000000000000000000000000000000000000000000000000000000000008360200151111561220c5760405162461bcd60e51b815260040161091d906142c8565b600f546122199034612896565b600f55612224612e09565b3360008181526011602090815260408083205485529282526013815290829020548382015260016080840152600a549086015160075492519192909183907f58b1080086db5bb58e2e8e2f28dc2a26b705277257655e9296c7ebfcfb8171369061228f908a9061441b565b60405180910390a46122ab3383876020015184600060016128a9565b6000848152600d60205260408120829055600a8054916122ca8361465d565b91905055505050505050565b7f000000000000000000000000000000000000000000000000000000000000000081565b80516020808301516040808501516060860151608087015160a088015193516000976107cc979096959101613740565b60106020526000908152604090205481565b60005a90507f0000000000000000000000000000000000000000000000000000000000000000600854426123709190614646565b101561238e5760405162461bcd60e51b815260040161091d90613b50565b6007546000805160206146db83398151915260036040516123af919061387f565b60405180910390a26007546040517f751bb1ba7b27b3979a32844d4d05aa16a46a771b751593704834a80311e3a9b990600090a242600855600780549060006123f78361465d565b919050555060006124095a8390612ac2565b905061242e612418823a612ace565b3360009081526010602052604090205490612896565b336000908152601060205260409020555050565b7f000000000000000000000000000000000000000000000000000000000000000081565b600084848484604051602001611e2994939291906136e9565b60085481565b61248d612e38565b612495612e56565b61249d612e38565b50506040805180820182528351815260208085015181830152825160808082018552868501518286019081526060808901519084015282528451808601865290870151815260a08701518184015281830152835180850190945260c0860151845260e0909501519083015293909150565b600061251c85858585612466565b905061252781612710565b6000600a54905083817ff32686467e2fc0ec47df070bcf076510ff790a7ec36e2c65de53ce0d17906b6988888760405161256393929190614541565b60405180910390a36000828152600d60205260408120829055600a8054916121638361465d565b7f000000000000000000000000000000000000000000000000000000000000000081565b6125b7856127e6565b6125c285853561281b565b6125ca612856565b81158015906125da5750600a5482105b80156125e75750600a5481105b6126035760405162461bcd60e51b815260040161091d90614123565b60808401351580612618575083608001356001145b6126345760405162461bcd60e51b815260040161091d90613b87565b7f00000000000000000000000000000000000000000000000000000000000000008311156126745760405162461bcd60e51b815260040161091d906142c8565b600f546126819034612896565b600f556126a18561269736879003870187613219565b85858560006128a9565b5050505050565b8051600090815b81811015612706576126e78482815181106126da57634e487b7160e01b600052603260045260246000fd5b6020026020010151612ada565b6126f6576000925050506107e5565b6126ff8161465d565b90506126af565b5060019392505050565b6000818152600d602052604090205415611ea25760405162461bcd60e51b815260040161091d90613916565b6001600160a01b038116600090815260116020526040902054156127725760405162461bcd60e51b815260040161091d906138d0565b7f0000000000000000000000000000000000000000000000000000000000000000601254106127b35760405162461bcd60e51b815260040161091d90613f29565b601280546001600160a01b03831660009081526011602052604081208290559091906127de8361465d565b919050555050565b6001600160a01b038116600090815260116020526040902054611ea25760405162461bcd60e51b815260040161091d90613b0a565b6001600160a01b03821660009081526011602052604090205481146128525760405162461bcd60e51b815260040161091d906141f2565b5050565b7f0000000000000000000000000000000000000000000000000000000000000000341015610f465760405162461bcd60e51b815260040161091d90613c09565b60006128a282846145c1565b9392505050565b6128b68560200151612ada565b6128d25760405162461bcd60e51b815260040161091d90613fc8565b6128df8560400151612ada565b6128fb5760405162461bcd60e51b815260040161091d906141b0565b6129088560600151612ada565b6129245760405162461bcd60e51b815260040161091d90613998565b6007546000805160206146db8339815191526002604051612945919061387f565b60405180910390a2856001600160a01b0316846007547fdbd3d665448fee233664f2b549d5d40b93371f736ecc7f9bc421fe927bf0b37684898888600c5460405161299495949392919061381b565b60405180910390a4600c80549060006121638361465d565b60008083306040516020016129c29291906135db565b604051602081830303815290604052805190602001206040516020016129e8919061365d565b604051602081830303815290604052805190602001209050836001600160a01b0316612a148285612aff565b6001600160a01b031614949350505050565b80471015612a465760405162461bcd60e51b815260040161091d90613d96565b6000826001600160a01b031682604051612a5f9061368e565b60006040518083038185875af1925050503d8060008114612a9c576040519150601f19603f3d011682016040523d82523d6000602084013e612aa1565b606091505b5050905080611e0b5760405162461bcd60e51b815260040161091d90613cf7565b60006128a28284614646565b60006128a282846145fe565b7f30644e72e131a029b85045b68181585d2833e84879b9709143e1f593f00000011190565b6000806000612b0e8585612b23565b91509150612b1b81612b93565b509392505050565b600080825160411415612b5a5760208301516040840151606085015160001a612b4e87828585612cc0565b94509450505050612b8c565b825160401415612b845760208301516040840151612b79868383612da0565b935093505050612b8c565b506000905060025b9250929050565b6000816004811115612bb557634e487b7160e01b600052602160045260246000fd5b1415612bc057611ea2565b6001816004811115612be257634e487b7160e01b600052602160045260246000fd5b1415612c005760405162461bcd60e51b815260040161091d90613899565b6002816004811115612c2257634e487b7160e01b600052602160045260246000fd5b1415612c405760405162461bcd60e51b815260040161091d90613961565b6003816004811115612c6257634e487b7160e01b600052602160045260246000fd5b1415612c805760405162461bcd60e51b815260040161091d90613d54565b6004816004811115612ca257634e487b7160e01b600052602160045260246000fd5b1415611ea25760405162461bcd60e51b815260040161091d9061400a565b6000807f7fffffffffffffffffffffffffffffff5d576e7357a4501ddfe92f46681b20a0831115612cf75750600090506003612d97565b8460ff16601b14158015612d0f57508460ff16601c14155b15612d205750600090506004612d97565b600060018787878760405160008152602001604052604051612d4594939291906137fd565b6020604051602081039080840390855afa158015612d67573d6000803e3d6000fd5b5050604051601f1901519150506001600160a01b038116612d9057600060019250925050612d97565b9150600090505b94509492505050565b6000806001600160ff1b03831660ff84901c601b01612dc187828885612cc0565b935093505050935093915050565b6040518060800160405280612de2612e38565b8152602001612def612e56565b8152602001612dfc612e38565b8152600060209091015290565b6040518060a0016040528060008152602001600081526020016000815260200160008152602001600081525090565b60405180604001604052806002906020820280368337509192915050565b60405180604001604052806002905b612e6d612e38565b815260200190600190039081612e655790505090565b80356001600160a01b03811681146107e557600080fd5b600082601f830112612eaa578081fd5b610100612eb681614590565b8084868487011115612ec6578485fd5b8493505b6008841015612eea57803583526001939093019260209283019201612eca565b5095945050505050565b600082601f830112612f04578081fd5b8135602067ffffffffffffffff821115612f2057612f206146c4565b808202612f2e828201614590565b838152828101908684018388018501891015612f48578687fd5b8693505b85841015612f6a578035835260019390930192918401918401612f4c565b50979650505050505050565b60008083601f840112612f87578182fd5b50813567ffffffffffffffff811115612f9e578182fd5b602083019150836020828501011115612b8c57600080fd5b600060a08284031215612fc7578081fd5b50919050565b60006101e08284031215612fdf578081fd5b612fea610100614590565b905081358152602082013567ffffffffffffffff8082111561300b57600080fd5b61301785838601612ef4565b602084015260408401356040840152606084013591508082111561303a57600080fd5b61304685838601612ef4565b60608401526080840135608084015260a084013591508082111561306957600080fd5b5061307684828501612ef4565b60a08301525060c082013560c08201526130938360e08401612e9a565b60e082015292915050565b6000602082840312156130af578081fd5b6128a282612e83565b6000806000604084860312156130cc578182fd5b6130d584612e83565b9250602084013567ffffffffffffffff8111156130f0578283fd5b6130fc86828701612f76565b9497909650939450505050565b6000806000806000806000610140888a031215613124578283fd5b61312d88612e83565b9650602088013567ffffffffffffffff811115613148578384fd5b6131548a828b01612f76565b909750955061316890508960408a01612fb6565b9699959850939660e0810135956101008201359550610120909101359350915050565b6000610100828403121561319d578081fd5b6128a28383612e9a565b6000602082840312156131b8578081fd5b815180151581146128a2578182fd5b6000602082840312156131d8578081fd5b5035919050565b60008060008061010085870312156131f5578182fd5b6131ff8686612fb6565b9660a0860135965060c08601359560e00135945092505050565b600060a0828403121561322a578081fd5b61323460a0614590565b82358152602083013560208201526040830135604082015260608301356060820152608083013560808201528091505092915050565b6000610160828403121561327c578081fd5b6132866080614590565b8235815260208301356020820152604083013560408201526132ab8460608501612e9a565b60608201529392505050565b6000602082840312156132c8578081fd5b813567ffffffffffffffff808211156132df578283fd5b9083019061022082860312156132f3578283fd5b6132fe610140614590565b82358281111561330c578485fd5b61331887828601612ef4565b8252506020830135602082015260408301356040820152606083013560608201526080830135608082015260a083013560a082015260c083013560c082015260e083013560e082015261010091508183013582820152610120915061337f86838501612e9a565b91810191909152949350505050565b60006101a082840312156133a0578081fd5b6133aa60c0614590565b82358152602083013560208201526040830135604082015260608301356060820152608083013560808201526133e38460a08501612e9a565b60a08201529392505050565b600060208284031215613400578081fd5b813567ffffffffffffffff811115613416578182fd5b61111c84828501612fcd565b60008060408385031215613434578182fd5b823567ffffffffffffffff8082111561344b578384fd5b61345786838701612fcd565b9350602085013591508082111561346c578283fd5b5061347985828601612ef4565b9150509250929050565b60008060008061016080868803121561349a578283fd5b8535945060208601359350604086013592508681870111156134ba578182fd5b509295919450926060019150565b60008060008061016085870312156134de578182fd5b8435935060208501359250604085013591506134fd8660608701612e9a565b905092959194509250565b8060005b600281101561083657613520848351613536565b604093909301926020919091019060010161350c565b8060005b600281101561083657815184526020938401939091019060010161353a565b8060005b600881101561083657815184526020938401939091019060010161355d565b6000815180845260208085019450808401835b838110156135ab5781518752958201959082019060010161358f565b509495945050505050565b805160009060208084018383156135ab5781518752958201959082019060010161358f565b6bffffffffffffffffffffffff19606093841b811682529190921b16601482015260280190565b600061360e828d6135b6565b8b81528a60208201528960408201528860608201528760808201528660a08201528560c08201528460e0820152613649610100820185613559565b610200019c9b505050505050505050505050565b7f19457468657265756d205369676e6564204d6573736167653a0a3332000000008152601c810191909152603c0190565b90565b60008982526136a3602083018a6135b6565b8881526136b360208201896135b6565b90508681526136c560208201876135b6565b90508481526136d76020820185613559565b610120019a9950505050505050505050565b600085825284602083015283604083015261010083606084013761016091909101908152949350505050565b60008582528460208301528360408301526137336060830184613559565b5061016001949350505050565b600087825286602083015285604083015284606083015283608083015261376a60a0830184613559565b506101a0019695505050505050565b61010081016137888286613536565b6137956040830185613508565b61111c60c0830184613536565b60006101206137b18388613536565b6137be6040840187613508565b6137cb60c0840186613536565b806101008401526137de8184018561357c565b979650505050505050565b901515815260200190565b90815260200190565b93845260ff9290921660208401526040830152606082015260800190565b610120810160038710613830576138306146ae565b86825285516020830152602086015160408301526040860151606083015260608601516080830152608086015160a08301528460c08301528360e0830152826101008301529695505050505050565b6020810160048310613893576138936146ae565b91905290565b60208082526018908201527f45434453413a20696e76616c6964207369676e61747572650000000000000000604082015260600190565b60208082526026908201527f556e697265703a2061747465737465722068617320616c72656164792073696760408201526506e65642075760d41b606082015260800190565b6020808252602b908201527f556e697265703a207468652070726f6f6620686173206265656e207375626d6960408201526a74746564206265666f726560a81b606082015260800190565b6020808252601f908201527f45434453413a20696e76616c6964207369676e6174757265206c656e67746800604082015260600190565b60208082526024908201527f556e697265703a20696e76616c6964206174746573746174696f6e20677261666040820152636669746960e01b606082015260800190565b60208082526034908201527f556e697265703a207375626d697420616e2061697264726f702070726f6f66206040820152730eed2e8d040d2dcc6dee4e4cac6e840cae0dec6d60631b606082015260800190565b6020808252602d908201527f556e697265703a20696e76616c6964206e756d626572206f6620626c696e646560408201526c6420757365722073746174657360981b606082015260800190565b60208082526035908201526000805160206146fb833981519152604082015274068656e2076657269667920557365725369676e557605c1b606082015260800190565b6020808252602a908201527f556e697265703a20696e76616c6964206174746573746572207369676e207570604082015269207369676e617475726560b01b606082015260800190565b60208082526026908201527f556e697265703a20617474657374657220686173206e6f74207369676e6564206040820152651d5c081e595d60d21b606082015260800190565b6020808252601b908201527f556e697265703a2065706f6368206e6f742079657420656e6465640000000000604082015260600190565b6020808252601c908201527f556e697265703a20696e76616c6964207369676e20757020666c616700000000604082015260600190565b6020808252603a908201526000805160206146fb83398151915260408201527f68656e2076657269667945706f63684b657956616c6964697479000000000000606082015260800190565b6020808252602c908201527f556e697265703a206e6f20617474657374696e6720666565206f7220696e636f60408201526b1c9c9958dd08185b5bdd5b9d60a21b606082015260800190565b602080825260409082018190526000805160206146fb833981519152908201527f68656e207665726966792053746172745472616e736974696f6e2050726f6f66606082015260800190565b60208082526036908201527f556e697265703a207375626d697420612072657075746174696f6e2070726f6f6040820152750cc40eed2e8d040d2dcc6dee4e4cac6e840cae0dec6d60531b606082015260800190565b6020808252603a908201527f416464726573733a20756e61626c6520746f2073656e642076616c75652c207260408201527f6563697069656e74206d61792068617665207265766572746564000000000000606082015260800190565b60208082526022908201527f45434453413a20696e76616c6964207369676e6174757265202773272076616c604082015261756560f01b606082015260800190565b6020808252601d908201527f416464726573733a20696e73756666696369656e742062616c616e6365000000604082015260600190565b6020808252603e908201526000805160206146fb83398151915260408201527f68656e20766572696679205573657253746174655472616e736974696f6e0000606082015260800190565b6020808252602f908201527f556e697265703a20696e76616c6964206e756d626572206f662072657075746160408201526e74696f6e206e756c6c69666965727360881b606082015260800190565b60208082526036908201527f556e697265703a207375626d697420616e2065706f6368206b65792070726f6f6040820152750cc40eed2e8d040d2dcc6dee4e4cac6e840cae0dec6d60531b606082015260800190565b60208082526046908201527f43616e206e6f74207472616e736974696f6e2066726f6d2065706f636820746860408201527f617427732067726561746572206f7220657175616c20746f2063757272656e74606082015265040cae0dec6d60d31b608082015260a00190565b60208082526032908201527f556e697265703a206d6178696d756d206e756d626572206f6620617474657374604082015271195c881cda59db9d5c1cc81c995858da195960721b606082015260800190565b6020808252602d908201527f556e697265703a20696e76616c6964206e756d626572206f6620626c696e646560408201526c64206861736820636861696e7360981b606082015260800190565b60208082526022908201527f556e697265703a20696e76616c6964206174746573746174696f6e20706f7352604082015261065760f41b606082015260800190565b60208082526022908201527f45434453413a20696e76616c6964207369676e6174757265202776272076616c604082015261756560f01b606082015260800190565b60208082526026908201527f556e697265703a2074686520757365722068617320616c72656164792073696760408201526506e65642075760d41b606082015260800190565b60208082526035908201526000805160206146fb8339815191526040820152743432b7103b32b934b33c902932b83aba30ba34b7b760591b606082015260800190565b6020808252602e908201527f556e697265703a206d6178696d756d206e756d626572206f662075736572207360408201526d1a59db9d5c1cc81c995858da195960921b606082015260800190565b6020808252601b908201527f556e697265703a20696e76616c69642070726f6f6620696e6465780000000000604082015260600190565b60208082526036908201527f556e697265703a207369676e2075702073686f756c64207468726f7567682061604082015275371030b236b4b71037b91030b71030ba3a32b9ba32b960511b606082015260800190565b60208082526022908201527f556e697265703a20696e76616c6964206174746573746174696f6e206e656752604082015261065760f41b606082015260800190565b6020808252601d908201527f556e697265703a206d69736d6174636865642061747465737465724964000000604082015260600190565b60208082526028908201527f556e697265703a20696e76616c6964206e756d626572206f662065706b206e756040820152676c6c69666965727360c01b606082015260800190565b60208082526043908201526000805160206146fb83398151915260408201527f68656e207665726966792050726f636573734174746573746174696f6e20507260608201526237b7b360e91b608082015260a00190565b6020808252601f908201527f556e697265703a20696e76616c69642065706f6368206b65792072616e676500604082015260600190565b60208082526035908201527f556e697265703a20696e636f727265637420617474657374657220494420696e604082015274103a3432903932b83aba30ba34b7b710383937b7b360591b606082015260800190565b60006101608201905082518252602083015160208301526040830151604083015260608301516143876060840182613559565b5092915050565b600060208252825161022060208401526143ac61024084018261357c565b9050602084015160408401526040840151606084015260608401516080840152608084015160a084015260a084015160c084015260c084015160e084015260e0840151610100818186015280860151915050610120818186015280860151915050612b1b610140850182613559565b60006101a082019050825182526020830151602083015260408301516040830152606083015160608301526080830151608083015260a083015161438760a0840182613559565b6000604082528351604083015260208401516101e0606084015261448a61022084018261357c565b9050604085015160808401526060850151603f19808584030160a08601526144b2838361357c565b9250608087015160c086015260a08701519150808584030160e0860152506144da828261357c565b91505060c085015161010084015260e08501516144fb610120850182613559565b50828103602084015261450e818561357c565b95945050505050565b8281526101208101610100836020840137600081529392505050565b918252602082015260400190565b83815260208101839052610140810161010083604084013760008152949350505050565b60ff91909116815260200190565b60ff93841681529183166020830152909116604082015260600190565b604051601f8201601f1916810167ffffffffffffffff811182821017156145b9576145b96146c4565b604052919050565b600082198211156145d4576145d4614698565b500190565b600060ff821660ff84168060ff038211156145f6576145f6614698565b019392505050565b600081600019048311821515161561461857614618614698565b500290565b600060ff821660ff84168160ff048111821515161561463e5761463e614698565b029392505050565b60008282101561465857614658614698565b500390565b600060001982141561467157614671614698565b5060010190565b600060ff821660ff81141561468f5761468f614698565b60010192915050565b634e487b7160e01b600052601160045260246000fd5b634e487b7160e01b600052602160045260246000fd5b634e487b7160e01b600052604160045260246000fdfea3019980c7e9844ee00c3f7584f329ac6dae8bcc2e08a756cf9651c8d2e96a6d556e697265703a20696e76616c6964207075626c6963207369676e616c732077a2646970667358221220f46bdf8676ad6fd8360a683fe4c7c54ab4801b01cd9873b5d3222c6665df437864736f6c63430008010033",
  "linkReferences": {},
  "deployedLinkReferences": {}
}